:102CC600434C4F534544006E32313930653730330B
:102CD600332E696F6B2E6C610031393536350050F5
:042CE60044503A001C
:1000A600438E107F017E02122E6A7D017F017E0241
:1000B600122E26E4F541F542F537F538E54A640196
:1000C6004549700D122056E4F549F54AF54B754C35
:1000D600017F017E06122E0EEF3395E0FEEF6406D9
:1000E6004E7028900032E06409700302038E90007F
:1000F60032E064CC600302067E900070E0FD900062
:1001060071E0FB7FCC1212F602067E900032E064AC
:10011600CC7012900070E0FD900071E0FB7FCC1275
:1001260012F6020491900032E064017024FFFE1280
:100136002DDC9000717404F07F017E06122E6A7D1C
:10014600047F017E06122E267B047D017F110203A9
:1001560056900032E0640260030201EEFFFEFDFCF1
:10016600AB40AA3FA93EA83DD312123B40177F01E0
:100176007E00122DDC9000717401F0FF7E06122EB7
:100186006A7D018050E4FFFEFDFCAB40AA3FA93E1C
:10019600A83DC312123B7015FFFE122DDC900071B4
:1001A6007401F0FF7E06122E6A7D028028E4FFFEAF
:1001B600FDFCAB40AA3FA93EA83DC312123B501C12
:1001C600E4FFFE122DDC9000717402F07F017E06C2
:1001D600122E6A7D027F017E06122E26900071E0A5
:1001E600FB7D017F22020356900032E06405600326
:1001F60002032E12289D90008212125FAF40AE3F7E
:10020600AD3EAC3D90008612125F900082E0FCA3EA
:10021600E0FDA3E0FEA3E0FFA3E0F8A3E0F9A3E07E
:10022600FAA3E02FF540EA3EF53FE93DF53EE83C0E
:10023600F53DAF40AE3FAD3EFC122E808F47AF403E
:10024600AE3FAD3EAC3D122E958F21AF40AE3FADD9
:100256003EAC3D122EAA8F22AF40AE3FAD3EAC3D26
:10026600122DF58F487F017E1C122E6AAD477F0145
:100276007E1C122E26AD217F027E1C122E26AD225A
:100286007F037E1C122E26AD487F047E1C122E266E
:10029600E4FFFEFDFCAB40AA3FA93EA83DD31212E7
:1002A6003B40177F017E00122DDC9000717401F037
:1002B600FF7E06122E6A7D018050E4FFFEFDFCAB38
:1002C60040AA3FA93EA83DC312123B7015FFFE127D
:1002D6002DDC9000717401F0FF7E06122E6A7D02FD
:1002E6008028E4FFFEFDFCAB40AA3FA93EA83DC323
:1002F60012123B501CE4FFFE122DDC9000717402BA
:10030600F07F017E06122E6A7D027F017E06122E86
:1003160026900071E0FB7D017F551212F6E49000F5
:1003260033F0900034F0802C900032E0640D702B96
:100336007F017E02122E0E900070EFF07F017E0686
:10034600122E0E900071EFF0FB900070E0FD7FDD45
:100356001212F6E4900032F0020491900032E0644A
:100366000A701DFFFE122DDC121F69900070E0FD61
:10037600900071E0FB7FAA1212F6E4900032F022A0
:10038600900032E06409701EFFFE122DDC12264436
:10039600900070E0FD900071E0FB7F991212F690DC
:1003A60000327408F022900032E0640F6003020409
:1003B60091E524640145237033FFFE122DDC900085
:1003C60071740CF07F017E06122E6A7D0C7F017E11
:1003D60006122E26900071E0FB7D017FFF1212F6B9
:1003E600E4900032F0F523F524020491E524452338
:1003F6006003020491FFFEFDFCAB40AA3FA93EA8A4
:100406003DD312123B40177F017E00122DDC900077
:10041600717401F0FF7E06122E6A7D018050E4FFA2
:10042600FEFDFCAB40AA3FA93EA83DC312123B709D
:1004360015FFFE122DDC9000717401F0FF7E06128E
:100446002E6A7D028028E4FFFEFDFCAB40AA3FA990
:100456003EA83DC312123B501CE4FFFE122DDC9059
:1004660000717402F07F017E06122E6A7D027F0102
:100476007E06122E26900071E0FB7D017FFF121290
:10048600F6E4900032F0F523752401E53864014561
:10049600376003020521FFFEFDFCAB40AA3FA93EE3
:1004A600A83DD312123B40177F017E00122DDC902F
:1004B60000717401F0FF7E06122E6A7D018050E401
:1004C600FFFEFDFCAB40AA3FA93EA83DC312123B6E
:1004D6007015FFFE122DDC9000717401F0FF7E0690
:1004E600122E6A7D028028E4FFFEFDFCAB40AA3F87
:1004F600A93EA83DC312123B501CE4FFFE122DDCA0
:100506009000717402F07F017E06122E6A7D027FD2
:10051600017E06122E26E4F537F538E542640145DC
:1005260041600302067EFFFEFDFCAB40AA3FA93EEA
:10053600A83DD312123B40177F017E00122DDC909E
:1005460000717401F0FF7E06122E6A7D018050E470
:10055600FFFEFDFCAB40AA3FA93EA83DC312123BDD
:100566007015FFFE122DDC9000717401F0FF7E06FF
:10057600122E6A7D028028E4FFFEFDFCAB40AA3FF6
:10058600A93EA83DC312123B501CE4FFFE122DDC0F
:100596009000717402F07F017E06122E6A7D027F42
:1005A600017E06122E26AF40AE3FAD3EAC3D122E6A
:1005B600808F47AF40AE3FAD3EAC3D122E958F21AA
:1005C600AF40AE3FAD3EAC3D122EAA8F22AF40AE3D
:1005D6003FAD3EAC3D122DF58F487F017E1C122E9D
:1005E6006AAD477F017E1C122E26AD217F027E1C3E
:1005F600122E26AD227F037E1C122E26AD487F04C6
:100606007E1C122E26AF32AE31AD30AC2F122E80AC
:100616008F45AF32AE31AD30AC2F122E958F51AF24
:1006260032AE31AD30AC2F122EAA8F52AF32AE3170
:10063600AD30AC2F122DF58F467F017E20122E6A2B
:10064600AD457F017E1C122E26AD517F027E1C1207
:100656002E26AD527F037E1C122E26AD467F047ECB
:100666001C122E26900070E0FD900071E0FB7F06C4
:100676001212F6E4F541F542756E00756F0075705D
:10068600007BFF7A2C79C6122445EF64014E604D3B
:10069600755F007560007561007BFF7A2C79C61264
:1006A60024F5EF64014E70028033756E00756F009D
:1006B6007570007BFF7A2C79E5122445EF64014EB4
:1006C600601B755F007560007561007BFF7A2C7991
:1006D600E51224F5EF64014E60030200C212002603
:1006E600755FFF75602C7561DF7BFF7A2C79CD1203
:1006F6001D4C754B00754C019000327408F07B015F
:100706007A007900122F747B017A007936122F74E1
:0107160022C0
:102DDC008E558F56E556640145557003122F4BE501
:092DEC005645557003122F5922BF
:052DC200E0FEA3E0FFAC
:102DC700E4900094F0A3F0EEFF3395E0FE900094BA
:042DD700F0A3EFF086
:012DDB0022D5
:05000E00E0FEA3E0FF8D
:0F001300E4900094F0A3F0FE900094F0A3EFF0BF
:0100220022BB
:102E8000E490008AF0A3F0781812124C90008AEEB9
:042E9000F0A3EFF0CC
:012E9400221B
:102E9500E490008AF0A3F0781012124C90008AEEAC
:042EA500F0A3EFF0B7
:012EA9002206
:102EAA00E490008AF0A3F0780812124C90008AEE9F
:042EBA00F0A3EFF0A2
:012EBE0022F1
:082DF5008F588E578D568C5546
:102DFD00E490008AF0A3F0E4FE90008AF0A3EFF0D7
:012E0D0022A2
:0A2D3200900033E0FF900034E0FD54
:102D3C00E4900090F0A3F0EFFE7C00E42DFFEC3E5D
:082D4C00FE900090F0A3EFF0EF
:012D5400225C
:0C26ED008E538F548C558D568A578B5895
:1026F90090008212126B00000000AE53E554781866
:10270900C333CE33CED8F9FFEE3395E0FDFCC004D8
:10271900C005C006C007AE55E5567810C333CE33A1
:10272900CED8F9FFEE3395E0FDFCD003D002D001FD
:10273900D000EB2FFFEA3EFEE93DFDE83CFCA80492
:10274900A905AA06AB07E5587F00FE3395E0FDFC15
:10275900EF2BFBEA3EFAE93DF9E83CF8AE59EE33D6
:1027690095E0FDFCEB255AFFEA3EFEE93DFDE83C1C
:10277900FC90008212125F900082E0FCA3E0FDA3AE
:05278900E0FEA3E0FFEB
:01278E002228
:101BEB0090005FE0FF90005EE02FFFE433FE90007B
:101BFB0060E07C002FFFEC3EFE900061E02FFFECDD
:101C0B003EFE900070E02FFFEC3EFE900032E02F86
:101C1B00FFEC3EFE900071E02FFFEC3EFE90006269
:101C2B00E02FFFEC3EFE900063E02FFFEC3EFE90BA
:101C3B000033E02FFFEC3EFE900034E02FFFEC3E34
:101C4B00FE900035E02FFFEC3EFE90005AE02FFF98
:101C5B00EC3EFE900072E02FFFEC3EFE900073E036
:101C6B002FFFEC3EFE900076E02FFFEC3EFE900047
:101C7B0077E02FFFEC3EFE900078E02FFFEC3EFE6E
:101C8B00900079E02FFFEC3EFE90007AE02FFFEC06
:101C9B003EFE90007BE02FFFEC3EFE900064E02FB9
:101CAB00FFEC3EFE900065E02FFFEC3EFE90005BEC
:101CBB00E02FFFEC3EFE900066E02FFFEC3EFE9027
:101CCB000068E02FFFEC3EFE900067E02FFFEC3E3C
:101CDB00FE90006AE02FFFEC3EFE900069E02FFFC4
:101CEB00EC3EFE90006CE02FFFEC3EFE90006BE0B4
:101CFB002FFFEC3EFE90006EE02FFFEC3EFE9000BF
:101D0B006DE02FFFEC3EFE90006FE02FFFEC3EFEF0
:101D1B0090008EF0A3EFF0122DC7EE8FF01211385A
:101D2B0090008E12000EAB5FAA60A961EE8FF002DD
:021D3B0011385D
:1029F9008F6E122F2D5010AF6EEF3395E0FEEF243E
:102A0900D0FFEE34FFFE22AF6EEF3395E0FEC3EF49
:102A19009441EE648094804040D3EF9446EE648004
:102A29009480400AEF9461EE64809480402BD3EF48
:102A3900947AEE648094804002801EAF6E122DA7B6
:102A49005017AF6E122F3CE56E500524C9FF800365
:0E2A590024A9FFEF3395E0FE227EFF7FFF22CF
:062143008B6B8A6C896DB4
:10214900E4900084F0A3F0122EBF900082EEF0A379
:10215900EFF0E490008AF0A3F0022203900082E0FD
:10216900FEA3E0FFC390008BE09FEE6480F890002F
:102179008AE0648098400302220CAB6BAA6CA96DBB
:10218900E0FEA3E0F5828E831210F9FF1229F9907F
:102199000086EEF0A3EFF090008AE0FEA3E0FFC313
:1021A900900083E09FFF900082E09ECF24FFCF3410
:1021B900FFFEEF7802C333CE33CED8F9FF90008803
:1021C900EEF0A3EFF0900086E0FEA3E0A8070880F8
:1021D90005C333CE33CED8F9FF900086EEF0A3EFD6
:1021E900F0900084E04EF0A3E04FF090008BE00403
:1021F900F0700690008AE004F0E4900086F0A3F005
:0B220900022165900084E0FEA3E0FFCE
:0122140022A7
:10289D00E490008AF0A3F0A312126B000000001266
:1028AD002D3290008AEEF0A3EFF0E4F553F554D3FA
:1028BD0090008BE0955490008AE09553403790003E
:1028CD008CE0F8A3E0F9A3E0FAA3E0FB900095E417
:1028DD0093FE740193FFE4FCFDEB2FFFEA3EFEED4A
:1028ED0039FDEC38FC90008C12125F0554E55470E4
:1028FD00BE055380BA90008CE0FCA3E0FDA3E0FE82
:03290D00A3E0FF45
:0129100022A4
:10291100E4900082F0A3F0A312126B0000000012F9
:102921002D32900082EEF0A3EFF0E4F555F556D389
:10293100900083E09556900082E0955540379000D5
:1029410084E0F8A3E0F9A3E0FAA3E0FB900097E4A8
:1029510093FE740193FFE4FCFDEB2FFFEA3EFEEDD5
:1029610039FDEC38FC90008412125F0556E5567073
:10297100BE055580BA900084E0FCA3E0FDA3E0FE13
:03298100A3E0FFD1
:012984002230
:10221500900097E493FE740193FBAA06E4F9F8AFE6
:1022250028AE27AD26AC2512119390008EEEF0A3B3
:10223500EFF0900070E064057005900097800B90BA
:102245000070E06401702190009593FE740193FB8A
:10225500AA06E4F9F8AF40AE3FAD3EAC3D1211938E
:10226500900090EEF0A3EFF0900095E493FE7401DA
:1022750093FBAA06E4F9F8AF32AE31AD30AC2F12BC
:102285001193900092EEF0A3EFF090008E122DC204
:10229500900062EFF090008E12000E900063EFF058
:1022A500900090122DC2900072EFF09000901200F5
:1022B5000E900073EFF0900092122DC2900078EF0F
:0C22C500F090009212000E900079EFF0F3
:0122D10022EA
:101F69007F017E00122E6AE4FD7F01FE122E26E417
:101F7900FD7F02FE122E26E4FD7F03FE122E26E4CB
:101F8900FD7F04FE122E267F017E02122E6A7D0538
:101F99007F017E02122E269000707405F0E49000F5
:101FA90032F07F017E06122E6AE4FD7F017E061261
:101FB9002E26E4900071F0900062F0900063F0909A
:101FC9000033F0900034F0900035F090005AF09012
:101FD9000072F0900073F0900076F0900077F09026
:101FE9000078F0900079F090007AF090007BF09002
:101FF9000064F0900065F07F017E1C122E6AE4FDFA
:102009007F017E1C122E26E4FD7F027E1C122E26E5
:10201900E4FD7F037E1C122E26E4FD7F047E1C1244
:102029002E267F017E20122E6AE4FD7F017E20127A
:102039002E26E4FD7F027E20122E26E4FD7F037EFC
:0D20490020122E26E4FD7F047E20022E26AC
:10264400E4900032F07F017E02122E6A900070E066
:10265400FD7F017E02122E267F017E06122E6A90D5
:102664000071E0FD7F017E06122E26900072E0FFCD
:10267400900073E0FD122D3C900095E493FC7401EE
:1026840093FD121126E48F408E3FF53EF53DAD3E9D
:10269400AC3D122E808F47AF40AE3FAD3EAC3D12F5
:1026A4002E958F21AF40AE3FAD3EAC3D122EAA8F8A
:1026B40022AF40AE3FAD3EAC3D122DF58F487F01B9
:1026C4007E1C122E6AAD477F017E1C122E26AD2180
:1026D4007F027E1C122E26AD227F037E1C122E2624
:0926E400AD487F047E1C022E2685
:102CEA00434C4F534544006E3231393065373033E7
:102CFA00332E696F6B2E6C610031393536350050D1
:042D0A0044503A00F7
:100C2B00E4F553F554FFFE122DDC7F017E02122EEC
:100C3B006A7D057F017E02122E26538EEF53D1F76C
:100C4B00E54A64014549700D122056E4F549F54A11
:100C5B00F54B754C017F017E06122E0EEF3395E09E
:100C6B00FEEF64064E7018900032E06409700302C8
:100C7B000D03900032E064CC6003020F34800890C7
:100C8B000032E064CC7012900070E0FD900071E0D7
:100C9B00FB7FCC1212F6020F34900032E06401702D
:100CAB0024FFFE122DDC9000717404F07F017E0690
:100CBB00122E6A7D047F017E06122E267B047D0593
:100CCB007F11020F2C900032E064027023FFFE12A2
:100CDB002DDC9000717401F0FF7E06122E6A7D01EF
:100CEB007F017E06122E267B017D057F22020F2CB3
:100CFB00900032E06409701EFFFE122DDC122644B8
:100D0B00900070E0FD900071E0FB7F991212F6905D
:100D1B0000327408F022900032E0640A701AFFFE71
:100D2B00122DDC121F69900070E0FDE4FB7FAA120C
:100D3B0012F6E4900032F022900032E0640D702342
:100D4B007F017E02122E0E900070EFF07F017E0667
:100D5B00122E0E900071EFF0FB900070E0FD7FDD26
:100D6B00020F2C900032E0640F7056FFFE122DDC48
:100D7B00E52464014523701D900071740CF07F0114
:100D8B007E06122E6A7D0C7F017E06122E26E4F55E
:100D9B0023F5248020E5244523701A90007104F07C
:100DAB00FF7E06122E6A7D017F017E06122E2675AE
:100DBB002300752401900071E0FB7D057FFF020F7E
:100DCB002C900032E064816003020F1E90007104CE
:100DDB00F0FF7E06122E6A7D017F017E06122E2603
:100DEB001229118F408E3F8D3E8C3D7F017E00126C
:100DFB002DDCE4F528F527F526F5257B017D057F10
:100E0B00911212F6E4F53BF53CF52DF52E807E9014
:100E1B000032E064827010FFFE122DDC7B017D0539
:100E2B007F921212F6806CE4FFFEFDFCAB40AA3FF2
:100E3B00A93EA83DD312123B5015E4FFFE122DDC48
:100E4B00755300755401E4F540F53FF53EF53DE56E
:100E5B00426401454170B8F541F542FFFEFDFCAB24
:100E6B0028AA27A926A825C312123B60097B017D5E
:100E7B00057F061212F6E4F528F527F526F525E58C
:100E8B0054640145537006F553F554800643D1085D
:100E9B00020E1A538EEF43D108AF32AE31AD30ACE8
:100EAB002F122E808F45AF32AE31AD30AC2F122EBC
:100EBB00958F51AF32AE31AD30AC2F122EAA8F526F
:100ECB00AF32AE31AD30AC2F122DF58F467F017E98
:100EDB0020122E6AAD457F017E1C122E26AD517F4E
:100EEB00027E1C122E26AD527F037E1C122E26ADC7
:100EFB00467F047E1C122E26E4F528F527F526F5F1
:100F0B0025F540F53FF53EF53D900062F09000630E
:100F1B00F08012900032E06482700E7B017D057FC1
:100F2B00921212F6E4900032F0756E00756F007538
:100F3B0070007BFF7A2C79EA122445EF64014E6036
:100F4B004D755F007560007561007BFF7A2C79EA47
:100F5B001224F5EF64014E70028033756E00756FCD
:100F6B00007570007BFF7A2D7909122445EF64011F
:100F7B004E601B755F007560007561007BFF7A2DFD
:100F8B0079091224F5EF64014E6003020C4B120039
:100F9B0026755FFF75602D7561037BFF7A2C79F1E8
:100FAB00121D4C7F017E02122E0E7F017E06122E29
:100FBB000E900070E0FD900071E0FBE4FF1212F662
:100FCB00754B00754C019000327408F07B017A0070
:0E0FDB007900122F747B017A007936122F7480
:010FE90022E5
:101E620041540A004F4B0041542B4350494E3F0D01
:101E72000A002B4350494E3A0041542B43524547E6
:101E82003F0D0A002B435245473A0041542B434928
:101E9200505153454E443D300D0A0041542B4349A5
:101EA2005053544152543D00544350000D0A0043D4
:101EB2004F4E4E454354204F4B00414C52454144F6
:101EC2005920434F4E4E45435400434F4E4E4543D7
:101ED20054204641494C0041542B434950534855E4
:101EE200540D0A0053485554204F4B0041542B4384
:101EF200495053454E443D33360D0A003E0045528B
:101F0200524F52006E3231393065373033332E69D9
:101F12006F6B2E6C610031393536350041542B43DD
:101F2200495053454E443D340D0A0041542B43530E
:101F3200510D0A002B4353513A200041542B49437F
:101F42004349440D0A002B49434349443A200000C7
:101F5200000000000000000000000000000000007F
:071F62000000000000000078
:0F243600756E00756F007570007BFF7A1E7966FA
:102445008B6B8A6C896DAC02AD01ED4C700AE57041
:10245500456F7004FE7F0122ED4C6044E570456FC9
:10246500603E856B74856C75856D767B017A007928
:102475000012281BEA494B601D856E74856F7585B2
:1024850070767B017A00790012281BEA494B6006B9
:102495007E007F0180047E007F00EF4E603F803824
:1024A500E56D456C601B856B74856C75856D767BFC
:1024B500017A00790012281BE94A4B6002801980D5
:1024C5001C856E74856F758570767B017A00790041
:1024D50012281BE94A4B60057E007F0122E4FEFFBE
:0124E50022D4
:0F24E600755F007560007561007BFF7A1F7900DC
:1024F5008B5C8A5D895EAC02AD01ED4C700AE561CD
:1025050045607004FE7F0122ED4C6044E561456045
:10251500603E855C74855D75855E767B017A0079A4
:102525003612281BEA494B601D855F7485607585E9
:1025350061767B017A00793612281BEA494B6006E1
:102545007E007F0180047E007F00EF4E603F803873
:10255500E55E455D601B855C74855D75855E767B96
:10256500017A00793612281BE94A4B6002801980EE
:102575001C855F748560758561767B017A00793687
:1025850012281BE94A4B60057E007F0122E4FEFF0D
:012595002223
:102E3E00122D71C2B57F017E00122D8C7FC87E00CF
:062E4E00122E54D2B52241
:102385008007122436EF4E70317B017A00790012F6
:102395002F747BFF7A1E7962122CA17FF47E0112C5
:1023A5002E5480DE756EFF756F1E7570667BFF7A25
:1023B5001E7974122445EF4E70317B017A00790045
:1023C500122F747BFF7A1E7969122CA17FF47E018E
:1023D500122E5480CF756E00756F007570007BFFEF
:1023E5007A1E7986122445EF4E70227B017A007998
:1023F50000122F747BFF7A1E797B122CA17FF47E4D
:1024050001122E5480CF122436EF4E701B7B017AB9
:10241500007900122F747BFF7A1E798D122CA17F13
:10242500F47E01122E5480DE7B017A007900022FA2
:012435007432
:0F1D3D00755FFF75601F7561187BFF7A1F790650
:101D4C008B5C8A5D895E7BFF7A1E799D122CA17F4C
:101D5C00221200037BFF7A1E79AA122CA17F221279
:101D6C0000037F2C1200037F22120003AB5CAA5DE0
:101D7C00A95E122CA17F221200037F2C1200037F7C
:101D8C0022120003AB5FAA60A961122CA17F221260
:101D9C0000037BFF7A1E79AE122CA17F887E131272
:101DAC002E54756E00756F007570007BFF7A1E796E
:101DBC00B1122445EF64014E70028018756E0075E7
:101DCC006F007570007BFF7A1E79BC122445EF649E
:101DDC00014E70097B017A007900022F74756E0038
:101DEC00756F007570007BFF7A1E79CC122445EF5D
:101DFC0064014E70AD7B017A007900122F747BFF69
:101E0C007A1E799D122CA17F221200037BFF7A1E71
:101E1C0079AA122CA17F221200037F2C1200037FBF
:101E2C0022120003AB5CAA5DA95E122CA17F2212C8
:101E3C0000037F2C1200037F22120003AB5FAA6009
:101E4C00A961122CA17F221200037BFF7A1E79AEAE
:061E5C00122CA1021DAED4
:100026008016756E00756F007570007BFF7A1E79FD
:10003600E6122445EF4E701B7B017A007936122FAB
:10004600747BFF7A1E79D9122CA17F887E13122E1B
:0C0056005480CF7B017A007936022F74B1
:0C12EA00900070E0FD900071E0FBE4FF5C
:0612F6008F578D588B5943
:1012FC00E4F55AF55B7B017A007900122F74E4F562
:10130C004BF54C122A677BFF7A1E79EE122CA175D5
:10131C006E00756F007570007BFF7A1E79FE1224CB
:10132C0045EF64014E604D756E00756F0075700071
:10133C007BFF7A1F7900122445EF64014E6009127D
:10134C0024E6EF64014E70C7120026121D3D7F018A
:10135C007E02122E0E7F017E06122E0E1212EA7BD8
:10136C00017A007900122F747B017A007936122FE2
:10137C007402131B7B017A007900122F747B017AA3
:10138C00007936122F747F017E00122E0E90005EB3
:10139C00EFF07F027E00122E0E90005FEFF07F03C5
:1013AC007E00122E0E900060EFF07F047E00122E55
:1013BC000E900061EFF0900032E557F0900070E570
:1013CC0058F0900071E559F01222157F017E1A1227
:1013DC002E0E900066EFF07F027E1A122E0E9000F9
:1013EC0068EFF07F037E1A122E0E900067EFF07FED
:1013FC00047E1A122E0E90006AEFF07F057E1A12F0
:10140C002E0E900069EFF07F067E1A122E0E9000C1
:10141C006CEFF07F077E1A122E0E90006BEFF07FB0
:10142C00087E1A122E0E90006EEFF07F097E1A12B3
:10143C002E0E90006DEFF07F0A7E1A122E0E900089
:10144C006FEFF0755F0175600075618C7B017A0040
:10145C00798A121BEB90008AA3E090005CF090005C
:10146C008CA3E090005DF090005EE0FF1200039012
:10147C00005FE0FF120003900060E0FF1200039099
:10148C000061E0FF120003900070E0FF1200039077
:10149C000032E0FF120003900071E0FF1200039095
:1014AC000062E0FF120003900063E0FF1200039063
:1014BC000033E0FF120003900034E0FF12000390B1
:1014CC000035E0FF12000390005AE0FF1200039079
:1014DC000072E0FF120003900073E0FF1200039013
:1014EC000076E0FF120003900077E0FF12000390FB
:1014FC000078E0FF120003900079E0FF12000390E7
:10150C00007AE0FF12000390007BE0FF12000390D2
:10151C000064E0FF120003900065E0FF12000390EE
:10152C00005BE0FF120003900066E0FF12000390E6
:10153C000068E0FF120003900067E0FF12000390C8
:10154C00006AE0FF120003900069E0FF12000390B4
:10155C00006CE0FF12000390006BE0FF12000390A0
:10156C00006EE0FF12000390006DE0FF120003908C
:10157C00006FE0FF12000390005CE0FF120003908C
:10158C00005DE0FF120003E4900032F0122436EF0D
:0A159C0064014E70F7F54B754C0129
:0115A6002222
:10205600E4F555F5567B017A007900122F74E4F504
:102066004BF54C7F01FE122E0E90005EEFF07F02C4
:102076007E00122E0E90005FEFF07F037E00122E80
:102086000E900060EFF07F047E00122E0E9000612D
:10209600EFF07BFF7A1F791E122CA1756E00756F0B
:1020A600007570007BFF7A1E79FE122445EF6401ED
:1020B6004E6052756E00756F007570007BFF7A1F5B
:1020C6007900122445EF64014E60091224E6EF649C
:1020D600014E70C7120026121D3D7F017E02122E90
:1020E6000E7F017E06122E0E1212EAE4900032F0E6
:1020F6007B017A007900122F747B017A00793612FF
:102106002F740220A17B017A007900122F749000AF
:102116005EE0FF12000390005FE0FF1200039000F4
:1021260060E0FF120003900061E0FF12000312243A
:0C21360036EF64014E70F7F54B754C015C
:01214200227A
:102A67008016756E00756F007570007BFF7A1F7991
:102A770036122445EF4E701B7B017A007900122F26
:102A8700747BFF7A1F792D122CA17FF47E01122E01
:102A97005480CF7B017A0079007D20122D558B6EF3
:102AA7008A6F89707B007A00795C75710075720393
:102AB700122C0412259690005BEFF07F017E18120E
:0E2AC7002E6A90005BE0FD7F017E18022E2635
:1018410078537C007D007BFF7A1F79517E007F15E4
:101851001210BA78687C007D007BFF7A1F79667E62
:10186100007F031210BA8016756E00756F007570D7
:10187100007BFF7A1F7948122445EF4E701B7B01D4
:101881007A007900122F747BFF7A1F793D122CA107
:101891007FF47E01122E5480CF7B017A0079007D86
:1018A10020122D55E92401F9E43A8B6EF56F897008
:1018B1007B007A007953757100757214122C0475CE
:1018C1006E00756F007570537571007572027B0043
:1018D1007A007968122C047B007A0079681221431E
:1018E100900066EFF07F017E1A122E6A900066E08A
:1018F100FD7F017E1A122E26756E00756F007570C0
:10190100557571007572027B007A007968122C049A
:101911007B007A007968122143900068EFF0FD7F27
:10192100027E1A122E26756E00756F00757057753E
:1019310071007572027B007A007968122C047B00B9
:101941007A007968122143900067EFF0FD7F037EF2
:101951001A122E26756E00756F007570597571001B
:101961007572027B007A007968122C047B007A0080
:10197100796812214390006AEFF0FD7F047E1A120C
:101981002E26756E00756F0075705B75710075722E
:10199100027B007A007968122C047B007A00796856
:1019A100122143900069EFF0FD7F057E1A122E2669
:1019B100756E00756F0075705D7571007572027BD3
:1019C100007A007968122C047B007A007968122170
:1019D1004390006CEFF0FD7F067E1A122E26756E85
:1019E10000756F0075705F7571007572027B007A0A
:1019F100007968122C047B007A00796812214390E7
:101A0100006BEFF0FD7F077E1A122E26756E0075B2
:101A11006F007570617571007572027B007A0079D3
:101A210068122C047B007A00796812214390006EC1
:101A3100EFF0FD7F087E1A122E26756E00756F007D
:101A41007570637571007572027B007A0079681296
:101A51002C047B007A00796812214390006DEFF02D
:101A6100FD7F097E1A122E26756E00756F00757046
:101A7100657571007572027B007A007968122C0419
:101A81007B007A00796812214390006FEFF0FD7FAF
:061A91000A7E1A022E2657
:102D7100759850758E40538EFEE4F589758BCC7530
:0B2D81008DFFC2ABD28ED2AFD2AC22CD
:080003008F993099FDC299228A
:102CA1008B6B8A6C896DAB6BAA6CA96D1210E0609D
:102CB10013056DE56D7002056C14F91210E0FF1239
:052CC100000380E22287
:102AD5007E007F00E490007CF0A3F0A3F08F828E4F
:102AE50083E599F0E490007DF0A3F0C29890007C16
:102AF500E0FD3395E0FCC3ED9432EC6480948050A6
:102B050032E004F00FBF00010E2098D1C2C890003A
:102B15007EE004F0700690007DE004F0D390007E26
:102B2500E094C890007DE06480948040DCD2C8E4E5
:092B3500FEFF22D2C87E007F01E0
:012B3E002274
:102B3F007E007F36E490007CF0A3F0A3F08F828EAE
:102B4F0083E599F0E490007DF0A3F0C29890007CAB
:102B5F00E0FD3395E0FCC3ED9423EC64809480504A
:102B6F0032E004F00FBF00010E2098D1C2C99000CF
:102B7F007EE004F0700690007DE004F0D390007EBC
:102B8F00E094C890007DE06480948040DCD2C9E47A
:092B9F00FEFF22D2C97E007F0175
:012BA800220A
:1015A700900036E090005EF0900037E090005FF02A
:1015B700900038E0900060F0900039E0900061F012
:1015C70090003AE0900070F090003BE0900032F01D
:1015D70090003CE0900071F090003DE0900062F0D8
:1015E70090003EE0900063F090003FE0900033F001
:1015F700900040E0900034F0900041E0900035F01A
:10160700900042E090005AF0900043E0900072F0A2
:10161700900044E0900073F0900045E0900076F071
:10162700900046E0900077F0900047E0900078F057
:10163700900048E0900079F0900049E090007AF03F
:1016470090004AE090007BF090004BE0900064F03F
:1016570090004CE0900065F090004DE090005BF04A
:1016670090004EE0900066F090004FE0900068F028
:10167700900050E0900067F0900051E090006AF011
:10168700900052E0900069F0900053E090006CF0F9
:10169700900054E090006BF0900055E090006EF0E1
:1016A700900056E090006DF0900057E090006FF0CA
:1016B700900058E090005CF0900059E090005DF0D9
:1016C7007B017A007936122F7490005FE0FF90005B
:1016D7005EE02FFFE433FE900060E07C002FFFEC1C
:1016E7003EFE900061E02FFFEC3EFE900070E02F81
:1016F700FFEC3EFE900032E02FFFEC3EFE900071C3
:10170700E02FFFEC3EFE900062E02FFFEC3EFE90E4
:101717000063E02FFFEC3EFE900033E02FFFEC3E2E
:10172700FE900034E02FFFEC3EFE900035E02FFFE7
:10173700EC3EFE90005AE02FFFEC3EFE900072E078
:101747002FFFEC3EFE900073E02FFFEC3EFE900073
:1017570076E02FFFEC3EFE900077E02FFFEC3EFE99
:10176700900078E02FFFEC3EFE900079E02FFFEC31
:101777003EFE90007AE02FFFEC3EFE90007BE02FCC
:10178700FFEC3EFE900064E02FFFEC3EFE9000650C
:10179700E02FFFEC3EFE90005BE02FFFEC3EFE905B
:1017A7000066E02FFFEC3EFE900068E02FFFEC3E66
:1017B700FE900067E02FFFEC3EFE90006AE02FFFEF
:1017C700EC3EFE900069E02FFFEC3EFE90006CE0DF
:1017D7002FFFEC3EFE90006BE02FFFEC3EFE9000EB
:1017E7006EE02FFFEC3EFE90006DE02FFFEC3EFE1B
:1017F70090006FE02FFFEC3E90007CF0A3EFF0FD30
:1018070090007CE0FF3395E090007EF0FAA3EFF0C4
:10181700FBAF05A3E4F0A3EFF090005CE06B700171
:10182700EA601690005DE0FF900080E07003A3E09F
:091837006F600690003274CCF0E1
:011840002285
:092F74007E007F247D0002129C06
:0300230002006672
:10006600C0E0C0F0C083C082C0D075D008E54C6443
:1000760001454B700C122B3FEF4E60081215A780FE
:0F00860003122AD5D0D0D082D083D0F0D0E03270
:102D8C00EF1FAC0670011E4C601000007D7A7CC1F8
:0A2D9C007B80DBFEDCFCDDFA80E644
:012DA600220A
:102E5400EF1FAC0670011E4C600B007D207C28DC4B
:052E6400FEDDFC80EB27
:012E69002246
:072F7D00E4F5957596302282
:0E2F4B00C2A4D2A57F147E00122E54C2A5226D
:0E2F5900D2A4C2A57F147E00122E54C2A42260
:102F1D00758904758AFF758CFFD28CD2A9D2AF2228
:102EE700438E0475D74075D6A2538EEF43AF04D2F5
:022EF700AF2208
:102EF90043D10275D54075D4A253D1F743AF20D23F
:022F0900AF22F5
:102F0B0043D12075D34075D2A243D18043AF40D279
:022F1B00AF22E3
:03000B00022C566E
:102C5600C0E0C0D0E5282401F528E43527F527E4AF
:102C66003526F526E43525F525E54024FFF540E52E
:102C76003F34FFF53FE53E34FFF53EE53D34FFF5D5
:102C86003DE5322401F532E43531F531E43530F5F0
:0B2C960030E4352FF52FD0D0D0E03215
:03006300022985EA
:10298500C0E0C0F0C083C082C0D075D008E52C453A
:102995002B700685272985282A052CE52C7002052C
:1029A5002BB4D042E52BB4073D752B00752C00AE3A
:1029B50029AF2AAB0FAA0EEA3395E0F9F8C3E5284B
:1029C5009BFFE5279AFEE52699FDE52598FCE47B26
:1029D50005FAF9F8D312123B500C7537007538011A
:1029E500538EEF43D10853EFFED0D0D082D083D0A1
:0429F500F0D0E0320C
:03009B000222D26C
:1022D200C0E0C0F0C083C082C0D075D008E53C45E4
:1022E2003B700685273985283A053CE53C70020596
:1022F2003BE52EB4B82FE52DB40B2A753B00753C97
:1023020000752D00752E0075410075420153D1F7FD
:102312007F017E02122E0EEF3395E0FEEF64014E36
:102322007003438E10E53C6464453B7048F53BF511
:102332003CAE39AF3AAB0FAA0EEA3395E0F9F8C3D7
:10234200E5289BFFE5279AFEE52699FDE52598FC01
:10235200E47B05FAF9F8C312123B400D7464252E92
:10236200F52EE4352DF52D8006752D00752E008590
:10237200273985283A53EFFDD0D0D082D083D0F0D0
:03238200D0E03276
:0300A300022BA984
:102BA900C0E0C0F0C083C082C0D075D008E4FAF993
:102BB900F8E5362401F536EA3535F535E93534F5E4
:102BC90034E83533F5337F407E7E7D057C00AB36B6
:102BD900AA35A934F8C31212257012F54D754E01A4
:102BE900F549754A01F536F535F534F53353EFFBFB
:0B2BF900D0D0D082D083D0F0D0E032EA
:0D2F6700E4F5C7F5C5F5C675C380F5C422B5
:102E0E0075C78175C5018FC4EEFF8FC375C65A7520
:082E1E00C6A500AFC2022F6738
:102E260075C78175C5028FC4EEFF8FC38DC275C687
:082E36005A75C6A500022F67C2
:102E6A0075C78175C5038FC4EEFF8FC375C65A75C2
:062E7A00C6A500022F674F
:0300000002278F45
:0C278F00787FE4F6D8FD75817C0227D627
:102D0E006E3231393065373033332E696F6B2E6C3E
:102D1E006100313935363500434C4F534544005030
:042D2E0044503A00D3
:10071700C2C9122E3E7F057E00122D8CD2C9122F20
:100727007D122F1D122EE7122EF9122F0B7F017E3D
:100737001E122E0EEF3395E0F54F8F504550701E69
:100747000550E5507002054F7F017E1E122E6AADDF
:10075700507F017E1E122E26121F690207FB0550CD
:10076700E5507002054F7F017E1E122E6AAD507F45
:10077700017E1E122E267F017E02122E0E90007021
:10078700EFF07F017E06122E0E900071EFF07F01D1
:100797007E1C122E0E8F477F027E1C122E0E8F217B
:1007A7007F037E1C122E0E8F227F047E1C122E0EBC
:1007B7008F48AF477E00AD217C00AB227A00E54829
:1007C700755900F55A1226ED8F408E3F8D3E8C3DB0
:1007D7007F017E20122E0E8F457F027E20122E0E65
:1007E7008F517F037E20122E0E8F527F047E2012A0
:1007F7002E0E8F46C2C87FF47E01122E54D2C81225
:100807002385121841120026755FFF75602D7561EB
:10081700207BFF7A2D790E121D4C7F017E00122E50
:100827000E90005EEFF07F027E00122E0E90005FAA
:10083700EFF07F037E00122E0E900060EFF07F0432
:100847007E00122E0E900061EFF090005EE06003D4
:10085700020A2890005FE06003020A28900060E027
:100867006003020A28900061E06003020A289000F2
:10087700717406F07F01FE122E6A7D067F017E06E7
:10088700122E26020A16900032E0640470667F0179
:100897007E02122E0E900070EFF07F017E06122E60
:1008A7000E900071EFF07F017E00122E6A90005EBD
:1008B700E0FD7F017E00122E2690005FE0FD7F02A3
:1008C7007E00122E26900060E0FD7F037E00122E30
:1008D70026900061E0FD7F047E00122E26900070B6
:1008E700E0FD900071E0FB7F441212F6E4900032C5
:1008F700F0020AF3756E00756F007570007BFF7A62
:100907002D7926122445EF64014E6018755F007536
:1009170060007561007BFF7A2D79261224F5EF645C
:10092700014E7056120026755FFF75602D756120A8
:100937007BFF7A2D790E121D4C9000717406F07FA3
:1009470001FE122E6A7D067F017E06122E2690007A
:1009570070E0FD900071E0FB7F041212F6754B000A
:10096700754C01E4900032F07B017A007900122F78
:10097700747B017A007936122F74756E00756F00DB
:100987007570007BFF7A2D792D122445EF64014E97
:100997006018755F007560007561007BFF7A2D79BF
:1009A7002D1224F5EF64014E7056120026755FFF75
:1009B70075602D7561207BFF7A2D790E121D4C9085
:1009C70000717406F07F01FE122E6A7D067F017E9C
:1009D70006122E26900070E0FD900071E0FB7F0468
:1009E7001212F6754B00754C01E4900032F07B0152
:1009F7007A007900122F747B017A007936122F74EE
:100A0700E54E6401454D600302088DF54DF54E90A6
:100A17000070E0FD900071E0FB7F041212F60208FF
:100A27008D900032E064086012900070E0FD900045
:100A370071E0FBE4FF1212F6020AF3756E00756FA0
:100A4700007570007BFF7A2D7926122445EF64012B
:100A57004E6018755F007560007561007BFF7A2D29
:100A670079261224F5EF64014E704F120026755F48
:100A7700FF75602D7561207BFF7A2D790E121D4C55
:100A87007F017E02122E0E7F017E06122E0E90002F
:100A970070E0FD900071E0FBE4FF1212F6754B0069
:100AA700754C01E4900032F07B017A007900122F37
:100AB700747B017A007936122F74756E00756F009A
:100AC7007570007BFF7A2D792D122445EF64014E56
:100AD700607B755F007560007561007BFF7A2D791B
:100AE7002D1224F5EF64014E70028061E49000320C
:100AF700F07F017E02122E0EEF3395E0FEEF6405C4
:100B07004E7005120C2B80157F017E02122E0EEF00
:100B17003395E0FEEF64014E70031200A6756E0078
:100B2700756F007570007BFF7A2D7926122445EFCB
:100B370064014E6018755F007560007561007BFF8A
:100B47007A2D79261224F5EF64014E705212002691
:100B5700755FFF75602D7561207BFF7A2D790E1209
:100B67001D4C7F017E02122E0E7F017E06122E0E75
:100B7700900070E0FD900071E0FBE4FF1212F67543
:100B87004B00754C01E4900032F07B017A0079004C
:100B9700122F747B017A007936122F74020AF375CB
:100BA7006E00756F007570007BFF7A2D792D12240A
:100BB70045EF64014E601B755F007560007561004D
:100BC7007BFF7A2D792D1224F5EF64014E60030225
:100BD7000821120026755FFF75602D7561207BFF68
:100BE7007A2D790E121D4C7F017E02122E0E7F0187
:100BF7007E06122E0E900070E0FD900071E0FBE47F
:100C0700FF1212F6754B00754C01E4900032F07B31
:100C1700017A007900122F747B017A007936122F3E
:040C270074020AF356
:040095000564000EF0
:101A970041005E0041005F004100600041006100BD
:101AA70041007005410032004100710041006200B1
:101AB700410063004100330041003400410035001C
:101AC70041005A0041007200410073004100760056
:101AD70041007700410078004100790041007A0019
:101AE70041007B00410064004100650041005B004C
:101AF70041006600410068004100670041006A003C
:101B07004100690041006C0041006B0041006E001C
:101B170041006D0041006F0041005C0041005D0025
:101B2700023700000241000002490000024D000098
:101B3700420074000060240036000000000000002E
:101B4700000000000000000000000000000000008E
:101B570000000000000000000000000000603200EC
:101B6700000000000000000000000000000000006E
:101B7700000000000000000000000000000000005E
:101B8700000000000000000000000000000000004E
:101B9700000000043D000000000147000121000192
:101BA7002200014800042500000000042F00000067
:101BB70000014500015100015200014600022300C7
:101BC70001043300000000022B0000023B0000026A
:101BD7002D00000229000002390000024F00000218
:031BE7004B0000B0
:10279B00020717E493A3F8E493A34003F68001F236
:1027AB0008DFF48029E493A3F85407240CC8C3333F
:1027BB00C4540F4420C8834004F456800146F6DF0E
:1027CB00E4800B0102040810204080901A97E47EED
:1027DB00019360BCA3FF543F30E509541FFEE49303
:1027EB00A360010ECF54C025E060A840B8E493A3CA
:1027FB00FAE493A3F8E493A3C8C582C8CAC583CAF5
:10280B00F0A3C8C582C8CAC583CADFE9DEE780BEAC
:011BEA0000FA
:100FEA00E709F608DFFA8046E709F208DFFA803EE9
:100FFA0088828C83E709F0A3DFFA8032E309F608D6
:10100A00DFFA8078E309F208DFFA807088828C833D
:10101A00E309F0A3DFFA806489828A83E0A3F608F1
:10102A00DFFA805889828A83E0A3F208DFFA804CCB
:10103A0080D280FA80C680D4806980F280338010A2
:10104A0080A680EA809A80A880DA80E280CA80330B
:10105A0089828A83ECFAE493A3C8C582C8CCC58383
:10106A00CCF0A3C8C582C8CCC583CCDFE9DEE78053
:10107A000D89828A83E493A3F608DFF9ECFAA9F0D2
:10108A00EDFB2289828A83ECFAE0A3C8C582C8CC28
:10109A00C583CCF0A3C8C582C8CCC583CCDFEADE41
:1010AA00E880DB89828A83E493A3F208DFF980CCA3
:1010BA0088F0EF60010E4E60C388F0ED2402B4049C
:1010CA000050B9F582EB2402B4040050AF23234543
:0610DA00822390103A731E
:1010E000BB010689828A83E0225002E722BBFE020E
:0910F000E32289828A83E4932241
:1010F900BB010CE58229F582E5833AF583E02250AC
:1011090006E92582F8E622BBFE06E92582F8E222F5
:0D111900E58229F582E5833AF583E493220F
:10112600EF8DF0A4A8F0CF8CF0A428CE8DF0A42EDD
:02113600FE2297
:10113800BB010A89828A83F0E5F0A3F0225006F702
:0F11480009A7F01922BBFE06F3E5F009F31922FF
:1011570075F008758200EF2FFFEE33FECD33CDCC4F
:1011670033CCC58233C5829BED9AEC99E5829840D2
:101177000CF582EE9BFEED9AFDEC99FC0FD5F0D6AF
:10118700E4CEFBE4CDFAE4CCF9A88222B800C1B9D9
:101197000059BA002DEC8BF084CFCECDFCE5F0CB17
:1011A700F97818EF2FFFEE33FEED33FDEC33FCEB50
:1011B70033FB10D703994004EB99FB0FD8E5E4F90B
:1011C700FA227818EF2FFFEE33FEED33FDEC33FCF8
:1011D700C933C910D7059BE99A4007EC9BFCE99AEC
:1011E700F90FD8E0E4C9FAE4CCFB2275F010EF2F31
:1011F700FFEE33FEED33FDCC33CCC833C810D70731
:101207009BEC9AE899400AED9BFDEC9AFCE899F86B
:0E1217000FD5F0DAE4CDFBE4CCFAE4C8F922FE
:10122500EB9FF5F0EA9E42F0E99D42F0EC6480C840
:0612350064809845F022E0
:10123B00EB9FF5F0EA9E42F0E99D42F0E89C45F009
:01124B002280
:10124C00E8600FECC313FCED13FDEE13FEEF13FF80
:03125C00D8F122A4
:0C125F00ECF0A3EDF0A3EEF0A3EFF02202
:10126B00A8828583F0D083D082121282121282124E
:10127B001282121282E473E493A3C583C5F0C58373
:10128B00C8C582C8F0A3C583C5F0C583C8C582C8CD
:01129B002230
:102DA700EFC394414005EF945B400BEFC394614040
:0B2DB70008EF947B5003D38001C3227F
:0F2F2D00EFC394304007EF943A50028001C32263
:0F2F3C00EFC394414007EF945B50028001C32222
:102C04008B6B8A6C896DE4F573F574E5721572AE9D
:102C140071700215714E6033AB6EAA6FA9701210F9
:102C2400E0FFAB6BAA6CA96D0574E574AC7370021C
:102C3400057314F5828C83EF1212C8EF60CD740112
:102C44002570F570E4356FF56F80C0AB6BAA6CA985
:022C54006D22EF
:102EBF00E4FFFE1210E0600C0FEF70010E09E970D5
:052ECF00F20A80EF2271
:102D5500E94A4B7001221210E0FF6D700122EF70FD
:0C2D650004FBFAF92209E970ED0A80EA8B
:10281B008B718A728973AB74AA75A9761210E060FA
:10282B0063AB71AA72A9731210E0605F8574778530
:10283B0075788576798B7A8A7B897CAB77AA78A930
:10284B00791210E0FF6023AB7AAA7BA97C1210E00F
:10285B006F7017042579F579E43578F578740125CF
:10286B007CF57CE4357BF57B80D1AB77AA78A979B5
:10287B001210E07002800D74012573F573E435724C
:10288B00F572809DAB71AA72A973227B007A0079D5
:02289B00002219
:102596008B5F8A608961AB5FAA60A9611210E0FF58
:1025A600122ED4500D74012561F561E43560F56095
:1025B60080E4D200AB5FAA60A9611210E0FF642B31
:1025C6006004EFB42D1BAB5F0561E561AA60700284
:1025D600056014F91210E0642D6003D38001C392E4
:1025E60000E4F562F563AB5FAA60A9611210E0FF33
:1025F600122F2D5036AB5FAA60A9611210E0FF338F
:1026060095E0FEEF24D0FBEE34FFFAAE62AF637CBA
:10261600007D0A121126EF2BF563EE3AF56274017E
:102626002561F561E43560F56080BB300006AE6279
:0E263600AF638009C3E49563FFE49562FE2262
:10129C00EF4E6012EF60010EEDBB010B89828A8369
:1012AC00F0A3DFFCDEFA2289F05007F709DFFCA976
:0C12BC00F022BBFEFCF309DFFCA9F022CD
:1012C800F8BB010DE58229F582E5833AF583E8F05C
:1012D800225006E92582C8F622BBFE05E92582C808
:0212E800F222F0
:102ED400EFC394094005EF940E4003BF2003D38051
:032EE40001C32205
:00000001FF
