:102CB300434C4F534544006E32313930653730331E
:102CC300332E696F6B2E6C61003139353635005008
:042CD30044503A002F
:1000A600438E107F017E02122E577D017F017E0254
:1000B600122E13E4F541F542F537F538E54A6401A9
:1000C6004549700D122043E4F549F54AF54B754C48
:1000D600017F017E06122DFBEF3395E0FEEF6406ED
:1000E6004E7028900032E06409700302038E90007F
:1000F60032E064CC600302067E900070E0FD900062
:1001060071E0FB7FCC1212F602067E900032E064AC
:10011600CC7012900070E0FD900071E0FB7FCC1275
:1001260012F6020491900032E064017024FFFE1280
:100136002DC99000717404F07F017E06122E577D42
:10014600047F017E06122E137B047D017F110203BC
:1001560056900032E0640260030201EEFFFEFDFCF1
:10016600AB40AA3FA93EA83DD312123B40177F01E0
:100176007E00122DC99000717401F0FF7E06122ECA
:10018600577D018050E4FFFEFDFCAB40AA3FA93E2F
:10019600A83DC312123B7015FFFE122DC9900071C7
:1001A6007401F0FF7E06122E577D028028E4FFFEC2
:1001B600FDFCAB40AA3FA93EA83DC312123B501C12
:1001C600E4FFFE122DC99000717402F07F017E06D5
:1001D600122E577D027F017E06122E13900071E0CB
:1001E600FB7D017F22020356900032E06405600326
:1001F60002032E12288A90008212125FAF40AE3F91
:10020600AD3EAC3D90008612125F900082E0FCA3EA
:10021600E0FDA3E0FEA3E0FFA3E0F8A3E0F9A3E07E
:10022600FAA3E02FF540EA3EF53FE93DF53EE83C0E
:10023600F53DAF40AE3FAD3EFC122E6D8F47AF4051
:10024600AE3FAD3EAC3D122E828F21AF40AE3FADEC
:100256003EAC3D122E978F22AF40AE3FAD3EAC3D39
:10026600122DE28F487F017E1C122E57AD477F016B
:100276007E1C122E13AD217F027E1C122E13AD2280
:100286007F037E1C122E13AD487F047E1C122E1394
:10029600E4FFFEFDFCAB40AA3FA93EA83DD31212E7
:1002A6003B40177F017E00122DC99000717401F04A
:1002B600FF7E06122E577D018050E4FFFEFDFCAB4B
:1002C60040AA3FA93EA83DC312123B7015FFFE127D
:1002D6002DC99000717401F0FF7E06122E577D0223
:1002E6008028E4FFFEFDFCAB40AA3FA93EA83DC323
:1002F60012123B501CE4FFFE122DC99000717402CD
:10030600F07F017E06122E577D027F017E06122E99
:1003160013900071E0FB7D017F551212F6E4900008
:1003260033F0900034F0802C900032E0640D702B96
:100336007F017E02122DFB900070EFF07F017E069A
:10034600122DFB900071EFF0FB900070E0FD7FDD59
:100356001212F6E4900032F0020491900032E0644A
:100366000A701DFFFE122DC9121F56900070E0FD87
:10037600900071E0FB7FAA1212F6E4900032F022A0
:10038600900032E06409701EFFFE122DC91226315C
:10039600900070E0FD900071E0FB7F991212F690DC
:1003A60000327408F022900032E0640F6003020409
:1003B60091E524640145237033FFFE122DC9900098
:1003C60071740CF07F017E06122E577D0C7F017E24
:1003D60006122E13900071E0FB7D017FFF1212F6CC
:1003E600E4900032F0F523F524020491E524452338
:1003F6006003020491FFFEFDFCAB40AA3FA93EA8A4
:100406003DD312123B40177F017E00122DC990008A
:10041600717401F0FF7E06122E577D018050E4FFB5
:10042600FEFDFCAB40AA3FA93EA83DC312123B709D
:1004360015FFFE122DC99000717401F0FF7E0612A1
:100446002E577D028028E4FFFEFDFCAB40AA3FA9A3
:100456003EA83DC312123B501CE4FFFE122DC9906C
:1004660000717402F07F017E06122E577D027F0115
:100476007E06122E13900071E0FB7D017FFF1212A3
:10048600F6E4900032F0F523752401E53864014561
:10049600376003020521FFFEFDFCAB40AA3FA93EE3
:1004A600A83DD312123B40177F017E00122DC99042
:1004B60000717401F0FF7E06122E577D018050E414
:1004C600FFFEFDFCAB40AA3FA93EA83DC312123B6E
:1004D6007015FFFE122DC99000717401F0FF7E06A3
:1004E600122E577D028028E4FFFEFDFCAB40AA3F9A
:1004F600A93EA83DC312123B501CE4FFFE122DC9B3
:100506009000717402F07F017E06122E577D027FE5
:10051600017E06122E13E4F537F538E542640145EF
:1005260041600302067EFFFEFDFCAB40AA3FA93EEA
:10053600A83DD312123B40177F017E00122DC990B1
:1005460000717401F0FF7E06122E577D018050E483
:10055600FFFEFDFCAB40AA3FA93EA83DC312123BDD
:100566007015FFFE122DC99000717401F0FF7E0612
:10057600122E577D028028E4FFFEFDFCAB40AA3F09
:10058600A93EA83DC312123B501CE4FFFE122DC922
:100596009000717402F07F017E06122E577D027F55
:1005A600017E06122E13AF40AE3FAD3EAC3D122E7D
:1005B6006D8F47AF40AE3FAD3EAC3D122E828F21D0
:1005C600AF40AE3FAD3EAC3D122E978F22AF40AE50
:1005D6003FAD3EAC3D122DE28F487F017E1C122EB0
:1005E60057AD477F017E1C122E13AD217F027E1C64
:1005F600122E13AD227F037E1C122E13AD487F04EC
:100606007E1C122E13AF32AE31AD30AC2F122E6DD2
:100616008F45AF32AE31AD30AC2F122E828F51AF37
:1006260032AE31AD30AC2F122E978F52AF32AE3183
:10063600AD30AC2F122DE28F467F017E20122E5751
:10064600AD457F017E1C122E13AD517F027E1C121A
:100656002E13AD527F037E1C122E13AD467F047EF1
:100666001C122E13900070E0FD900071E0FB7F06D7
:100676001212F6E4F541F542756E00756F0075705D
:10068600007BFF7A2C79B3122432EF64014E604D61
:10069600755F007560007561007BFF7A2C79B31277
:1006A60024E2EF64014E70028033756E00756F00B0
:1006B6007570007BFF7A2C79D2122432EF64014EDA
:1006C600601B755F007560007561007BFF7A2C7991
:1006D600D21224E2EF64014E60030200C212002629
:1006E600755FFF75602C7561CC7BFF7A2C79BA1229
:1006F6001D39754B00754C019000327408F07B0172
:100706007A007900122F617B017A007936122F6107
:0107160022C0
:102DC9008E558F56E556640145557003122F38E527
:092DD9005645557003122F4622E5
:052DAF00E0FEA3E0FFBF
:102DB400E4900094F0A3F0EEFF3395E0FE900094CD
:042DC400F0A3EFF099
:012DC80022E8
:05000E00E0FEA3E0FF8D
:0F001300E4900094F0A3F0FE900094F0A3EFF0BF
:0100220022BB
:102E6D00E490008AF0A3F0781812124C90008AEECC
:042E7D00F0A3EFF0DF
:012E8100222E
:102E8200E490008AF0A3F0781012124C90008AEEBF
:042E9200F0A3EFF0CA
:012E96002219
:102E9700E490008AF0A3F0780812124C90008AEEB2
:042EA700F0A3EFF0B5
:012EAB002204
:082DE2008F588E578D568C5559
:102DEA00E490008AF0A3F0E4FE90008AF0A3EFF0EA
:012DFA0022B6
:0A2D1F00900033E0FF900034E0FD67
:102D2900E4900090F0A3F0EFFE7C00E42DFFEC3E70
:082D3900FE900090F0A3EFF002
:012D4100226F
:0C26DA008E538F548C558D568A578B58A8
:1026E60090008212126B00000000AE53E554781879
:1026F600C333CE33CED8F9FFEE3395E0FDFCC004EC
:10270600C005C006C007AE55E5567810C333CE33B4
:10271600CED8F9FFEE3395E0FDFCD003D002D00110
:10272600D000EB2FFFEA3EFEE93DFDE83CFCA804A5
:10273600A905AA06AB07E5587F00FE3395E0FDFC28
:10274600EF2BFBEA3EFAE93DF9E83CF8AE59EE33E9
:1027560095E0FDFCEB255AFFEA3EFEE93DFDE83C2F
:10276600FC90008212125F900082E0FCA3E0FDA3C1
:05277600E0FEA3E0FFFE
:01277B00223B
:101BD80090005FE0FF90005EE02FFFE433FE90008E
:101BE80060E07C002FFFEC3EFE900061E02FFFECF0
:101BF8003EFE900070E02FFFEC3EFE900032E02F9A
:101C0800FFEC3EFE900071E02FFFEC3EFE9000627C
:101C1800E02FFFEC3EFE900063E02FFFEC3EFE90CD
:101C28000033E02FFFEC3EFE900034E02FFFEC3E47
:101C3800FE900035E02FFFEC3EFE90005AE02FFFAB
:101C4800EC3EFE900072E02FFFEC3EFE900073E049
:101C58002FFFEC3EFE900076E02FFFEC3EFE90005A
:101C680077E02FFFEC3EFE900078E02FFFEC3EFE81
:101C7800900079E02FFFEC3EFE90007AE02FFFEC19
:101C88003EFE90007BE02FFFEC3EFE900064E02FCC
:101C9800FFEC3EFE900065E02FFFEC3EFE90005BFF
:101CA800E02FFFEC3EFE900066E02FFFEC3EFE903A
:101CB8000068E02FFFEC3EFE900067E02FFFEC3E4F
:101CC800FE90006AE02FFFEC3EFE900069E02FFFD7
:101CD800EC3EFE90006CE02FFFEC3EFE90006BE0C7
:101CE8002FFFEC3EFE90006EE02FFFEC3EFE9000D2
:101CF8006DE02FFFEC3EFE90006FE02FFFEC3EFE04
:101D080090008EF0A3EFF0122DB4EE8FF012113880
:101D180090008E12000EAB5FAA60A961EE8FF002F0
:021D2800113870
:1029E6008F6E122F1A5010AF6EEF3395E0FEEF2464
:1029F600D0FFEE34FFFE22AF6EEF3395E0FEC3EF5D
:102A06009441EE648094804040D3EF9446EE648017
:102A16009480400AEF9461EE64809480402BD3EF5B
:102A2600947AEE648094804002801EAF6E122D94DC
:102A36005017AF6E122F29E56E500524C9FF80038B
:0E2A460024A9FFEF3395E0FE227EFF7FFF22E2
:062130008B6B8A6C896DC7
:10213600E4900084F0A3F0122EAC900082EEF0A39F
:10214600EFF0E490008AF0A3F00221F0900082E024
:10215600FEA3E0FFC390008BE09FEE6480F8900042
:102166008AE064809840030221F9AB6BAA6CA96DE2
:10217600E0FEA3E0F5828E831210F9FF1229E690A5
:102186000086EEF0A3EFF090008AE0FEA3E0FFC326
:10219600900083E09FFF900082E09ECF24FFCF3423
:1021A600FFFEEF7802C333CE33CED8F9FF90008816
:1021B600EEF0A3EFF0900086E0FEA3E0A80708800B
:1021C60005C333CE33CED8F9FF900086EEF0A3EFE9
:1021D600F0900084E04EF0A3E04FF090008BE00416
:1021E600F0700690008AE004F0E4900086F0A3F018
:0B21F600022152900084E0FEA3E0FFF5
:0122010022BA
:10288A00E490008AF0A3F0A312126B000000001279
:10289A002D1F90008AEEF0A3EFF0E4F553F554D320
:1028AA0090008BE0955490008AE095534037900051
:1028BA008CE0F8A3E0F9A3E0FAA3E0FB900095E42A
:1028CA0093FE740193FFE4FCFDEB2FFFEA3EFEED5D
:1028DA0039FDEC38FC90008C12125F0554E55470F7
:1028EA00BE055380BA90008CE0FCA3E0FDA3E0FE95
:0328FA00A3E0FF59
:0128FD0022B8
:1028FE00E4900082F0A3F0A312126B00000000120D
:10290E002D1F900082EEF0A3EFF0E4F555F556D3AF
:10291E00900083E09556900082E0955540379000E8
:10292E0084E0F8A3E0F9A3E0FAA3E0FB900097E4BB
:10293E0093FE740193FFE4FCFDEB2FFFEA3EFEEDE8
:10294E0039FDEC38FC90008412125F0556E5567086
:10295E00BE055580BA900084E0FCA3E0FDA3E0FE26
:03296E00A3E0FFE4
:012971002243
:10220200900097E493FE740193FBAA06E4F9F8AFF9
:1022120028AE27AD26AC2512119390008EEEF0A3C6
:10222200EFF0900070E064057005900097800B90CD
:102232000070E06401702190009593FE740193FB9D
:10224200AA06E4F9F8AF40AE3FAD3EAC3D121193A1
:10225200900090EEF0A3EFF0900095E493FE7401ED
:1022620093FBAA06E4F9F8AF32AE31AD30AC2F12CF
:102272001193900092EEF0A3EFF090008E122DAF2A
:10228200900062EFF090008E12000E900063EFF06B
:10229200900090122DAF900072EFF090009012001B
:1022A2000E900073EFF0900092122DAF900078EF35
:0C22B200F090009212000E900079EFF006
:0122BE0022FD
:101F56007F017E00122E57E4FD7F01FE122E13E450
:101F6600FD7F02FE122E13E4FD7F03FE122E13E404
:101F7600FD7F04FE122E137F017E02122E577D0571
:101F86007F017E02122E139000707405F0E490001B
:101F960032F07F017E06122E57E4FD7F017E061287
:101FA6002E13E4900071F0900062F0900063F090C0
:101FB6000033F0900034F0900035F090005AF09025
:101FC6000072F0900073F0900076F0900077F09039
:101FD6000078F0900079F090007AF090007BF09015
:101FE6000064F0900065F07F017E1C122E57E4FD20
:101FF6007F017E1C122E13E4FD7F027E1C122E131F
:10200600E4FD7F037E1C122E13E4FD7F047E1C126A
:102016002E137F017E20122E57E4FD7F017E2012B3
:102026002E13E4FD7F027E20122E13E4FD7F037E35
:0D20360020122E13E4FD7F047E20022E13E5
:10263100E4900032F07F017E02122E57900070E08C
:10264100FD7F017E02122E137F017E06122E57900E
:102651000071E0FD7F017E06122E13900072E0FFF3
:10266100900073E0FD122D29900095E493FC740114
:1026710093FD121126E48F408E3FF53EF53DAD3EB0
:10268100AC3D122E6D8F47AF40AE3FAD3EAC3D121B
:102691002E828F21AF40AE3FAD3EAC3D122E978FC3
:1026A10022AF40AE3FAD3EAC3D122DE28F487F01DF
:1026B1007E1C122E57AD477F017E1C122E13AD21B9
:1026C1007F027E1C122E13AD227F037E1C122E135D
:0926D100AD487F047E1C022E13AB
:102CD700434C4F534544006E3231393065373033FA
:102CE700332E696F6B2E6C610031393536350050E4
:042CF70044503A000B
:100C2B00E4F553F554FFFE122DC97F017E02122EFF
:100C3B00577D057F017E02122E13538EEF53D1F792
:100C4B00E54A64014549700D122043E4F549F54A24
:100C5B00F54B754C017F017E06122DFBEF3395E0B2
:100C6B00FEEF64064E7018900032E06409700302C8
:100C7B000D03900032E064CC6003020F34800890C7
:100C8B000032E064CC7012900070E0FD900071E0D7
:100C9B00FB7FCC1212F6020F34900032E06401702D
:100CAB0024FFFE122DC99000717404F07F017E06A3
:100CBB00122E577D047F017E06122E137B047D05B9
:100CCB007F11020F2C900032E064027023FFFE12A2
:100CDB002DC99000717401F0FF7E06122E577D0115
:100CEB007F017E06122E137B017D057F22020F2CC6
:100CFB00900032E06409701EFFFE122DC9122631DE
:100D0B00900070E0FD900071E0FB7F991212F6905D
:100D1B0000327408F022900032E0640A701AFFFE71
:100D2B00122DC9121F56900070E0FDE4FB7FAA1232
:100D3B0012F6E4900032F022900032E0640D702342
:100D4B007F017E02122DFB900070EFF07F017E067B
:100D5B00122DFB900071EFF0FB900070E0FD7FDD3A
:100D6B00020F2C900032E0640F7056FFFE122DC95B
:100D7B00E52464014523701D900071740CF07F0114
:100D8B007E06122E577D0C7F017E06122E13E4F584
:100D9B0023F5248020E5244523701A90007104F07C
:100DAB00FF7E06122E577D017F017E06122E1375D4
:100DBB002300752401900071E0FB7D057FFF020F7E
:100DCB002C900032E064816003020F1E90007104CE
:100DDB00F0FF7E06122E577D017F017E06122E1329
:100DEB001228FE8F408E3F8D3E8C3D7F017E001280
:100DFB002DC9E4F528F527F526F5257B017D057F23
:100E0B00911212F6E4F53BF53CF52DF52E807E9014
:100E1B000032E064827010FFFE122DC97B017D054C
:100E2B007F921212F6806CE4FFFEFDFCAB40AA3FF2
:100E3B00A93EA83DD312123B5015E4FFFE122DC95B
:100E4B00755300755401E4F540F53FF53EF53DE56E
:100E5B00426401454170B8F541F542FFFEFDFCAB24
:100E6B0028AA27A926A825C312123B60097B017D5E
:100E7B00057F061212F6E4F528F527F526F525E58C
:100E8B0054640145537006F553F554800643D1085D
:100E9B00020E1A538EEF43D108AF32AE31AD30ACE8
:100EAB002F122E6D8F45AF32AE31AD30AC2F122ECF
:100EBB00828F51AF32AE31AD30AC2F122E978F5295
:100ECB00AF32AE31AD30AC2F122DE28F467F017EAB
:100EDB0020122E57AD457F017E1C122E13AD517F74
:100EEB00027E1C122E13AD527F037E1C122E13ADED
:100EFB00467F047E1C122E13E4F528F527F526F504
:100F0B0025F540F53FF53EF53D900062F09000630E
:100F1B00F08012900032E06482700E7B017D057FC1
:100F2B00921212F6E4900032F0756E00756F007538
:100F3B0070007BFF7A2C79D7122432EF64014E605C
:100F4B004D755F007560007561007BFF7A2C79D75A
:100F5B001224E2EF64014E70028033756E00756FE0
:100F6B00007570007BFF7A2C79F6122432EF640146
:100F7B004E601B755F007560007561007BFF7A2CFE
:100F8B0079F61224E2EF64014E6003020C4B12005F
:100F9B0026755FFF75602C7561F07BFF7A2C79DE0F
:100FAB00121D397F017E02122DFB7F017E06122D51
:100FBB00FB900070E0FD900071E0FBE4FF1212F675
:100FCB00754B00754C019000327408F07B017A0070
:0E0FDB007900122F617B017A007936122F61A6
:010FE90022E5
:101E4F0041540A004F4B0041542B4350494E3F0D14
:101E5F000A002B4350494E3A0041542B43524547F9
:101E6F003F0D0A002B435245473A0041542B43493B
:101E7F00505153454E443D300D0A0041542B4349B8
:101E8F005053544152543D00544350000D0A0043E7
:101E9F004F4E4E454354204F4B00414C5245414409
:101EAF005920434F4E4E45435400434F4E4E4543EA
:101EBF0054204641494C0041542B434950534855F7
:101ECF00540D0A0053485554204F4B0041542B4397
:101EDF00495053454E443D33360D0A003E0045529E
:101EEF00524F52006E3231393065373033332E69ED
:101EFF006F6B2E6C610031393536350041542B43F1
:101F0F00495053454E443D340D0A0041542B435321
:101F1F00510D0A002B4353513A200041542B494392
:101F2F004349440D0A002B49434349443A200000DA
:101F3F000000000000000000000000000000000092
:071F4F00000000000000008B
:0F242300756E00756F007570007BFF7A1E795320
:102432008B6B8A6C896DAC02AD01ED4C700AE57054
:10244200456F7004FE7F0122ED4C6044E570456FDC
:10245200603E856B74856C75856D767B017A00793B
:1024620000122808EA494B601D856E74856F7585D8
:1024720070767B017A007900122808EA494B6006DF
:102482007E007F0180047E007F00EF4E603F803837
:10249200E56D456C601B856B74856C75856D767B0F
:1024A200017A007900122808E94A4B6002801980FB
:1024B2001C856E74856F758570767B017A00790054
:1024C200122808E94A4B60057E007F0122E4FEFFE4
:0124D20022E7
:0F24D300755F007560007561007BFF7A1E79ED03
:1024E2008B5C8A5D895EAC02AD01ED4C700AE561E0
:1024F20045607004FE7F0122ED4C6044E561456059
:10250200603E855C74855D75855E767B017A0079B7
:1025120036122808EA494B601D855F74856075850F
:1025220061767B017A007936122808EA494B600607
:102532007E007F0180047E007F00EF4E603F803886
:10254200E55E455D601B855C74855D75855E767BA9
:10255200017A007936122808E94A4B600280198014
:102562001C855F748560758561767B017A0079369A
:10257200122808E94A4B60057E007F0122E4FEFF33
:012582002236
:102E2B00122D5EC2B57F017E00122D797FC87E0008
:062E3B00122E41D2B52267
:102372008007122423EF4E70317B017A007900121C
:102382002F617BFF7A1E794F122C8E7FF47E011211
:102392002E4180DE756EFF756F1E7570537BFF7A5E
:1023A2001E7961122432EF4E70317B017A0079007E
:1023B200122F617BFF7A1E7956122C8E7FF47E01DA
:1023C200122E4180CF756E00756F007570007BFF15
:1023D2007A1E7973122432EF4E70227B017A0079D1
:1023E20000122F617BFF7A1E7968122C8E7FF47E99
:1023F20001122E4180CF122423EF4E701B7B017AF3
:10240200007900122F617BFF7A1E797A122C8E7F5F
:10241200F47E01122E4180DE7B017A007900022FC8
:012422006158
:0F1D2A00755FFF75601F7561057BFF7A1E79F38A
:101D39008B5C8A5D895E7BFF7A1E798A122C8E7F85
:101D4900221200037BFF7A1E7997122C8E7F2212B2
:101D590000037F2C1200037F22120003AB5CAA5DF3
:101D6900A95E122C8E7F221200037F2C1200037FA2
:101D790022120003AB5FAA60A961122C8E7F221286
:101D890000037BFF7A1E799B122C8E7F887E1312AB
:101D99002E41756E00756F007570007BFF7A1E7994
:101DA9009E122432EF64014E70028018756E007520
:101DB9006F007570007BFF7A1E79A9122432EF64D7
:101DC900014E70097B017A007900022F61756E005E
:101DD900756F007570007BFF7A1E79B9122432EF96
:101DE90064014E70AD7B017A007900122F617BFF8F
:101DF9007A1E798A122C8E7F221200037BFF7A1EAB
:101E09007997122C8E7F221200037F2C1200037FF8
:101E190022120003AB5CAA5DA95E122C8E7F2212EE
:101E290000037F2C1200037F22120003AB5FAA601C
:101E3900A961122C8E7F221200037BFF7A1E799BE7
:061E4900122C8E021D9B0D
:100026008016756E00756F007570007BFF7A1E79FD
:10003600D3122432EF4E701B7B017A007936122FD1
:10004600617BFF7A1E79C6122C8E7F887E13122E54
:0C0056004180CF7B017A007936022F61D7
:0C12EA00900070E0FD900071E0FBE4FF5C
:0612F6008F578D588B5943
:1012FC00E4F55AF55B7B017A007900122F61E4F575
:10130C004BF54C122A547BFF7A1E79DB122C8E750E
:10131C006E00756F007570007BFF7A1E79EB1224DE
:10132C0032EF64014E604D756E00756F0075700084
:10133C007BFF7A1E79ED122432EF64014E600912A4
:10134C0024D3EF64014E70C7120026121D2A7F01B0
:10135C007E02122DFB7F017E06122DFB1212EA7B00
:10136C00017A007900122F617B017A007936122FF5
:10137C006102131B7B017A007900122F617B017AC9
:10138C00007936122F617F017E00122DFB90005EDA
:10139C00EFF07F027E00122DFB90005FEFF07F03D9
:1013AC007E00122DFB900060EFF07F047E00122D6A
:1013BC00FB900061EFF0900032E557F0900070E583
:1013CC0058F0900071E559F01222027F017E1A123A
:1013DC002DFB900066EFF07F027E1A122DFB900021
:1013EC0068EFF07F037E1A122DFB900067EFF07F01
:1013FC00047E1A122DFB90006AEFF07F057E1A1204
:10140C002DFB900069EFF07F067E1A122DFB9000E9
:10141C006CEFF07F077E1A122DFB90006BEFF07FC4
:10142C00087E1A122DFB90006EEFF07F097E1A12C7
:10143C002DFB90006DEFF07F0A7E1A122DFB9000B1
:10144C006FEFF0755F0175600075618C7B017A0040
:10145C00798A121BD890008AA3E090005CF090006F
:10146C008CA3E090005DF090005EE0FF1200039012
:10147C00005FE0FF120003900060E0FF1200039099
:10148C000061E0FF120003900070E0FF1200039077
:10149C000032E0FF120003900071E0FF1200039095
:1014AC000062E0FF120003900063E0FF1200039063
:1014BC000033E0FF120003900034E0FF12000390B1
:1014CC000035E0FF12000390005AE0FF1200039079
:1014DC000072E0FF120003900073E0FF1200039013
:1014EC000076E0FF120003900077E0FF12000390FB
:1014FC000078E0FF120003900079E0FF12000390E7
:10150C00007AE0FF12000390007BE0FF12000390D2
:10151C000064E0FF120003900065E0FF12000390EE
:10152C00005BE0FF120003900066E0FF12000390E6
:10153C000068E0FF120003900067E0FF12000390C8
:10154C00006AE0FF120003900069E0FF12000390B4
:10155C00006CE0FF12000390006BE0FF12000390A0
:10156C00006EE0FF12000390006DE0FF120003908C
:10157C00006FE0FF12000390005CE0FF120003908C
:10158C00005DE0FF120003E4900032F0122423EF20
:0A159C0064014E70F7F54B754C0129
:0115A6002222
:10204300E4F555F5567B017A007900122F61E4F52A
:102053004BF54C7F01FE122DFB90005EEFF07F02EB
:102063007E00122DFB90005FEFF07F037E00122DA8
:10207300FB900060EFF07F047E00122DFB90006167
:10208300EFF07BFF7A1F790B122C8E756E00756F44
:10209300007570007BFF7A1E79EB122432EF640126
:1020A3004E6052756E00756F007570007BFF7A1E6F
:1020B30079ED122432EF64014E60091224D3EF64E8
:1020C300014E70C7120026121D2A7F017E02122DB7
:1020D300FB7F017E06122DFB1212EAE4900032F020
:1020E3007B017A007900122F617B017A0079361225
:1020F3002F6102208E7B017A007900122F619000FC
:102103005EE0FF12000390005FE0FF120003900007
:1021130060E0FF120003900061E0FF12000312244D
:0C21230023EF64014E70F7F54B754C0182
:01212F00228D
:102A54008016756E00756F007570007BFF7A1F79A4
:102A640023122432EF4E701B7B017A007900122F5F
:102A7400617BFF7A1F791A122C8E7FF47E01122E4D
:102A84004180CF7B017A0079007D20122D428B6E2C
:102A94008A6F89707B007A00795C757100757203A6
:102AA400122BF112258390005BEFF07F017E181248
:0E2AB4002E5790005BE0FD7F017E18022E136E
:10182E0078537C007D007BFF7A1F793E7E007F150A
:10183E001210BA78687C007D007BFF7A1F79537E88
:10184E00007F031210BA8016756E00756F007570EA
:10185E00007BFF7A1F7935122432EF4E701B7B010D
:10186E007A007900122F617BFF7A1F792A122C8E53
:10187E007FF47E01122E4180CF7B017A0079007DAC
:10188E0020122D42E92401F9E43A8B6EF56F89702E
:10189E007B007A007953757100757214122BF175F5
:1018AE006E00756F007570537571007572027B0056
:1018BE007A007968122BF17B007A00796812213058
:1018CE00900066EFF07F017E1A122E57900066E0B0
:1018DE00FD7F017E1A122E13756E00756F007570E6
:1018EE00557571007572027B007A007968122BF1C2
:1018FE007B007A007968122130900068EFF0FD7F4E
:10190E00027E1A122E13756E00756F007570577564
:10191E0071007572027B007A007968122BF17B00E0
:10192E007A007968122130900067EFF0FD7F037E18
:10193E001A122E13756E00756F0075705975710041
:10194E007572027B007A007968122BF17B007A00A7
:10195E00796812213090006AEFF0FD7F047E1A1232
:10196E002E13756E00756F0075705B757100757254
:10197E00027B007A007968122BF17B007A0079687D
:10198E00122130900069EFF0FD7F057E1A122E13A2
:10199E00756E00756F0075705D7571007572027BE6
:1019AE00007A007968122BF17B007A007968122197
:1019BE003090006CEFF0FD7F067E1A122E13756EBE
:1019CE0000756F0075705F7571007572027B007A1D
:1019DE00007968122BF17B007A0079681221309021
:1019EE00006BEFF0FD7F077E1A122E13756E0075D9
:1019FE006F007570617571007572027B007A0079E7
:101A0E0068122BF17B007A00796812213090006EFB
:101A1E00EFF0FD7F087E1A122E13756E00756F00A3
:101A2E007570637571007572027B007A00796812A9
:101A3E002BF17B007A00796812213090006DEFF067
:101A4E00FD7F097E1A122E13756E00756F0075706C
:101A5E00657571007572027B007A007968122BF140
:101A6E007B007A00796812213090006FEFF0FD7FD5
:061A7E000A7E1A022E137D
:102D5E00759850758E40538EFEE4F589758BCC7543
:0B2D6E008DFFC2ABD28ED2AFD2AC22E0
:080003008F993099FDC299228A
:102C8E008B6B8A6C896DAB6BAA6CA96D1210E060B0
:102C9E0013056DE56D7002056C14F91210E0FF124C
:052CAE00000380E2229A
:102AC2007E007F00E490007CF0A3F0A3F08F828E62
:102AD20083E599F0E490007DF0A3F0C29890007C29
:102AE200E0FD3395E0FCC3ED9432EC6480948050B9
:102AF20032E004F00FBF00010E2098D1C2C890004E
:102B02007EE004F0700690007DE004F0D390007E39
:102B1200E094C890007DE06480948040DCD2C8E4F8
:092B2200FEFF22D2C87E007F01F3
:012B2B002287
:102B2C007E007F36E490007CF0A3F0A3F08F828EC1
:102B3C0083E599F0E490007DF0A3F0C29890007CBE
:102B4C00E0FD3395E0FCC3ED9423EC64809480505D
:102B5C0032E004F00FBF00010E2098D1C2C99000E2
:102B6C007EE004F0700690007DE004F0D390007ECF
:102B7C00E094C890007DE06480948040DCD2C9E48D
:092B8C00FEFF22D2C97E007F0188
:012B9500221D
:1015A700900036E090005EF0900037E090005FF02A
:1015B700900038E0900060F0900039E0900061F012
:1015C70090003AE0900070F090003BE0900032F01D
:1015D70090003CE0900071F090003DE0900062F0D8
:1015E70090003EE0900063F090003FE0900033F001
:1015F700900040E0900034F0900041E0900035F01A
:10160700900042E090005AF0900043E0900072F0A2
:10161700900044E0900073F0900045E0900076F071
:10162700900046E0900077F0900047E0900078F057
:10163700900048E0900079F0900049E090007AF03F
:1016470090004AE090007BF090004BE0900064F03F
:1016570090004CE0900065F090004DE090005BF04A
:1016670090004EE0900066F090004FE0900068F028
:10167700900050E0900067F0900051E090006AF011
:10168700900052E0900069F0900053E090006CF0F9
:10169700900054E090006BF0900055E090006EF0E1
:1016A700900056E090006DF0900057E090006FF0CA
:1016B700900058E090005CF0900059E090005DF0D9
:1016C7007B017A007936122F6190005FE0FF90006E
:1016D7005EE02FFFE433FE900060E07C002FFFEC1C
:1016E7003EFE900061E02FFFEC3EFE900070E02F81
:1016F700FFEC3EFE900032E02FFFEC3EFE900071C3
:10170700E02FFFEC3EFE900062E02FFFEC3EFE90E4
:101717000063E02FFFEC3EFE900033E02FFFEC3E2E
:10172700FE900034E02FFFEC3EFE900035E02FFFE7
:10173700EC3EFE90005AE02FFFEC3EFE900072E078
:101747002FFFEC3EFE900073E02FFFEC3EFE900073
:1017570076E02FFFEC3EFE900077E02FFFEC3EFE99
:10176700900078E02FFFEC3EFE900079E02FFFEC31
:101777003EFE90007AE02FFFEC3EFE90007BE02FCC
:10178700FFEC3EFE900064E02FFFEC3EFE9000650C
:10179700E02FFFEC3EFE90005BE02FFFEC3EFE905B
:1017A7000066E02FFFEC3EFE900068E02FFFEC3E66
:1017B700FE900067E02FFFEC3EFE90006AE02FFFEF
:1017C700EC3EFE900069E02FFFEC3EFE90006CE0DF
:1017D7002FFFEC3EFE90006BE02FFFEC3EFE9000EB
:1017E7006EE02FFFEC3EFE90006DE02FFFEC3EFE1B
:1017F70090006FE02FFFEC3E90007CF0A3EFF0909D
:10180700007CE0FE3395E090007EF0A3CEF07E00F2
:10181700A3EEF0A3EFF090005DE06F7001EC6006BF
:0618270090003274CCF0C9
:01182D002298
:092F61007E007F247D0002129C19
:0300230002006672
:10006600C0E0C0F0C083C082C0D075D008E54C6443
:1000760001454B700C122B2CEF4E60081215A78011
:0F00860003122AC2D0D0D082D083D0F0D0E03283
:102D7900EF1FAC0670011E4C601000007D7A7CC10B
:0A2D89007B80DBFEDCFCDDFA80E657
:012D9300221D
:102E4100EF1FAC0670011E4C600B007D207C28DC5E
:052E5100FEDDFC80EB3A
:012E56002259
:072F6A00E4F5957596302295
:0E2F3800C2A4D2A57F147E00122E41C2A52293
:0E2F4600D2A4C2A57F147E00122E41C2A42286
:102F0A00758904758AFF758CFFD28CD2A9D2AF223B
:102ED400438E0475D74075D6A2538EEF43AF04D208
:022EE400AF221B
:102EE60043D10275D54075D4A253D1F743AF20D252
:022EF600AF2209
:102EF80043D12075D34075D2A243D18043AF40D28D
:022F0800AF22F6
:03000B00022C4381
:102C4300C0E0C0D0E5282401F528E43527F527E4C2
:102C53003526F526E43525F525E54024FFF540E541
:102C63003F34FFF53FE53E34FFF53EE53D34FFF5E8
:102C73003DE5322401F532E43531F531E43530F503
:0B2C830030E4352FF52FD0D0D0E03228
:03006300022972FD
:10297200C0E0C0F0C083C082C0D075D008E52C454D
:102982002B700685272985282A052CE52C7002053F
:102992002BB4D042E52BB4073D752B00752C00AE4D
:1029A20029AF2AAB0FAA0EEA3395E0F9F8C3E5285E
:1029B2009BFFE5279AFEE52699FDE52598FCE47B39
:1029C20005FAF9F8D312123B500C7537007538012D
:1029D200538EEF43D10853EFFED0D0D082D083D0B4
:0429E200F0D0E0321F
:03009B000222BF7F
:1022BF00C0E0C0F0C083C082C0D075D008E53C45F7
:1022CF003B700685273985283A053CE53C700205A9
:1022DF003BE52EB4B82FE52DB40B2A753B00753CAA
:1022EF0000752D00752E0075410075420153D1F711
:1022FF007F017E02122DFBEF3395E0FEEF64014E5E
:10230F007003438E10E53C6464453B7048F53BF524
:10231F003CAE39AF3AAB0FAA0EEA3395E0F9F8C3EA
:10232F00E5289BFFE5279AFEE52699FDE52598FC14
:10233F00E47B05FAF9F8C312123B400D7464252EA5
:10234F00F52EE4352DF52D8006752D00752E0085A3
:10235F00273985283A53EFFDD0D0D082D083D0F0E3
:03236F00D0E03289
:0300A300022B9697
:102B9600C0E0C0F0C083C082C0D075D008E4FAF9A6
:102BA600F8E5362401F536EA3535F535E93534F5F7
:102BB60034E83533F5337F407E7E7D057C00AB36C9
:102BC600AA35A934F8C31212257012F54D754E01B7
:102BD600F549754A01F536F535F534F53353EFFB0E
:0B2BE600D0D0D082D083D0F0D0E032FD
:0D2F5400E4F5C7F5C5F5C675C380F5C422C8
:102DFB0075C78175C5018FC4EEFF8FC375C65A7534
:082E0B00C6A500AFC2022F545E
:102E130075C78175C5028FC4EEFF8FC38DC275C69A
:082E23005A75C6A500022F54E8
:102E570075C78175C5038FC4EEFF8FC375C65A75D5
:062E6700C6A500022F5475
:0300000002277C58
:0C277C00787FE4F6D8FD75817C0227C34D
:102CFB006E3231393065373033332E696F6B2E6C52
:102D0B006100313935363500434C4F534544005043
:042D1B0044503A00E6
:10071700C2C9122E2B7F057E00122D79D2C9122F46
:100727006A122F0A122ED4122EE6122EF87F017E9D
:100737001E122DFBEF3395E0F54F8F504550701E7D
:100747000550E5507002054F7F017E1E122E57ADF2
:10075700507F017E1E122E13121F560207FB0550F3
:10076700E5507002054F7F017E1E122E57AD507F58
:10077700017E1E122E137F017E02122DFB90007048
:10078700EFF07F017E06122DFB900071EFF07F01E5
:100797007E1C122DFB8F477F027E1C122DFB8F21A3
:1007A7007F037E1C122DFB8F227F047E1C122DFBE4
:1007B7008F48AF477E00AD217C00AB227A00E54829
:1007C700755900F55A1226DA8F408E3F8D3E8C3DC3
:1007D7007F017E20122DFB8F457F027E20122DFB8D
:1007E7008F517F037E20122DFB8F527F047E2012B4
:1007F7002DFB8F46C2C87FF47E01122E41D2C8124C
:10080700237212182E120026755FFF75602D756111
:100817000D7BFF7A2C79FB121D397F017E00122D8B
:10082700FB90005EEFF07F027E00122DFB90005FD1
:10083700EFF07F037E00122DFB900060EFF07F0446
:100847007E00122DFB900061EFF090005EE06003E8
:10085700020A2890005FE06003020A28900060E027
:100867006003020A28900061E06003020A289000F2
:10087700717406F07F01FE122E577D067F017E06FA
:10088700122E13020A16900032E0640470667F018C
:100897007E02122DFB900070EFF07F017E06122D75
:1008A700FB900071EFF07F017E00122E5790005EE3
:1008B700E0FD7F017E00122E1390005FE0FD7F02B6
:1008C7007E00122E13900060E0FD7F037E00122E43
:1008D70013900061E0FD7F047E00122E13900070DC
:1008E700E0FD900071E0FB7F441212F6E4900032C5
:1008F700F0020AF3756E00756F007570007BFF7A62
:100907002D7913122432EF64014E6018755F00755C
:1009170060007561007BFF7A2D79131224E2EF6482
:10092700014E7056120026755FFF75602D75610DBB
:100937007BFF7A2C79FB121D399000717406F07FCA
:1009470001FE122E577D067F017E06122E139000A0
:1009570070E0FD900071E0FB7F041212F6754B000A
:10096700754C01E4900032F07B017A007900122F78
:10097700617B017A007936122F61756E00756F0001
:100987007570007BFF7A2D791A122432EF64014EBD
:100997006018755F007560007561007BFF7A2D79BF
:1009A7001A1224E2EF64014E7056120026755FFF9B
:1009B70075602D75610D7BFF7A2C79FB121D3990BF
:1009C70000717406F07F01FE122E577D067F017EAF
:1009D70006122E13900070E0FD900071E0FB7F047B
:1009E7001212F6754B00754C01E4900032F07B0152
:1009F7007A007900122F617B017A007936122F6114
:100A0700E54E6401454D600302088DF54DF54E90A6
:100A17000070E0FD900071E0FB7F041212F60208FF
:100A27008D900032E064086012900070E0FD900045
:100A370071E0FBE4FF1212F6020AF3756E00756FA0
:100A4700007570007BFF7A2D7913122432EF640151
:100A57004E6018755F007560007561007BFF7A2D29
:100A670079131224E2EF64014E704F120026755F6E
:100A7700FF75602D75610D7BFF7A2C79FB121D398F
:100A87007F017E02122DFB7F017E06122DFB900057
:100A970070E0FD900071E0FBE4FF1212F6754B0069
:100AA700754C01E4900032F07B017A007900122F37
:100AB700617B017A007936122F61756E00756F00C0
:100AC7007570007BFF7A2D791A122432EF64014E7C
:100AD700607B755F007560007561007BFF7A2D791B
:100AE7001A1224E2EF64014E70028061E490003232
:100AF700F07F017E02122DFBEF3395E0FEEF6405D8
:100B07004E7005120C2B80157F017E02122DFBEF14
:100B17003395E0FEEF64014E70031200A6756E0078
:100B2700756F007570007BFF7A2D7913122432EFF1
:100B370064014E6018755F007560007561007BFF8A
:100B47007A2D79131224E2EF64014E7052120026B7
:100B5700755FFF75602D75610D7BFF7A2C79FB1230
:100B67001D397F017E02122DFB7F017E06122DFBB0
:100B7700900070E0FD900071E0FBE4FF1212F67543
:100B87004B00754C01E4900032F07B017A0079004C
:100B9700122F617B017A007936122F61020AF375F1
:100BA7006E00756F007570007BFF7A2D791A12241D
:100BB70032EF64014E601B755F0075600075610060
:100BC7007BFF7A2D791A1224E2EF64014E6003024B
:100BD7000821120026755FFF75602D75610D7BFF7B
:100BE7007A2C79FB121D397F017E02122DFB7F01C2
:100BF7007E06122DFB900070E0FD900071E0FBE493
:100C0700FF1212F6754B00754C01E4900032F07B31
:100C1700017A007900122F617B017A007936122F51
:040C270061020AF369
:040095000564000EF0
:101A840041005E0041005F004100600041006100D0
:101A940041007005410032004100710041006200C4
:101AA400410063004100330041003400410035002F
:101AB40041005A0041007200410073004100760069
:101AC40041007700410078004100790041007A002C
:101AD40041007B00410064004100650041005B005F
:101AE40041006600410068004100670041006A004F
:101AF4004100690041006C0041006B0041006E0030
:101B040041006D0041006F0041005C0041005D0038
:101B1400023700000241000002490000024D0000AB
:101B24004200740000602400360000000000000041
:101B340000000000000000000000000000000000A1
:101B440000000000000000000000000000603200FF
:101B54000000000000000000000000000000000081
:101B64000000000000000000000000000000000071
:101B74000000000000000000000000000000000061
:101B8400000000043D0000000001470001210001A5
:101B94002200014800042500000000042F0000007A
:101BA40000014500015100015200014600022300DA
:101BB40001043300000000022B0000023B0000027D
:101BC4002D00000229000002390000024F0000022B
:031BD4004B0000C3
:10278800020717E493A3F8E493A34003F68001F249
:1027980008DFF48029E493A3F85407240CC8C33352
:1027A800C4540F4420C8834004F456800146F6DF21
:1027B800E4800B0102040810204080901A84E47E13
:1027C800019360BCA3FF543F30E509541FFEE49316
:1027D800A360010ECF54C025E060A840B8E493A3DD
:1027E800FAE493A3F8E493A3C8C582C8CAC583CA08
:1027F800F0A3C8C582C8CAC583CADFE9DEE780BEC0
:011BD700000D
:100FEA00E709F608DFFA8046E709F208DFFA803EE9
:100FFA0088828C83E709F0A3DFFA8032E309F608D6
:10100A00DFFA8078E309F208DFFA807088828C833D
:10101A00E309F0A3DFFA806489828A83E0A3F608F1
:10102A00DFFA805889828A83E0A3F208DFFA804CCB
:10103A0080D280FA80C680D4806980F280338010A2
:10104A0080A680EA809A80A880DA80E280CA80330B
:10105A0089828A83ECFAE493A3C8C582C8CCC58383
:10106A00CCF0A3C8C582C8CCC583CCDFE9DEE78053
:10107A000D89828A83E493A3F608DFF9ECFAA9F0D2
:10108A00EDFB2289828A83ECFAE0A3C8C582C8CC28
:10109A00C583CCF0A3C8C582C8CCC583CCDFEADE41
:1010AA00E880DB89828A83E493A3F208DFF980CCA3
:1010BA0088F0EF60010E4E60C388F0ED2402B4049C
:1010CA000050B9F582EB2402B4040050AF23234543
:0610DA00822390103A731E
:1010E000BB010689828A83E0225002E722BBFE020E
:0910F000E32289828A83E4932241
:1010F900BB010CE58229F582E5833AF583E02250AC
:1011090006E92582F8E622BBFE06E92582F8E222F5
:0D111900E58229F582E5833AF583E493220F
:10112600EF8DF0A4A8F0CF8CF0A428CE8DF0A42EDD
:02113600FE2297
:10113800BB010A89828A83F0E5F0A3F0225006F702
:0F11480009A7F01922BBFE06F3E5F009F31922FF
:1011570075F008758200EF2FFFEE33FECD33CDCC4F
:1011670033CCC58233C5829BED9AEC99E5829840D2
:101177000CF582EE9BFEED9AFDEC99FC0FD5F0D6AF
:10118700E4CEFBE4CDFAE4CCF9A88222B800C1B9D9
:101197000059BA002DEC8BF084CFCECDFCE5F0CB17
:1011A700F97818EF2FFFEE33FEED33FDEC33FCEB50
:1011B70033FB10D703994004EB99FB0FD8E5E4F90B
:1011C700FA227818EF2FFFEE33FEED33FDEC33FCF8
:1011D700C933C910D7059BE99A4007EC9BFCE99AEC
:1011E700F90FD8E0E4C9FAE4CCFB2275F010EF2F31
:1011F700FFEE33FEED33FDCC33CCC833C810D70731
:101207009BEC9AE899400AED9BFDEC9AFCE899F86B
:0E1217000FD5F0DAE4CDFBE4CCFAE4C8F922FE
:10122500EB9FF5F0EA9E42F0E99D42F0EC6480C840
:0612350064809845F022E0
:10123B00EB9FF5F0EA9E42F0E99D42F0E89C45F009
:01124B002280
:10124C00E8600FECC313FCED13FDEE13FEEF13FF80
:03125C00D8F122A4
:0C125F00ECF0A3EDF0A3EEF0A3EFF02202
:10126B00A8828583F0D083D082121282121282124E
:10127B001282121282E473E493A3C583C5F0C58373
:10128B00C8C582C8F0A3C583C5F0C583C8C582C8CD
:01129B002230
:102D9400EFC394414005EF945B400BEFC394614053
:0B2DA40008EF947B5003D38001C32292
:0F2F1A00EFC394304007EF943A50028001C32276
:0F2F2900EFC394414007EF945B50028001C32235
:102BF1008B6B8A6C896DE4F573F574E5721572AEB1
:102C010071700215714E6033AB6EAA6FA97012100C
:102C1100E0FFAB6BAA6CA96D0574E574AC7370022F
:102C2100057314F5828C83EF1212C8EF60CD740125
:102C31002570F570E4356FF56F80C0AB6BAA6CA998
:022C41006D2202
:102EAC00E4FFFE1210E0600C0FEF70010E09E970E8
:052EBC00F20A80EF2284
:102D4200E94A4B7001221210E0FF6D700122EF7010
:0C2D520004FBFAF92209E970ED0A80EA9E
:102808008B718A728973AB74AA75A9761210E0600D
:1028180063AB71AA72A9731210E0605F8574778543
:1028280075788576798B7A8A7B897CAB77AA78A943
:10283800791210E0FF6023AB7AAA7BA97C1210E022
:102848006F7017042579F579E43578F578740125E2
:102858007CF57CE4357BF57B80D1AB77AA78A979C8
:102868001210E07002800D74012573F573E435725F
:10287800F572809DAB71AA72A973227B007A0079E8
:0228880000222C
:102583008B5F8A608961AB5FAA60A9611210E0FF6B
:10259300122EC1500D74012561F561E43560F560BB
:1025A30080E4D200AB5FAA60A9611210E0FF642B44
:1025B3006004EFB42D1BAB5F0561E561AA60700297
:1025C300056014F91210E0642D6003D38001C392F7
:1025D30000E4F562F563AB5FAA60A9611210E0FF46
:1025E300122F1A5036AB5FAA60A9611210E0FF33B5
:1025F30095E0FEEF24D0FBEE34FFFAAE62AF637CCE
:10260300007D0A121126EF2BF563EE3AF562740191
:102613002561F561E43560F56080BB300006AE628C
:0E262300AF638009C3E49563FFE49562FE2275
:10129C00EF4E6012EF60010EEDBB010B89828A8369
:1012AC00F0A3DFFCDEFA2289F05007F709DFFCA976
:0C12BC00F022BBFEFCF309DFFCA9F022CD
:1012C800F8BB010DE58229F582E5833AF583E8F05C
:1012D800225006E92582C8F622BBFE05E92582C808
:0212E800F222F0
:102EC100EFC394094005EF940E4003BF2003D38064
:032ED10001C32218
:00000001FF
