:102DC200434C4F534544006E32313930653730330E
:102DD200332E696F6B2E6C610031393536350050F8
:042DE20044503A001F
:1000A600438E107F017E02122F5F7D017F017E024B
:1000B600122F1BE4F541F542F537F538E54A6401A0
:1000C6004549700D12211AE4F549F54AF54B754C70
:1000D600017F017E06122F03EF3395E0FEEF6406E3
:1000E6004E7041900032E0640970030203B890003C
:1000F60032E064CC60030206C67F017E02122F0343
:10010600900070EFF07F017E06122F03900071EFD2
:10011600F0FB900070E0FD7FCC1213CDE49000322E
:10012600F00206C6900032E064CC70237F017E02A6
:10013600122F03900070EFF07F017E06122F0390BE
:100146000071EFF0FB900070E0FD7FCC0203809021
:100156000032E064017024FFFE122ED1900071740B
:1001660004F07F017E06122F5F7D047F017E06125A
:100176002F1B7B047D017F11020380900032E06417
:10018600026003020218FFFEFDFCAB40AA3FA93E37
:10019600A83DD312131240177F017E00122ED19074
:1001A60000717401F0FF7E06122F5F7D018050E41E
:1001B600FFFEFDFCAB40AA3FA93EA83DC3121312A9
:1001C6007015FFFE122ED19000717401F0FF7E06AD
:1001D600122F5F7D028028E4FFFEFDFCAB40AA3FA4
:1001E600A93EA83DC3121312501CE4FFFE122ED1E5
:1001F6009000717402F07F017E06122F5F7D027FF0
:10020600017E06122F1B900071E0FB7D017F22020A
:100216000380900032E064056003020358122961EE
:10022600900082121336AF40AE3FAD3EAC3D90001B
:1002360086121336900082E0FCA3E0FDA3E0FEA345
:10024600E0FFA3E0F8A3E0F9A3E0FAA3E02FF5406E
:10025600EA3EF53FE93DF53EE83CF53DAF40AE3FB1
:10026600AD3EFC122F758F47AF40AE3FAD3EAC3D65
:10027600122F8A8F21AF40AE3FAD3EAC3D122F9F6D
:100286008F22AF40AE3FAD3EAC3D122EEA8F487F87
:10029600017E1C122F5FAD477F017E1C122F1BAD06
:1002A600217F027E1C122F1BAD227F037E1C122F84
:1002B6001BAD487F047E1C122F1BE4FFFEFDFCAB2A
:1002C60040AA3FA93EA83DD312131240177F017ED4
:1002D60000122ED19000717401F0FF7E06122F5F7E
:1002E6007D018050E4FFFEFDFCAB40AA3FA93EA87D
:1002F6003DC31213127015FFFE122ED190007174B9
:1003060001F0FF7E06122F5F7D028028E4FFFEFDCE
:10031600FCAB40AA3FA93EA83DC3121312501CE4F1
:10032600FFFE122ED19000717402F07F017E06123C
:100336002F5F7D027F017E06122F1B900071E0FB6E
:100346007D017F551213CDE4900033F0900034F018
:10035600802C900032E0640D702B7F017E02122FFC
:1003660003900070EFF07F017E06122F039000715C
:10037600EFF0FB900070E0FD7FDD1213CDE49000FE
:1003860032F00204BB900032E0640A701DFFFE12D8
:100396002ED112202D900070E0FD900071E0FB7FC1
:1003A600AA1213CDE4900032F022900032E06409E4
:1003B600701EFFFE122ED1122708900070E0FD90ED
:1003C6000071E0FB7F991213CD9000327408F02281
:1003D600900032E0640F60030204BBE5246401452B
:1003E600237033FFFE122ED1900071740CF07F0142
:1003F6007E06122F5F7D0C7F017E06122F1B90005A
:1004060071E0FB7D017FFF1213CDE4900032F0F521
:1004160023F5240204BBE524452360030204BBFF45
:10042600FEFDFCAB40AA3FA93EA83DD312131240E5
:10043600177F017E00122ED19000717401F0FF7EAD
:1004460006122F5F7D018050E4FFFEFDFCAB40AA43
:100456003FA93EA83DC31213127015FFFE122ED1FE
:100466009000717401F0FF7E06122F5F7D028028D6
:10047600E4FFFEFDFCAB40AA3FA93EA83DC3121314
:1004860012501CE4FFFE122ED19000717402F07F10
:10049600017E06122F5F7D027F017E06122F1B90C2
:1004A6000071E0FB7D017FFF1213CDE4900032F076
:1004B600F523752401E538640145376003020544D8
:1004C600FFFEFDFCAB40AA3FA93EA83DD312131286
:1004D60040109000717401F0FF7E06122F5F7D01BF
:1004E6008050E4FFFEFDFCAB40AA3FA93EA83DC3F9
:1004F6001213127015FFFE122ED19000717401F0C6
:10050600FF7E06122F5F7D028028E4FFFEFDFCAB16
:1005160040AA3FA93EA83DC3121312501CE4FFFE99
:10052600122ED19000717402F07F017E06122F5FA9
:100536007D027F017E06122F1BE4F537F538E54272
:100546006401454160030206C6FFFEFDFCAB40AAFE
:100556003FA93EA83DD312131240109000717401BA
:10056600F0FF7E06122F5F7D018061E4FFFEFDFC39
:10057600AB40AA3FA93EA83DC3121312701DFFFE51
:10058600122ED1E4F540F53FF53EF53D900071049D
:10059600F0FF7E06122F5F7D028031E4FFFEFDFC38
:1005A600AB40AA3FA93EA83DC31213125025E4FF53
:1005B600FE122ED1E4F540F53FF53EF53D90007173
:1005C6007402F07F017E06122F5F7D027F017E0698
:1005D600122F1BAF40AE3FAD3EAC3D122F758F477D
:1005E600AF40AE3FAD3EAC3D122F8A8F21AF40AE3D
:1005F6003FAD3EAC3D122F9F8F22AF40AE3FAD3E8A
:10060600AC3D122EEA8F487F017E1C122F5FAD474C
:100616007F017E1C122F1BAD217F027E1C122F1B19
:10062600AD227F037E1C122F1BAD487F047E1C1259
:100636002F1BAF32AE31AD30AC2F122F758F45AFB9
:1006460032AE31AD30AC2F122F8A8F51AF32AE3170
:10065600AD30AC2F122F9F8F52AF32AE31AD30ACD2
:100666002F122EEA8F467F017E20122F5FAD457F27
:10067600017E1C122F1BAD517F027E1C122F1BAD5B
:10068600527F037E1C122F1BAD467F047E1C122F49
:100696001BE4FFFEFDFCAB28AA27A926A825C3124A
:1006A6001312600F900070E0FD900071E0FB7F0672
:1006B6001213CDE4F528F527F526F525F541F54283
:1006C600756E00756F007570007BFF7A2D79C2120A
:1006D6002509EF64014E604D755F00756000756118
:1006E600007BFF7A2D79C21225B9EF64014E7002A4
:1006F6008033756E00756F007570007BFF7A2D79FB
:10070600E1122509EF64014E601B755F00756000FC
:100716007561007BFF7A2D79E11225B9EF64014EF0
:1007260060030200C2120026755FFF75602D7561B9
:10073600DB7BFF7A2D79C9121E10754B00754C01B3
:100746009000327408F07B017A0079001230697BE0
:08075600017A007936123069C6
:01075E002278
:102ED1008E558F56E556640145557003123040E515
:092EE100564555700312304E22D3
:052EB700E0FEA3E0FFB6
:102EBC00E4900094F0A3F0EEFF3395E0FE900094C4
:042ECC00F0A3EFF090
:012ED00022DF
:05000E00E0FEA3E0FF8D
:0F001300E4900094F0A3F0FE900094F0A3EFF0BF
:0100220022BB
:102F7500E490008AF0A3F0781812132390008AEEEB
:042F8500F0A3EFF0D6
:012F89002225
:102F8A00E490008AF0A3F0781012132390008AEEDE
:042F9A00F0A3EFF0C1
:012F9E002210
:102F9F00E490008AF0A3F0780812132390008AEED1
:042FAF00F0A3EFF0AC
:012FB30022FB
:082EEA008F588E578D568C5550
:102EF200E490008AF0A3F0E4FE90008AF0A3EFF0E1
:012F020022AC
:032E2E00FFE0FDC5
:102E3100E4900090F0A3F0EFFE7C00E42DFFEC3E67
:082E4100FE900090F0A3EFF0F9
:012E49002266
:0C27B1008E538F548C558D568A578B58D0
:1027BD0090008212134200000000AE53E5547818C9
:1027CD00C333CE33CED8F9FFEE3395E0FDFCC00414
:1027DD00C005C006C007AE55E5567810C333CE33DD
:1027ED00CED8F9FFEE3395E0FDFCD003D002D00139
:1027FD00D000EB2FFFEA3EFEE93DFDE83CFCA804CE
:10280D00A905AA06AB07E5587F00FE3395E0FDFC50
:10281D00EF2BFBEA3EFAE93DF9E83CF8AE59EE3311
:10282D0095E0FDFCEB255AFFEA3EFEE93DFDE83C57
:10283D00FC900082121336900082E0FCA3E0FDA311
:05284D00E0FEA3E0FF26
:012852002263
:101CAF0090005FE0FF90005EE02FFFE433FE9000B6
:101CBF0060E07C002FFFEC3EFE900061E02FFFEC18
:101CCF003EFE900070E02FFFEC3EFE900032E02FC2
:101CDF00FFEC3EFE900071E02FFFEC3EFE900062A5
:101CEF00E02FFFEC3EFE900063E02FFFEC3EFE90F6
:101CFF000033E02FFFEC3EFE900034E02FFFEC3E70
:101D0F00FE900035E02FFFEC3EFE90005AE02FFFD3
:101D1F00EC3EFE900072E02FFFEC3EFE900073E071
:101D2F002FFFEC3EFE900076E02FFFEC3EFE900082
:101D3F0077E02FFFEC3EFE900078E02FFFEC3EFEA9
:101D4F00900079E02FFFEC3EFE90007AE02FFFEC41
:101D5F003EFE90007BE02FFFEC3EFE900064E02FF4
:101D6F00FFEC3EFE900065E02FFFEC3EFE90005B27
:101D7F00E02FFFEC3EFE900066E02FFFEC3EFE9062
:101D8F000068E02FFFEC3EFE900067E02FFFEC3E77
:101D9F00FE90006AE02FFFEC3EFE900069E02FFFFF
:101DAF00EC3EFE90006CE02FFFEC3EFE90006BE0EF
:101DBF002FFFEC3EFE90006EE02FFFEC3EFE9000FA
:101DCF006DE02FFFEC3EFE90006FE02FFFEC3EFE2C
:101DDF0090008EF0A3EFF0122EBCEE8FF012120FC8
:101DEF0090008E12000EAB5FAA60A961EE8FF00219
:021DFF00120FC1
:102B40008F6E1230225010AF6EEF3395E0FEEF24FF
:102B5000D0FFEE34FFFE22AF6EEF3395E0FEC3EF01
:102B60009441EE648094804040D3EF9446EE6480BC
:102B70009480400AEF9461EE64809480402BD3EF00
:102B8000947AEE648094804002801EAF6E122E9C78
:102B90005017AF6E123031E56E500524C9FF800327
:0E2BA00024A9FFEF3395E0FE227EFF7FFF2287
:062207008B6B8A6C896DEF
:10220D00E4900084F0A3F0122FB4900082EEF0A3BE
:10221D00EFF0E490008AF0A3F00222C7900082E074
:10222D00FEA3E0FFC390008BE09FEE6480F890006A
:10223D008AE064809840030222D0AB6BAA6CA96D32
:10224D00E0FEA3E0F5828E831211D0FF122B409099
:10225D000086EEF0A3EFF090008AE0FEA3E0FFC34E
:10226D00900083E09FFF900082E09ECF24FFCF344B
:10227D00FFFEEF7802C333CE33CED8F9FF9000883E
:10228D00EEF0A3EFF0900086E0FEA3E0A807088033
:10229D0005C333CE33CED8F9FF900086EEF0A3EF11
:1022AD00F0900084E04EF0A3E04FF090008BE0043E
:1022BD00F0700690008AE004F0E4900086F0A3F040
:0B22CD00022229900084E0FEA3E0FF45
:0122D80022E3
:10296100E490008AF0A3F0A312134200000000904B
:102971000033E0900034122E2E90008AEEF0A3EF87
:10298100F0E4F553F554D390008BE0955490008A10
:10299100E09553403790008CE0F8A3E0F9A3E0FA0A
:1029A100A3E0FB900095E493FE740193FFE4FCFD2A
:1029B100EB2FFFEA3EFEED39FDEC38FC90008C1266
:1029C10013360554E55470BE055380BA90008CE06F
:0A29D100FCA3E0FDA3E0FEA3E0FF7D
:0129DB0022D9
:1029DC00E4900082F0A3F0A31213420000000090D8
:1029EC000062E0900063122E2E900082EEF0A3EFB6
:1029FC00F0E4F555F556D3900083E095569000829F
:102A0C00E095554037900084E0F8A3E0F9A3E0FA94
:102A1C00A3E0FB900097E493FE740193FFE4FCFDAC
:102A2C00EB2FFFEA3EFEED39FDEC38FC90008412F2
:102A3C0013360556E55670BE055580BA900084E0F5
:0A2A4C00FCA3E0FDA3E0FEA3E0FF01
:012A5600225D
:1022D900900097E493FE740193FBAA06E4F9F8AF22
:1022E90028AE27AD26AC2512126A90008EEEF0A317
:1022F900EFF0900070E064057005900097800B90F6
:102309000070E06401702190009593FE740193FBC5
:10231900AA06E4F9F8AF40AE3FAD3EAC3D12126AF1
:10232900900090EEF0A3EFF0900095E493FE740115
:1023390093FBAA06E4F9F8AF32AE31AD30AC2F12F7
:10234900126A900092EEF0A3EFF090008E122EB771
:10235900900062EFF090008E12000E900063EFF093
:10236900900090122EB7900072EFF090009012003A
:102379000E900073EFF0900092122EB7900078EF54
:0C238900F090009212000E900079EFF02E
:012395002225
:10202D007F017E00122F5FE4FD7F01FE122F1BE466
:10203D00FD7F02FE122F1BE4FD7F03FE122F1BE41A
:10204D00FD7F04FE122F1B7F017E02122F5F7D0587
:10205D007F017E02122F1B9000707405F0E490003A
:10206D0032F07F017E06122F5FE4FD7F017E0612A6
:10207D002F1BE4900071F0900062F0900063F090DF
:10208D000033F0900034F0900035F090005AF0904D
:10209D000072F0900073F0900076F0900077F09061
:1020AD000078F0900079F090007AF090007BF0903D
:1020BD000064F0900065F07F017E1C122F5FE4FD3F
:1020CD007F017E1C122F1BE4FD7F027E1C122F1B35
:1020DD00E4FD7F037E1C122F1BE4FD7F047E1C128A
:1020ED002F1B7F017E20122F5FE4FD7F017E2012CA
:1020FD002F1BE4FD7F027E20122F1BE4FD7F037E4C
:0D210D0020122F1BE4FD7F047E20022F1BFB
:10270800E4900032F07F017E02122F5F900070E0AB
:10271800FD7F017E02122F1B7F017E06122F5F9024
:102728000071E0FD7F017E06122F1B900072E0FF12
:10273800900073E0FD122E31900095E493FC740133
:1027480093FD1211FDE48F408E3FF53EF53DAD3E01
:10275800AC3D122F758F47AF40AE3FAD3EAC3D123A
:102768002F8A8F21AF40AE3FAD3EAC3D122F9F8FD9
:1027780022AF40AE3FAD3EAC3D122EEA8F487F01FE
:102788007E1C122F5FAD477F017E1C122F1BAD21CF
:102798007F027E1C122F1BAD227F037E1C122F1B73
:0927A800AD487F047E1C022F1BCA
:102DE600434C4F534544006E3231393065373033EA
:102DF600332E696F6B2E6C610031393536350050D4
:042E060044503A00FA
:100CA300E4F553F554FFFE122ED17F017E02122F7D
:100CB3005F7D057F017E02122F1B538EEF53D1F709
:100CC300E54A64014549700D12211AE4F549F54AD4
:100CD300F54B754C017F017E06122F03EF3395E030
:100CE300FEEF64064E7018900032E0640970030250
:100CF3000D8C900032E064CC600302100B800890EE
:100D03000032E064CC70237F017E02122F03900037
:100D130070EFF07F017E06122F03900071EFF0FB5E
:100D2300900070E0FD7FCC021003900032E064017C
:100D33007024FFFE122ED19000717404F07F017EA7
:100D430006122F5F7D047F017E06122F1B7B047D1D
:100D5300057F11021003900032E064027023FFFE4E
:100D6300122ED19000717401F0FF7E06122F5F7D69
:100D7300017F017E06122F1B7B017D057F2202105E
:100D830003900032E06409701EFFFE122ED1122779
:100D930008900070E0FD900071E0FB7F991213CD85
:100DA3009000327408F022900032E0640A701AFF57
:100DB300FE122ED112202D900070E0FDE4FB7FAADD
:100DC3001213CDE4900032F022900032E0640D70F3
:100DD300237F017E02122F03900070EFF07F017ECC
:100DE30006122F03900071EFF0FB900070E0FD7F7F
:100DF300DD021003900032E0640F7056FFFE122EE6
:100E0300D1E52464014523701D900071740CF07FBB
:100E1300017E06122F5F7D0C7F017E06122F1BE4DD
:100E2300F523F5248020E5244523701A90007104EE
:100E3300F0FF7E06122F5F7D017F017E06122F1BBE
:100E4300752300752401900071E0FB7D057FFF028F
:100E53001003900032E064816003020FF59000718B
:100E630004F0FF7E06122F5F7D017F017E06122FA5
:100E73001B1229DC8F408E3F8D3E8C3D7F017E000F
:100E8300122ED1E4F528F527F526F5257B017D05FE
:100E93007F911213CDE4F53BF53CF52DF52E020FB2
:100EA3006F900032E064827011FFFE122ED17B013D
:100EB3007D057F921213CD020F75900032E064CC52
:100EC30070287F017E02122F03900070EFF07F01E4
:100ED3007E06122F03900071EFF0FB900070E0FD8F
:100EE3007FCC1213CDE4900032F0E4FFFEFDFCABA7
:100EF30040AA3FA93EA83DD31213125015E4FFFEAA
:100F0300122ED1755300755401E4F540F53FF53EBB
:100F1300F53DE542640145417087F541F542FFFE29
:100F2300FDFCAB40AA3FA93EA83DD31213125009C2
:100F3300E4F540F53FF53EF53DE4FFFEFDFCAB284F
:100F4300AA27A926A825C312131260097B017D05D0
:100F53007F061213CDE4F528F527F526F525E5548C
:100F6300640145537006F553F554800643D10802D6
:100F73000EA4538EEF43D108AF32AE31AD30AC2F58
:100F8300122F758F45AF32AE31AD30AC2F122F8A91
:100F93008F51AF32AE31AD30AC2F122F9F8F52AF86
:100FA30032AE31AD30AC2F122EEA8F467F017E2058
:100FB300122F5FAD457F017E1C122F1BAD517F02A7
:100FC3007E1C122F1BAD527F037E1C122F1BAD46BE
:100FD3007F047E1C122F1BE4F528F527F526F52543
:100FE300F540F53FF53EF53D900062F0900063F06B
:100FF3008012900032E06482700E7B017D057F9247
:101003001213CDE4900032F0756E00756F007570A9
:10101300007BFF7A2D79E6122509EF64014E604DBE
:10102300755F007560007561007BFF7A2D79E612AC
:1010330025B9EF64014E70028033756E00756F0041
:101043007570007BFF7A2E7905122509EF64014E36
:10105300601B755F007560007561007BFF7A2E79F8
:10106300051225B9EF64014E6003020CC31200267A
:10107300755FFF75602D7561FF7BFF7A2D79ED122A
:101083001E107F017E02122F037F017E06122F03A3
:10109300900070E0FD900071E0FBE4FF1213CD754A
:1010A3004B00754C019000327408F07B017A007993
:0D10B300001230697B017A00793612306935
:0110C000220D
:101F260041540A004F4B0041542B4350494E3F0D3C
:101F36000A002B4350494E3A0041542B4352454721
:101F46003F0D0A002B435245473A0041542B434963
:101F5600505153454E443D300D0A0041542B4349E0
:101F66005053544152543D00544350000D0A00430F
:101F76004F4E4E454354204F4B00414C5245414431
:101F86005920434F4E4E45435400434F4E4E454312
:101F960054204641494C0041542B4349505348551F
:101FA600540D0A0053485554204F4B0041542B43BF
:101FB600495053454E443D33360D0A003E004552C6
:101FC600524F52006E3231393065373033332E6915
:101FD6006F6B2E6C610031393536350041542B4319
:101FE600495053454E443D340D0A0041542B43534A
:101FF600510D0A002B4353513A200041542B4943BB
:102006004349440D0A002B49434349443A20000002
:1020160000000000000000000000000000000000BA
:0720260000000000000000B3
:0F24FA00756E00756F007570007BFF7A1F792A71
:102509008B6B8A6C896DAC02AD01ED4C700AE5707C
:10251900456F7004FE7F0122ED4C6044E570456F04
:10252900603E856B74856C75856D767B017A007963
:10253900001228DFEA494B601D856E74856F758529
:1025490070767B017A0079001228DFEA494B600630
:102559007E007F0180047E007F00EF4E603F80385F
:10256900E56D456C601B856B74856C75856D767B37
:10257900017A0079001228DFE94A4B60028019804C
:102589001C856E74856F758570767B017A0079007C
:102599001228DFE94A4B60057E007F0122E4FEFF35
:0125A900220F
:0F25AA00755F007560007561007BFF7A1F79C453
:1025B9008B5C8A5D895EAC02AD01ED4C700AE56108
:1025C90045607004FE7F0122ED4C6044E561456081
:1025D900603E855C74855D75855E767B017A0079E0
:1025E900361228DFEA494B601D855F748560758561
:1025F90061767B017A0079361228DFEA494B600659
:102609007E007F0180047E007F00EF4E603F8038AE
:10261900E55E455D601B855C74855D75855E767BD1
:10262900017A0079361228DFE94A4B600280198065
:102639001C855F748560758561767B017A007936C2
:102649001228DFE94A4B60057E007F0122E4FEFF84
:01265900225E
:102F3300122E66C2B57F017E00122E817FC87E00ED
:062F4300122F49D2B52255
:1024490080071224FAEF4E70317B017A007900126D
:1024590030697BFF7A1F7926122D9D7FF47E011248
:102469002F4980DE756EFF756F1F75702A7BFF7AA5
:102479001F7938122509EF4E70317B017A007900F6
:102489001230697BFF7A1F792D122D9D7FF47E0111
:10249900122F4980CF756E00756F007570007BFF34
:1024A9007A1F794A122509EF4E70227B017A007949
:1024B900001230697BFF7A1F793F122D9D7FF47ED0
:1024C90001122F4980CF1224FAEF4E701B7B017A3B
:1024D9000079001230697BFF7A1F7951122D9D7F97
:1024E900F47E01122F4980DE7B017A0079000230E7
:0124F9006979
:0F1E0100755FFF75601F7561DC7BFF7A1F79CA03
:101E10008B5C8A5D895E7BFF7A1F7961122D9D7FC5
:101E2000221200037BFF7A1F796E122D9D7F2212F2
:101E300000037F2C1200037F22120003AB5CAA5D1B
:101E4000A95E122D9D7F221200037F2C1200037FBA
:101E500022120003AB5FAA60A961122D9D7F22129E
:101E600000037BFF7A1F7972122D9D7F887E1312EB
:101E70002F49756E00756F007570007BFF7A1F79B2
:101E800075122509EF64014E70028018756E007599
:101E90006F007570007BFF7A1F7980122509EF644F
:101EA000014E70097B017A007900023069756E007D
:101EB000756F007570007BFF7A1F7990122509EF0E
:101EC00064014E70AD7B017A0079001230697BFFAE
:101ED0007A1F7961122D9D7F221200037BFF7A1FEA
:101EE000796E122D9D7F221200037F2C1200037F3A
:101EF00022120003AB5CAA5DA95E122D9D7F221207
:101F000000037F2C1200037F22120003AB5FAA6044
:101F1000A961122D9D7F221200037BFF7A1F797227
:061F2000122D9D021E724D
:100026008016756E00756F007570007BFF7A1F79FC
:10003600AA122509EF4E701B7B017A007936123021
:10004600697BFF7A1F799D122D9D7F887E13122F63
:0C0056004980CF7B017A007936023069C6
:0C13C100900070E0FD900071E0FBE4FF84
:0613CD008F578D588B596B
:1013D300E4F55AF55B7B017A007900123069E4F594
:1013E3004BF54C122BAE7BFF7A1F79B2122D9D75F4
:1013F3006E00756F007570007BFF7A1F79C212252E
:1014030009EF64014E604D756E00756F00757000D5
:101413007BFF7A1F79C4122509EF64014E6009121C
:1014230025AAEF64014E70C7120026121E017F0128
:101433007E02122F037F017E06122F031213C17B3C
:10144300017A0079001230697B017A007936123013
:10145300690213F27B017A0079001230697B017A09
:101463000079361230697F017E00122F0390005EEF
:10147300EFF07F027E00122F0390005FEFF07F03F7
:101483007E00122F03900060EFF07F047E00122F86
:1014930003900061EFF0900032E557F0900070E5A3
:1014A30058F0900071E559F01222D97F017E1A128B
:1014B3002F03900066EFF07F027E1A122F03900035
:1014C30068EFF07F037E1A122F03900067EFF07F1F
:1014D300047E1A122F0390006AEFF07F057E1A1222
:1014E3002F03900069EFF07F067E1A122F039000FE
:1014F3006CEFF07F077E1A122F0390006BEFF07FE3
:10150300087E1A122F0390006EEFF07F097E1A12E5
:101513002F0390006DEFF07F0A7E1A122F039000C5
:101523006FEFF0755F0175600075618C7B017A0068
:10153300798A121CAF90008AA3E090005CF09000BF
:101543008CA3E090005DF090005EE0FF120003903A
:10155300005FE0FF120003900060E0FF12000390C1
:101563000061E0FF120003900070E0FF120003909F
:101573000032E0FF120003900071E0FF12000390BD
:101583000062E0FF120003900063E0FF120003908B
:101593000033E0FF120003900034E0FF12000390D9
:1015A3000035E0FF12000390005AE0FF12000390A1
:1015B3000072E0FF120003900073E0FF120003903B
:1015C3000076E0FF120003900077E0FF1200039023
:1015D3000078E0FF120003900079E0FF120003900F
:1015E300007AE0FF12000390007BE0FF12000390FB
:1015F3000064E0FF120003900065E0FF1200039017
:10160300005BE0FF120003900066E0FF120003900E
:101613000068E0FF120003900067E0FF12000390F0
:10162300006AE0FF120003900069E0FF12000390DC
:10163300006CE0FF12000390006BE0FF12000390C8
:10164300006EE0FF12000390006DE0FF12000390B4
:10165300006FE0FF12000390005CE0FF12000390B4
:10166300005DE0FF120003E4900032F01224FAEF71
:0A16730064014E70F7F54B754C0151
:01167D00224A
:10211A00E4F555F5567B017A007900123069E4F549
:10212A004BF54C7F01FE122F0390005EEFF07F0209
:10213A007E00122F0390005FEFF07F037E00122FC4
:10214A0003900060EFF07F047E00122F039000617D
:10215A00EFF07BFF7A1F79E2122D9D756E00756F85
:10216A00007570007BFF7A1F79C2122509EF64019E
:10217A004E6052756E00756F007570007BFF7A1F96
:10218A0079C4122509EF64014E60091225AAEF6489
:10219A00014E70C7120026121E017F017E02122F05
:1021AA00037F017E06122F031213C1E4900032F05E
:1021BA007B017A0079001230697B017A0079361244
:1021CA0030690221657B017A00790012306990003A
:1021DA005EE0FF12000390005FE0FF120003900030
:1021EA0060E0FF120003900061E0FF120003122476
:0C21FA00FAEF64014E70F7F54B754C01D4
:0122060022B5
:102BAE008016756E00756F007570007BFF7A1F7949
:102BBE00FA122509EF4E701B7B017A007900123054
:102BCE00697BFF7A1F79F1122D9D7FF47E01122F02
:102BDE004980CF7B017A0079007D20122E4A8B6EC0
:102BEE008A6F89707B007A00795C7571007572034B
:102BFE00122D4B12265A90005BEFF07F017E1812B9
:0E2C0E002F5F90005BE0FD7F017E18022F1B00
:1019050078537C007D007BFF7A2079157E007F155A
:1019150012119178687C007D007BFF7A20792A7E00
:10192500007F031211918016756E00756F0075703A
:10193500007BFF7A20790C122509EF4E701B7B0185
:101945007A0079001230697BFF7A207901122D9D8A
:101955007FF47E01122F4980CF7B017A0079007DCB
:1019650020122E4AE92401F9E43A8B6EF56F89704D
:101975007B007A007953757100757214122D4B75C1
:101985006E00756F007570537571007572027B007E
:101995007A007968122D4B7B007A0079681222074C
:1019A500900066EFF07F017E1A122F5F900066E0CF
:1019B500FD7F017E1A122F1B756E00756F00757005
:1019C500557571007572027B007A007968122D4B8E
:1019D5007B007A007968122207900068EFF0FD7F9E
:1019E500027E1A122F1B756E00756F007570577584
:1019F50071007572027B007A007968122D4B7B00AD
:101A05007A007968122207900067EFF0FD7F037E68
:101A15001A122F1B756E00756F0075705975710060
:101A25007572027B007A007968122D4B7B007A0073
:101A3500796812220790006AEFF0FD7F047E1A1282
:101A45002F1B756E00756F0075705B757100757273
:101A5500027B007A007968122D4B7B007A00796849
:101A6500122207900069EFF0FD7F057E1A122F1BE9
:101A7500756E00756F0075705D7571007572027B0E
:101A8500007A007968122D4B7B007A007968122262
:101A95000790006CEFF0FD7F067E1A122F1B756E06
:101AA50000756F0075705F7571007572027B007A45
:101AB500007968122D4B7B007A0079681222079015
:101AC500006BEFF0FD7F077E1A122F1B756E0075F8
:101AD5006F007570617571007572027B007A00790F
:101AE50068122D4B7B007A00796812220790006EF0
:101AF500EFF0FD7F087E1A122F1B756E00756F00C3
:101B05007570637571007572027B007A00796812D1
:101B15002D4B7B007A00796812220790006DEFF05B
:101B2500FD7F097E1A122F1B756E00756F0075708B
:101B3500657571007572027B007A007968122D4B0C
:101B45007B007A00796812220790006FEFF0FD7F25
:061B55000A7E1A022F1B9C
:102E6600759850758E40538EFEE4F589758BCC753A
:0B2E76008DFFC2ABD28ED2AFD2AC22D7
:080003008F993099FDC299228A
:102D9D008B6B8A6C896DAB6BAA6CA96D1211B760C8
:102DAD0013056DE56D7002056C14F91211B7FF1264
:052DBD00000380E2228A
:102C1C007E007F00E490007CF0A3F0A3F08F828E06
:102C2C0083E599F0E490007DF0A3F0C29890007CCD
:102C3C00E0FD3395E0FCC3ED9432EC64809480505D
:102C4C0032E004F00FBF00010E2098D1C2C89000F2
:102C5C007EE004F0700690007DE004F0D390007EDE
:102C6C00E094C890007DE06480948040DCD2C8E49D
:092C7C00FEFF22D2C87E007F0198
:012C8500222C
:102C86007E007F36E490007CF0A3F0A3F08F828E66
:102C960083E599F0E490007DF0A3F0C29890007C63
:102CA600E0FD3395E0FCC3ED9423EC648094805002
:102CB60032E004F00FBF00010E2098D1C2C9900087
:102CC6007EE004F0700690007DE004F0D390007E74
:102CD600E094C890007DE06480948040DCD2C9E432
:092CE600FEFF22D2C97E007F012D
:012CEF0022C2
:10167E00900036E090005EF0900037E090005FF052
:10168E00900038E0900060F0900039E0900061F03A
:10169E0090003AE0900070F090003BE0900032F045
:1016AE0090003CE0900071F090003DE0900062F000
:1016BE0090003EE0900063F090003FE0900033F029
:1016CE00900040E0900034F0900041E0900035F042
:1016DE00900042E090005AF0900043E0900072F0CB
:1016EE00900044E0900073F0900045E0900076F09A
:1016FE00900046E0900077F0900047E0900078F080
:10170E00900048E0900079F0900049E090007AF067
:10171E0090004AE090007BF090004BE0900064F067
:10172E0090004CE0900065F090004DE090005BF072
:10173E0090004EE0900066F090004FE0900068F050
:10174E00900050E0900067F0900051E090006AF039
:10175E00900052E0900069F0900053E090006CF021
:10176E00900054E090006BF0900055E090006EF009
:10177E00900056E090006DF0900057E090006FF0F2
:10178E00900058E090005CF0900059E090005DF001
:10179E007B017A00793612306990005FE0FF90008D
:1017AE005EE02FFFE433FE900060E07C002FFFEC44
:1017BE003EFE900061E02FFFEC3EFE900070E02FA9
:1017CE00FFEC3EFE900032E02FFFEC3EFE900071EB
:1017DE00E02FFFEC3EFE900062E02FFFEC3EFE900D
:1017EE000063E02FFFEC3EFE900033E02FFFEC3E57
:1017FE00FE900034E02FFFEC3EFE900035E02FFF10
:10180E00EC3EFE90005AE02FFFEC3EFE900072E0A0
:10181E002FFFEC3EFE900073E02FFFEC3EFE90009B
:10182E0076E02FFFEC3EFE900077E02FFFEC3EFEC1
:10183E00900078E02FFFEC3EFE900079E02FFFEC59
:10184E003EFE90007AE02FFFEC3EFE90007BE02FF4
:10185E00FFEC3EFE900064E02FFFEC3EFE90006534
:10186E00E02FFFEC3EFE90005BE02FFFEC3EFE9083
:10187E000066E02FFFEC3EFE900068E02FFFEC3E8E
:10188E00FE900067E02FFFEC3EFE90006AE02FFF17
:10189E00EC3EFE900069E02FFFEC3EFE90006CE007
:1018AE002FFFEC3EFE90006BE02FFFEC3EFE900013
:1018BE006EE02FFFEC3EFE90006DE02FFFEC3EFE43
:1018CE0090006FE02FFFEC3E90007CF0A3EFF090C5
:1018DE00007CE0FE3395E090007EF0A3CEF07E001B
:1018EE00A3EEF0A3EFF090005DE06F7001EC6006E8
:0618FE0090003274CCF0F2
:0119040022C0
:093069007E007F247D0002137338
:0300230002006672
:10006600C0E0C0F0C083C082C0D075D008E54C6443
:1000760001454B700C122C86EF4E600812167E80DE
:0F00860003122C1CD0D0D082D083D0F0D0E03227
:102E8100EF1FAC0670011E4C601000007D7A7CC102
:0A2E91007B80DBFEDCFCDDFA80E64E
:012E9B002214
:102F4900EF1FAC0670011E4C600B007D207C28DC55
:052F5900FEDDFC80EB31
:012F5E002250
:07307200E4F595759630228C
:0E304000C2A4D2A57F147E00122F49C2A52281
:0E304E00D2A4C2A57F147E00122F49C2A42274
:10301200758904758AFF758CFFD28CD2A9D2AF2232
:102FDC00438E0475D74075D6A2538EEF43AF04D2FF
:022FEC00AF2212
:102FEE0043D10275D54075D4A253D1F743AF20D249
:022FFE00AF2200
:1030000043D12075D34075D2A243D18043AF40D283
:02301000AF22ED
:03000B00022A576F
:102A5700C0E0C0F0C083C082C0D075D008E528248C
:102A670001F528E43527F527E43526F526E435254D
:102A7700F525E54024FFF540E53F34FFF53FE53E0A
:102A870034FFF53EE53D34FFF53DE5322401F532EF
:102A9700E43531F531E43530F530E4352FF52FE401
:102AA700FFFEFDFCAB40AA3FA93EA83DC31213128F
:102AB7007008F540F53FF53EF53DD0D0D082D08384
:052AC700D0F0D0E03268
:03006300022ACCA2
:102ACC00C0E0C0F0C083C082C0D075D008E52C45F2
:102ADC002B700685272985282A052CE52C700205E4
:102AEC002BB4D042E52BB4073D752B00752C00AEF2
:102AFC0029AF2AAB0FAA0EEA3395E0F9F8C3E52803
:102B0C009BFFE5279AFEE52699FDE52598FCE47BDD
:102B1C0005FAF9F8D3121312500C753700753801F9
:102B2C00538EEF43D10853EFFED0D0D082D083D058
:042B3C00F0D0E032C3
:03009B00022396A7
:10239600C0E0C0F0C083C082C0D075D008E53C451F
:1023A6003B700685273985283A053CE53C700205D1
:1023B6003BE52EB4B82FE52DB40B2A753B00753CD2
:1023C60000752D00752E0075410075420153D1F739
:1023D6007F017E02122F03EF3395E0FEEF64014E7C
:1023E6007003438E10E53C6464453B7048F53BF54D
:1023F6003CAE39AF3AAB0FAA0EEA3395E0F9F8C313
:10240600E5289BFFE5279AFEE52699FDE52598FC3C
:10241600E47B05FAF9F8C3121312400D7464252EF5
:10242600F52EE4352DF52D8006752D00752E0085CB
:10243600273985283A53EFFDD0D0D082D083D0F00B
:03244600D0E032B1
:0300A300022CF03C
:102CF000C0E0C0F0C083C082C0D075D008E4FAF94B
:102D0000F8E5362401F536EA3535F535E93534F59B
:102D100034E83533F5337F407E7E7D057C00AB366D
:102D2000AA35A934F8C31212FC7012F54D754E0184
:102D3000F549754A01F536F535F534F53353EFFBB2
:0B2D4000D0D0D082D083D0F0D0E032A1
:0D305C00E4F5C7F5C5F5C675C380F5C422BF
:102F030075C78175C5018FC4EEFF8FC375C65A752A
:082F1300C6A500AFC202305C4C
:102F1B0075C78175C5028FC4EEFF8FC38DC275C691
:082F2B005A75C6A50002305CD6
:102F5F0075C78175C5038FC4EEFF8FC375C65A75CC
:062F6F00C6A50002305C63
:0300000002285380
:0C285300787FE4F6D8FD75817C02289A9D
:102E0A006E3231393065373033332E696F6B2E6C41
:102E1A006100313935363500434C4F534544005033
:042E2A0044503A00D6
:10075F00C2C9122F337F057E00122E81D2C91230EB
:10076F0072123012122FDC122FEE1230007F017E28
:10077F001E122F03EF3395E0F54F8F504550701E2B
:10078F000550E5507002054F7F017E1E122F5FADA1
:10079F00507F017E1E122F1B12202D020843055081
:1007AF00E5507002054F7F017E1E122F5FAD507F07
:1007BF00017E1E122F1B7F017E02122F03900070ED
:1007CF00EFF07F017E06122F03900071EFF07F0193
:1007DF007E1C122F038F477F027E1C122F038F2147
:1007EF007F037E1C122F038F227F047E1C122F0388
:1007FF008F48AF477E00AD217C00AB227A00E548E1
:10080F00755900F55A1227B18F408E3F8D3E8C3DA2
:10081F007F017E20122F038F457F027E20122F0330
:10082F008F517F037E20122F038F527F047E201261
:10083F002F038F46C2C87FF47E01122F49D2C812F0
:10084F002449121905120026755FFF75602E756118
:10085F001C7BFF7A2E790A121E107F017E00122F49
:10086F000390005EEFF07F027E00122F0390005F77
:10087F00EFF07F037E00122F03900060EFF07F04F4
:10088F007E00122F03900061EFF090005EE0600396
:10089F00020AA090005FE06003020AA0900060E0EF
:1008AF006003020AA0900061E06003020AA09000BA
:1008BF00717406F07F01FE122F5F7D067F017E06A9
:1008CF00122F1B020A8E900032E0640470667F01C3
:1008DF007E02122F03900070EFF07F017E06122F21
:1008EF0003900071EFF07F017E00122F5F90005E8A
:1008FF00E0FD7F017E00122F1B90005FE0FD7F0265
:10090F007E00122F1B900060E0FD7F037E00122FF0
:10091F001B900061E0FD7F047E00122F1B90007082
:10092F00E0FD900071E0FB7F441213CDE4900032A4
:10093F00F0020B6B900032E064CC70287F017E02D6
:10094F00122F03900070EFF07F017E06122F03909D
:10095F000071EFF0FB900070E0FD7FCC1213CDE43F
:10096F00900032F0756E00756F007570007BFF7A26
:10097F002E7922122509EF64014E6018755F0075FC
:10098F0060007561007BFF7A2E79221225B9EF6422
:10099F00014E7056120026755FFF75602E75611C33
:1009AF007BFF7A2E790A121E109000717406F07F69
:1009BF0001FE122F5F7D067F017E06122F1B900016
:1009CF0070E0FD900071E0FB7F041213CD754B00BA
:1009DF00754C01E4900032F07B017A0079001230FF
:1009EF00697B017A007936123069756E00756F0078
:1009FF007570007BFF7A2E7929122509EF64014E5D
:100A0F006018755F007560007561007BFF7A2E7945
:100A1F00291225B9EF64014E7056120026755FFF3B
:100A2F0075602E75611C7BFF7A2E790A121E10904D
:100A3F0000717406F07F01FE122F5F7D067F017E2D
:100A4F0006122F1B900070E0FD900071E0FB7F04F9
:100A5F001213CD754B00754C01E4900032F07B0101
:100A6F007A0079001230697B017A00793612306989
:100A7F00E54E6401454D60030208D5F54DF54E90E6
:100A8F000070E0FD900071E0FB7F041213CD0208AF
:100A9F00D5900032E064086012900070E0FD900085
:100AAF0071E0FBE4FF1213CD020B6B756E00756FD7
:100ABF00007570007BFF7A2E7922122509EF6401F1
:100ACF004E6018755F007560007561007BFF7A2EB0
:100ADF0079221225B9EF64014E704F120026755F0F
:100AEF00FF75602E75611C7BFF7A2E790A121E101E
:100AFF007F017E02122F037F017E06122F039000CB
:100B0F0070E0FD900071E0FBE4FF1213CD754B0018
:100B1F00754C01E4900032F07B017A0079001230BD
:100B2F00697B017A007936123069756E00756F0036
:100B3F007570007BFF7A2E7929122509EF64014E1B
:100B4F00607B755F007560007561007BFF7A2E79A1
:100B5F00291225B9EF64014E70028061E4900032D2
:100B6F00F07F017E02122F03EF3395E0FEEF640555
:100B7F004E7005120CA380157F017E02122F03EF1A
:100B8F003395E0FEEF64014E70031200A6756E0000
:100B9F00756F007570007BFF7A2E7922122509EF91
:100BAF0064014E6018755F007560007561007BFF12
:100BBF007A2E79221225B9EF64014E705212002657
:100BCF00755FFF75602E75611C7BFF7A2E790A1297
:100BDF001E107F017E02122F037F017E06122F034C
:100BEF00900070E0FD900071E0FBE4FF1213CD75F3
:100BFF004B00754C01E4900032F07B017A007900D4
:100C0F001230697B017A007936123069020B6B75ED
:100C1F006E00756F007570007BFF7A2E7929122593
:100C2F0009EF64014E601B755F0075600075610010
:100C3F007BFF7A2E79291225B9EF64014E600302EA
:100C4F000869120026755FFF75602E75611C7BFFAA
:100C5F007A2E790A121E107F017E02122F037F0156
:100C6F007E06122F03900070E0FD900071E0FBE410
:100C7F00FF1213CD754B00754C01E4900032F07BE1
:100C8F00017A0079001230697B017A0079361230CF
:040C9F0069020B6B70
:040095000564000EF0
:101B5B0041005E0041005F004100600041006100F8
:101B6B0041007005410032004100710041006200EC
:101B7B004100630041003300410034004100350057
:101B8B0041005A0041007200410073004100760091
:101B9B0041007700410078004100790041007A0054
:101BAB0041007B00410064004100650041005B0087
:101BBB0041006600410068004100670041006A0077
:101BCB004100690041006C0041006B0041006E0058
:101BDB0041006D0041006F0041005C0041005D0061
:101BEB00023700000241000002490000024D0000D4
:101BFB00420074000060240036000000000000006A
:101C0B0000000000000000000000000000000000C9
:101C1B000000000000000000000000000060320027
:101C2B0000000000000000000000000000000000A9
:101C3B000000000000000000000000000000000099
:101C4B000000000000000000000000000000000089
:101C5B00000000043D0000000001470001210001CD
:101C6B002200014800042500000000042F000000A2
:101C7B000001450001510001520001460002230002
:101C8B0001043300000000022B0000023B000002A5
:101C9B002D00000229000002390000024F00000253
:031CAB004B0000EB
:10285F0002075FE493A3F8E493A34003F68001F229
:10286F0008DFF48029E493A3F85407240CC8C3337A
:10287F00C4540F4420C8834004F456800146F6DF49
:10288F00E4800B0102040810204080901B5BE47E63
:10289F00019360BCA3FF543F30E509541FFEE4933E
:1028AF00A360010ECF54C025E060A840B8E493A305
:1028BF00FAE493A3F8E493A3C8C582C8CAC583CA30
:1028CF00F0A3C8C582C8CAC583CADFE9DEE780BEE8
:011CAE000035
:1010C100E709F608DFFA8046E709F208DFFA803E11
:1010D10088828C83E709F0A3DFFA8032E309F608FE
:1010E100DFFA8078E309F208DFFA807088828C8366
:1010F100E309F0A3DFFA806489828A83E0A3F6081A
:10110100DFFA805889828A83E0A3F208DFFA804CF3
:1011110080D280FA80C680D4806980F280338010CA
:1011210080A680EA809A80A880DA80E280CA803333
:1011310089828A83ECFAE493A3C8C582C8CCC583AB
:10114100CCF0A3C8C582C8CCC583CCDFE9DEE7807B
:101151000D89828A83E493A3F608DFF9ECFAA9F0FA
:10116100EDFB2289828A83ECFAE0A3C8C582C8CC50
:10117100C583CCF0A3C8C582C8CCC583CCDFEADE69
:10118100E880DB89828A83E493A3F208DFF980CCCB
:1011910088F0EF60010E4E60C388F0ED2402B404C4
:1011A1000050B9F582EB2402B4040050AF2323456B
:0611B1008223901111736E
:1011B700BB010689828A83E0225002E722BBFE0236
:0911C700E32289828A83E4932269
:1011D000BB010CE58229F582E5833AF583E02250D4
:1011E00006E92582F8E622BBFE06E92582F8E2221E
:0D11F000E58229F582E5833AF583E4932238
:1011FD00EF8DF0A4A8F0CF8CF0A428CE8DF0A42E06
:02120D00FE22BF
:10120F00BB010A89828A83F0E5F0A3F0225006F72A
:0F121F0009A7F01922BBFE06F3E5F009F3192227
:10122E0075F008758200EF2FFFEE33FECD33CDCC77
:10123E0033CCC58233C5829BED9AEC99E5829840FA
:10124E000CF582EE9BFEED9AFDEC99FC0FD5F0D6D7
:10125E00E4CEFBE4CDFAE4CCF9A88222B800C1B901
:10126E000059BA002DEC8BF084CFCECDFCE5F0CB3F
:10127E00F97818EF2FFFEE33FEED33FDEC33FCEB78
:10128E0033FB10D703994004EB99FB0FD8E5E4F933
:10129E00FA227818EF2FFFEE33FEED33FDEC33FC20
:1012AE00C933C910D7059BE99A4007EC9BFCE99A14
:1012BE00F90FD8E0E4C9FAE4CCFB2275F010EF2F59
:1012CE00FFEE33FEED33FDCC33CCC833C810D70759
:1012DE009BEC9AE899400AED9BFDEC9AFCE899F894
:0E12EE000FD5F0DAE4CDFBE4CCFAE4C8F92227
:1012FC00EB9FF5F0EA9E42F0E99D42F0EC6480C869
:06130C0064809845F02208
:10131200EB9FF5F0EA9E42F0E99D42F0E89C45F031
:0113220022A8
:10132300E8600FECC313FCED13FDEE13FEEF13FFA8
:03133300D8F122CC
:0C133600ECF0A3EDF0A3EEF0A3EFF0222A
:10134200A8828583F0D083D08212135912135912C6
:101352001359121359E473E493A3C583C5F0C583EB
:10136200C8C582C8F0A3C583C5F0C583C8C582C8F5
:011372002258
:102E9C00EFC394414005EF945B400BEFC39461404A
:0B2EAC0008EF947B5003D38001C32289
:0F302200EFC394304007EF943A50028001C3226D
:0F303100EFC394414007EF945B50028001C3222C
:102D4B008B6B8A6C896DE4F573F574E5721572AE55
:102D5B0071700215714E6033AB6EAA6FA9701211B0
:102D6B00B7FFAB6BAA6CA96D0574E574AC737002FD
:102D7B00057314F5828C83EF12139FEF60CD7401F2
:102D8B002570F570E4356FF56F80C0AB6BAA6CA93D
:022D9B006D22A7
:102FB400E4FFFE1211B7600C0FEF70010E09E97007
:052FC400F20A80EF227B
:102E4A00E94A4B7001221211B7FF6D700122EF702F
:0C2E5A0004FBFAF92209E970ED0A80EA95
:1028DF008B718A728973AB74AA75A9761211B7605E
:1028EF0063AB71AA72A9731211B7605F8574778594
:1028FF0075788576798B7A8A7B897CAB77AA78A96C
:10290F00791211B7FF6023AB7AAA7BA97C1211B79A
:10291F006F7017042579F579E43578F5787401250A
:10292F007CF57CE4357BF57B80D1AB77AA78A979F0
:10293F001211B77002800D74012573F573E43572AF
:10294F00F572809DAB71AA72A973227B007A007910
:02295F00002254
:10265A008B5F8A608961AB5FAA60A9611211B7FFBB
:10266A00122FC9500D74012561F561E43560F560DA
:10267A0080E4D200AB5FAA60A9611211B7FF642B94
:10268A006004EFB42D1BAB5F0561E561AA607002BF
:10269A00056014F91211B7642D6003D38001C39247
:1026AA0000E4F562F563AB5FAA60A9611211B7FF96
:1026BA001230225036AB5FAA60A9611211B7FF33FC
:1026CA0095E0FEEF24D0FBEE34FFFAAE62AF637CF6
:1026DA00007D0A1211FDEF2BF563EE3AF5627401E3
:1026EA002561F561E43560F56080BB300006AE62B5
:0E26FA00AF638009C3E49563FFE49562FE229E
:10137300EF4E6012EF60010EEDBB010B89828A8391
:10138300F0A3DFFCDEFA2289F05007F709DFFCA99E
:0C139300F022BBFEFCF309DFFCA9F022F5
:10139F00F8BB010DE58229F582E5833AF583E8F084
:1013AF00225006E92582C8F622BBFE05E92582C830
:0213BF00F22218
:102FC900EFC394094005EF940E4003BF2003D3805B
:032FD90001C3220F
:00000001FF
