:102DA600434C4F534544006E32313930653730332A
:102DB600332E696F6B2E6C61003139353635005014
:042DC60044503A003B
:1000A600438E107F017E02122F437D017F017E0267
:1000B600122EFFE4F541F542F537F538E54A6401BD
:1000C6004549700D122128E4F549F54AF54B754C62
:1000D600017F017E06122EE7EF3395E0FEEF640600
:1000E6004E7041900032E0640970030203B890003C
:1000F60032E064CC60030206D47F017E02122EE752
:10010600900070EFF07F017E06122EE7900071EFEF
:10011600F0FB900070E0FD7FCC1213DBE490003220
:10012600F00206D4900032E064CC70237F017E0298
:10013600122EE7900070EFF07F017E06122EE790F8
:100146000071EFF0FB900070E0FD7FCC0203809021
:100156000032E064017024FFFE122EB59000717427
:1001660004F07F017E06122F437D047F017E061276
:100176002EFF7B047D017F11020380900032E06434
:10018600026003020218FFFEFDFCAB40AA3FA93E37
:10019600A83DD312132040177F017E00122EB59082
:1001A60000717401F0FF7E06122F437D018050E43A
:1001B600FFFEFDFCAB40AA3FA93EA83DC31213209B
:1001C6007015FFFE122EB59000717401F0FF7E06C9
:1001D600122F437D028028E4FFFEFDFCAB40AA3FC0
:1001E600A93EA83DC3121320501CE4FFFE122EB5F3
:1001F6009000717402F07F017E06122F437D027F0C
:10020600017E06122EFF900071E0FB7D017F220227
:100216000380900032E06405600302035812296FE0
:10022600900082121344AF40AE3FAD3EAC3D90000D
:1002360086121344900082E0FCA3E0FDA3E0FEA337
:10024600E0FFA3E0F8A3E0F9A3E0FAA3E02FF5406E
:10025600EA3EF53FE93DF53EE83CF53DAF40AE3FB1
:10026600AD3EFC122F598F47AF40AE3FAD3EAC3D81
:10027600122F6E8F21AF40AE3FAD3EAC3D122F83A5
:100286008F22AF40AE3FAD3EAC3D122ECE8F487FA3
:10029600017E1C122F43AD477F017E1C122EFFAD3F
:1002A600217F027E1C122EFFAD227F037E1C122EA2
:1002B600FFAD487F047E1C122EFFE4FFFEFDFCAB63
:1002C60040AA3FA93EA83DD312132040177F017EC6
:1002D60000122EB59000717401F0FF7E06122F43B6
:1002E6007D018050E4FFFEFDFCAB40AA3FA93EA87D
:1002F6003DC31213207015FFFE122EB590007174C7
:1003060001F0FF7E06122F437D028028E4FFFEFDEA
:10031600FCAB40AA3FA93EA83DC3121320501CE4E3
:10032600FFFE122EB59000717402F07F017E061258
:100336002F437D027F017E06122EFF900071E0FBA7
:100346007D017F551213DBE4900033F0900034F00A
:10035600802C900032E0640D702B7F017E02122EFD
:10036600E7900070EFF07F017E06122EE790007195
:10037600EFF0FB900070E0FD7FDD1213DBE49000F0
:1003860032F00204BB900032E0640A701DFFFE12D8
:100396002EB512203B900070E0FD900071E0FB7FCF
:1003A600AA1213DBE4900032F022900032E06409D6
:1003B600701EFFFE122EB5122716900070E0FD90FB
:1003C6000071E0FB7F991213DB9000327408F02273
:1003D600900032E0640F60030204BBE5246401452B
:1003E600237033FFFE122EB5900071740CF07F015E
:1003F6007E06122F437D0C7F017E06122EFF900093
:1004060071E0FB7D017FFF1213DBE4900032F0F513
:1004160023F5240204BBE524452360030204BBFF45
:10042600FEFDFCAB40AA3FA93EA83DD312132040D7
:10043600177F017E00122EB59000717401F0FF7EC9
:1004460006122F437D018050E4FFFEFDFCAB40AA5F
:100456003FA93EA83DC31213207015FFFE122EB50C
:100466009000717401F0FF7E06122F437D028028F2
:10047600E4FFFEFDFCAB40AA3FA93EA83DC3121314
:1004860020501CE4FFFE122EB59000717402F07F1E
:10049600017E06122F437D027F017E06122EFF90FB
:1004A6000071E0FB7D017FFF1213DBE4900032F068
:1004B600F523752401E53864014537600302054BD1
:1004C600FFFEFDFCAB40AA3FA93EA83DD312132078
:1004D60040177F017E00122EB59000717401F0FF67
:1004E6007E06122F437D018050E4FFFEFDFCAB40EB
:1004F600AA3FA93EA83DC31213207015FFFE122E77
:10050600B59000717401F0FF7E06122F437D0280C4
:1005160028E4FFFEFDFCAB40AA3FA93EA83DC3125E
:100526001320501CE4FFFE122EB59000717402F0E9
:100536007F017E06122F437D027F017E06122EFF6B
:10054600E4F537F538E5426401454160030206D417
:10055600FFFEFDFCAB40AA3FA93EA83DD3121320E7
:1005660040177F017E00122EB59000717401F0FFD6
:100576007E06122F437D018061E4FFFEFDFCAB4049
:10058600AA3FA93EA83DC3121320701DFFFE122EDE
:10059600B5E4F540F53FF53EF53D90007104F0FFFA
:1005A6007E06122F437D028031E4FFFEFDFCAB4048
:1005B600AA3FA93EA83DC31213205025E4FFFE1210
:1005C6002EB5E4F540F53FF53EF53D900071740219
:1005D600F07F017E06122F437D027F017E06122EDA
:1005E600FFAF40AE3FAD3EAC3D122F598F47AF40F7
:1005F600AE3FAD3EAC3D122F6E8F21AF40AE3FAD4C
:100606003EAC3D122F838F22AF40AE3FAD3EAC3D98
:10061600122ECE8F487F017E1C122F43AD477F01DD
:100626007E1C122EFFAD217F027E1C122EFFAD22F4
:100636007F037E1C122EFFAD487F047E1C122EFF08
:10064600AF32AE31AD30AC2F122F598F45AF32AE2F
:1006560031AD30AC2F122F6E8F51AF32AE31AD307F
:10066600AC2F122F838F52AF32AE31AD30AC2F127A
:100676002ECE8F467F017E20122F43AD457F017E11
:100686001C122EFFAD517F027E1C122EFFAD527F33
:10069600037E1C122EFFAD467F047E1C122EFFE445
:1006A600FFFEFDFCAB28AA27A926A825C312132006
:1006B600600F900070E0FD900071E0FB7F06121362
:1006C600DBE4F528F527F526F525F541F542756EA7
:1006D60000756F007570007BFF7A2D79A6122517BD
:1006E600EF64014E604D755F007560007561007BBB
:1006F600FF7A2D79A61225C7EF64014E700280336A
:10070600756E00756F007570007BFF7A2D79C512C6
:100716002517EF64014E601B755F007560007561FB
:10072600007BFF7A2D79C51225C7EF64014E600361
:100736000200C2120026755FFF75602D7561BF7BD2
:10074600FF7A2D79AD121E1E754B00754C01900077
:10075600327408F07B017A00790012304D7B017A01
:0607660000793612304D4F
:01076C00226A
:102EB5008E558F56E556640145557003123024E54D
:092EC5005645557003123032220B
:052E9B00E0FEA3E0FFD2
:102EA000E4900094F0A3F0EEFF3395E0FE900094E0
:042EB000F0A3EFF0AC
:012EB40022FB
:05000E00E0FEA3E0FF8D
:0F001300E4900094F0A3F0FE900094F0A3EFF0BF
:0100220022BB
:102F5900E490008AF0A3F0781812133190008AEEF9
:042F6900F0A3EFF0F2
:012F6D002241
:102F6E00E490008AF0A3F0781012133190008AEEEC
:042F7E00F0A3EFF0DD
:012F8200222C
:102F8300E490008AF0A3F0780812133190008AEEDF
:042F9300F0A3EFF0C8
:012F97002217
:082ECE008F588E578D568C556C
:102ED600E490008AF0A3F0E4FE90008AF0A3EFF0FD
:012EE60022C9
:032E1200FFE0FDE1
:102E1500E4900090F0A3F0EFFE7C00E42DFFEC3E83
:082E2500FE900090F0A3EFF015
:012E2D002282
:0C27BF008E538F548C558D568A578B58C2
:1027CB0090008212135000000000AE53E5547818AD
:1027DB00C333CE33CED8F9FFEE3395E0FDFCC00406
:1027EB00C005C006C007AE55E5567810C333CE33CF
:1027FB00CED8F9FFEE3395E0FDFCD003D002D0012B
:10280B00D000EB2FFFEA3EFEE93DFDE83CFCA804BF
:10281B00A905AA06AB07E5587F00FE3395E0FDFC42
:10282B00EF2BFBEA3EFAE93DF9E83CF8AE59EE3303
:10283B0095E0FDFCEB255AFFEA3EFEE93DFDE83C49
:10284B00FC900082121344900082E0FCA3E0FDA3F5
:05285B00E0FEA3E0FF18
:012860002255
:101CBD0090005FE0FF90005EE02FFFE433FE9000A8
:101CCD0060E07C002FFFEC3EFE900061E02FFFEC0A
:101CDD003EFE900070E02FFFEC3EFE900032E02FB4
:101CED00FFEC3EFE900071E02FFFEC3EFE90006297
:101CFD00E02FFFEC3EFE900063E02FFFEC3EFE90E8
:101D0D000033E02FFFEC3EFE900034E02FFFEC3E61
:101D1D00FE900035E02FFFEC3EFE90005AE02FFFC5
:101D2D00EC3EFE900072E02FFFEC3EFE900073E063
:101D3D002FFFEC3EFE900076E02FFFEC3EFE900074
:101D4D0077E02FFFEC3EFE900078E02FFFEC3EFE9B
:101D5D00900079E02FFFEC3EFE90007AE02FFFEC33
:101D6D003EFE90007BE02FFFEC3EFE900064E02FE6
:101D7D00FFEC3EFE900065E02FFFEC3EFE90005B19
:101D8D00E02FFFEC3EFE900066E02FFFEC3EFE9054
:101D9D000068E02FFFEC3EFE900067E02FFFEC3E69
:101DAD00FE90006AE02FFFEC3EFE900069E02FFFF1
:101DBD00EC3EFE90006CE02FFFEC3EFE90006BE0E1
:101DCD002FFFEC3EFE90006EE02FFFEC3EFE9000EC
:101DDD006DE02FFFEC3EFE90006FE02FFFEC3EFE1E
:101DED0090008EF0A3EFF0122EA0EE8FF012121DC8
:101DFD0090008E12000EAB5FAA60A961EE8FF0020B
:021E0D00121DA4
:102AD9008F6E1230065010AF6EEF3395E0FEEF2483
:102AE900D0FFEE34FFFE22AF6EEF3395E0FEC3EF69
:102AF9009441EE648094804040D3EF9446EE648024
:102B09009480400AEF9461EE64809480402BD3EF67
:102B1900947AEE648094804002801EAF6E122E80FB
:102B29005017AF6E123015E56E500524C9FF8003AA
:0E2B390024A9FFEF3395E0FE227EFF7FFF22EE
:062215008B6B8A6C896DE1
:10221B00E4900084F0A3F0122F98900082EEF0A3CC
:10222B00EFF0E490008AF0A3F00222D5900082E058
:10223B00FEA3E0FFC390008BE09FEE6480F890005C
:10224B008AE064809840030222DEAB6BAA6CA96D16
:10225B00E0FEA3E0F5828E831211DEFF122AD990E5
:10226B000086EEF0A3EFF090008AE0FEA3E0FFC340
:10227B00900083E09FFF900082E09ECF24FFCF343D
:10228B00FFFEEF7802C333CE33CED8F9FF90008830
:10229B00EEF0A3EFF0900086E0FEA3E0A807088025
:1022AB0005C333CE33CED8F9FF900086EEF0A3EF03
:1022BB00F0900084E04EF0A3E04FF090008BE00430
:1022CB00F0700690008AE004F0E4900086F0A3F032
:0B22DB00022237900084E0FEA3E0FF29
:0122E60022D5
:10296F00E490008AF0A3F0A312135000000000902F
:10297F000033E0900034122E1290008AEEF0A3EF95
:10298F00F0E4F553F554D390008BE0955490008A02
:10299F00E09553403790008CE0F8A3E0F9A3E0FAFC
:1029AF00A3E0FB900095E493FE740193FFE4FCFD1C
:1029BF00EB2FFFEA3EFEED39FDEC38FC90008C1258
:1029CF0013440554E55470BE055380BA90008CE053
:0A29DF00FCA3E0FDA3E0FEA3E0FF6F
:0129E90022CB
:1029EA00E4900082F0A3F0A31213500000000090BC
:1029FA000062E0900063122E12900082EEF0A3EFC4
:102A0A00F0E4F555F556D3900083E0955690008290
:102A1A00E095554037900084E0F8A3E0F9A3E0FA86
:102A2A00A3E0FB900097E493FE740193FFE4FCFD9E
:102A3A00EB2FFFEA3EFEED39FDEC38FC90008412E4
:102A4A0013440556E55670BE055580BA900084E0D9
:0A2A5A00FCA3E0FDA3E0FEA3E0FFF3
:012A6400224F
:1022E700900097E493FE740193FBAA06E4F9F8AF14
:1022F70028AE27AD26AC2512127890008EEEF0A3FB
:10230700EFF0900070E064057005900097800B90E7
:102317000070E06401702190009593FE740193FBB7
:10232700AA06E4F9F8AF40AE3FAD3EAC3D121278D5
:10233700900090EEF0A3EFF0900095E493FE740107
:1023470093FBAA06E4F9F8AF32AE31AD30AC2F12E9
:102357001278900092EEF0A3EFF090008E122E9B71
:10236700900062EFF090008E12000E900063EFF085
:10237700900090122E9B900072EFF0900090120048
:102387000E900073EFF0900092122E9B900078EF62
:0C239700F090009212000E900079EFF020
:0123A3002217
:10203B007F017E00122F43E4FD7F01FE122EFFE491
:10204B00FD7F02FE122EFFE4FD7F03FE122EFFE446
:10205B00FD7F04FE122EFF7F017E02122F437D05B2
:10206B007F017E02122EFF9000707405F0E4900049
:10207B0032F07F017E06122F43E4FD7F017E0612B4
:10208B002EFFE4900071F0900062F0900063F090EE
:10209B000033F0900034F0900035F090005AF0903F
:1020AB000072F0900073F0900076F0900077F09053
:1020BB000078F0900079F090007AF090007BF0902F
:1020CB000064F0900065F07F017E1C122F43E4FD4D
:1020DB007F017E1C122EFFE4FD7F027E1C122EFF61
:1020EB00E4FD7F037E1C122EFFE4FD7F047E1C1299
:1020FB002EFF7F017E20122F43E4FD7F017E2012F5
:10210B002EFFE4FD7F027E20122EFFE4FD7F037E77
:0D211B0020122EFFE4FD7F047E20022EFF27
:10271600E4900032F07F017E02122F43900070E0B9
:10272600FD7F017E02122EFF7F017E06122F43904F
:102736000071E0FD7F017E06122EFF900072E0FF21
:10274600900073E0FD122E15900095E493FC740141
:1027560093FD12120BE48F408E3FF53EF53DAD3EE4
:10276600AC3D122F598F47AF40AE3FAD3EAC3D1248
:102776002F6E8F21AF40AE3FAD3EAC3D122F838F03
:1027860022AF40AE3FAD3EAC3D122ECE8F487F010C
:102796007E1C122F43AD477F017E1C122EFFAD21FA
:1027A6007F027E1C122EFFAD227F037E1C122EFF9F
:0927B600AD487F047E1C022EFFD9
:102DCA00434C4F534544006E323139306537303306
:102DDA00332E696F6B2E6C610031393536350050F0
:042DEA0044503A0017
:100CB100E4F553F554FFFE122EB57F017E02122F8B
:100CC100437D057F017E02122EFF538EEF53D1F734
:100CD100E54A64014549700D122128E4F549F54AB8
:100CE100F54B754C017F017E06122EE7EF3395E03F
:100CF100FEEF64064E7018900032E0640970030242
:100D01000D9A900032E064CC6003021019800890C3
:100D11000032E064CC70237F017E02122EE7900046
:100D210070EFF07F017E06122EE7900071EFF0FB6D
:100D3100900070E0FD7FCC021011900032E0640160
:100D41007024FFFE122EB59000717404F07F017EB5
:100D510006122F437D047F017E06122EFF7B047D48
:100D6100057F11021011900032E064027023FFFE32
:100D7100122EB59000717401F0FF7E06122F437D93
:100D8100017F017E06122EFF7B017D057F2202106D
:100D910011900032E06409701EFFFE122EB5122779
:100DA10016900070E0FD900071E0FB7F991213DB5B
:100DB1009000327408F022900032E0640A701AFF49
:100DC100FE122EB512203B900070E0FDE4FB7FAADD
:100DD1001213DBE4900032F022900032E0640D70D7
:100DE100237F017E02122EE7900070EFF07F017EDB
:100DF10006122EE7900071EFF0FB900070E0FD7F8E
:100E0100DD021011900032E0640F7056FFFE122EC9
:100E1100B5E52464014523701D900071740CF07FC9
:100E2100017E06122F437D0C7F017E06122EFFE408
:100E3100F523F5248020E5244523701A90007104E0
:100E4100F0FF7E06122F437D017F017E06122EFFE9
:100E5100752300752401900071E0FB7D057FFF0281
:100E61001011900032E06481600302100390007160
:100E710004F0FF7E06122F437D017F017E06122EB4
:100E8100FF1229EA8F408E3F8D3E8C3D7F017E000F
:100E9100122EB5E4F528F527F526F5257B017D050C
:100EA1007F911213DBE4F53BF53CF52DF52E020F96
:100EB1007D900032E064827011FFFE122EB57B013D
:100EC1007D057F921213DB020F83900032E064CC28
:100ED10070287F017E02122EE7900070EFF07F01F3
:100EE1007E06122EE7900071EFF0FB900070E0FD9E
:100EF1007FCC1213DBE4900032F0E4FFFEFDFCAB8B
:100F010040AA3FA93EA83DD31213205015E4FFFE8D
:100F1100122EB5755300755401E4F540F53FF53EC9
:100F2100F53DE542640145417087F541F542FFFE1B
:100F3100FDFCAB40AA3FA93EA83DD31213205009A6
:100F4100E4F540F53FF53EF53DE4FFFEFDFCAB2841
:100F5100AA27A926A825C312132060097B017D05B4
:100F61007F061213DBE4F528F527F526F525E55470
:100F7100640145537006F553F554800643D10802C8
:100F81000EB2538EEF43D108AF32AE31AD30AC2F3C
:100F9100122F598F45AF32AE31AD30AC2F122F6EBB
:100FA1008F51AF32AE31AD30AC2F122F838F52AF94
:100FB10032AE31AD30AC2F122ECE8F467F017E2066
:100FC100122F43AD457F017E1C122EFFAD517F02D2
:100FD1007E1C122EFFAD527F037E1C122EFFAD46EA
:100FE1007F047E1C122EFFE4F528F527F526F52552
:100FF100F540F53FF53EF53D900062F0900063F05D
:101001008012900032E06482700E7B017D057F9238
:101011001213DBE4900032F0756E00756F0075708D
:10102100007BFF7A2D79CA122517EF64014E604DBE
:10103100755F007560007561007BFF7A2D79CA12BA
:1010410025C7EF64014E70028033756E00756F0025
:101051007570007BFF7A2D79E9122517EF64014E37
:10106100601B755F007560007561007BFF7A2D79EB
:10107100E91225C7EF64014E6003020CD11200266C
:10108100755FFF75602D7561E37BFF7A2D79D11254
:101091001E1E7F017E02122EE77F017E06122EE7C1
:1010A100900070E0FD900071E0FBE4FF1213DB752E
:1010B1004B00754C019000327408F07B017A007985
:0D10C1000012304D7B017A00793612304D5F
:0110CE0022FF
:101F340041540A004F4B0041542B4350494E3F0D2E
:101F44000A002B4350494E3A0041542B4352454713
:101F54003F0D0A002B435245473A0041542B434955
:101F6400505153454E443D300D0A0041542B4349D2
:101F74005053544152543D00544350000D0A004301
:101F84004F4E4E454354204F4B00414C5245414423
:101F94005920434F4E4E45435400434F4E4E454304
:101FA40054204641494C0041542B43495053485511
:101FB400540D0A0053485554204F4B0041542B43B1
:101FC400495053454E443D33360D0A003E004552B8
:101FD400524F52006E3231393065373033332E6907
:101FE4006F6B2E6C610031393536350041542B430B
:101FF400495053454E443D340D0A0041542B43533C
:10200400510D0A002B4353513A200041542B4943AC
:102014004349440D0A002B49434349443A200000F4
:1020240000000000000000000000000000000000AC
:0720340000000000000000A5
:0F250800756E00756F007570007BFF7A1F793854
:102517008B6B8A6C896DAC02AD01ED4C700AE5706E
:10252700456F7004FE7F0122ED4C6044E570456FF6
:10253700603E856B74856C75856D767B017A007955
:10254700001228EDEA494B601D856E74856F75850D
:1025570070767B017A0079001228EDEA494B600614
:102567007E007F0180047E007F00EF4E603F803851
:10257700E56D456C601B856B74856C75856D767B29
:10258700017A0079001228EDE94A4B600280198030
:102597001C856E74856F758570767B017A0079006E
:1025A7001228EDE94A4B60057E007F0122E4FEFF19
:0125B7002201
:0F25B800755F007560007561007BFF7A1F79D237
:1025C7008B5C8A5D895EAC02AD01ED4C700AE561FA
:1025D70045607004FE7F0122ED4C6044E561456073
:1025E700603E855C74855D75855E767B017A0079D2
:1025F700361228EDEA494B601D855F748560758545
:1026070061767B017A0079361228EDEA494B60063C
:102617007E007F0180047E007F00EF4E603F8038A0
:10262700E55E455D601B855C74855D75855E767BC3
:10263700017A0079361228EDE94A4B600280198049
:102647001C855F748560758561767B017A007936B4
:102657001228EDE94A4B60057E007F0122E4FEFF68
:012667002250
:102F1700122E4AC2B57F017E00122E657FC87E0041
:062F2700122F2DD2B5228D
:102457008007122508EF4E70317B017A0079001250
:10246700304D7BFF7A1F7934122D817FF47E011264
:102477002F2D80DE756EFF756F1F7570387BFF7AA5
:102487001F7946122517EF4E70317B017A007900CC
:1024970012304D7BFF7A1F793B122D817FF47E012D
:1024A700122F2D80CF756E00756F007570007BFF42
:1024B7007A1F7958122517EF4E70227B017A00791F
:1024C7000012304D7BFF7A1F794D122D817FF47EEC
:1024D70001122F2D80CF122508EF4E701B7B017A3A
:1024E70000790012304D7BFF7A1F795F122D817FB3
:1024F700F47E01122F2D80DE7B017A0079000230F5
:012507004D86
:0F1E0F00755FFF75601F7561EA7BFF7A1F79D8D9
:101E1E008B5C8A5D895E7BFF7A1F796F122D817FC5
:101E2E00221200037BFF7A1F797C122D817F2212F2
:101E3E0000037F2C1200037F22120003AB5CAA5D0D
:101E4E00A95E122D817F221200037F2C1200037FC8
:101E5E0022120003AB5FAA60A961122D817F2212AC
:101E6E0000037BFF7A1F7980122D817F887E1312EB
:101E7E002F2D756E00756F007570007BFF7A1F79C0
:101E8E0083122517EF64014E70028018756E00756F
:101E9E006F007570007BFF7A1F798E122517EF6425
:101EAE00014E70097B017A00790002304D756E008B
:101EBE00756F007570007BFF7A1F799E122517EFE4
:101ECE0064014E70AD7B017A00790012304D7BFFBC
:101EDE007A1F796F122D817F221200037BFF7A1FEA
:101EEE00797C122D817F221200037F2C1200037F3A
:101EFE0022120003AB5CAA5DA95E122D817F221215
:101F0E0000037F2C1200037F22120003AB5FAA6036
:101F1E00A961122D817F221200037BFF7A1F798027
:061F2E00122D81021E804D
:100026008016756E00756F007570007BFF7A1F79FC
:10003600B8122517EF4E701B7B017A007936123005
:100046004D7BFF7A1F79AB122D817F887E13122F8D
:0C0056002D80CF7B017A00793602304DFE
:0C13CF00900070E0FD900071E0FBE4FF76
:0613DB008F578D588B595D
:1013E100E4F55AF55B7B017A00790012304DE4F5A2
:1013F1004BF54C122B477BFF7A1F79C0122D81755B
:101401006E00756F007570007BFF7A1F79D0122511
:1014110017EF64014E604D756E00756F00757000B9
:101421007BFF7A1F79D2122517EF64014E600912F2
:1014310025B8EF64014E70C7120026121E0F7F01FE
:101441007E02122EE77F017E06122EE71213CF7B5A
:10145100017A00790012304D7B017A007936123021
:101461004D0214007B017A00790012304D7B017A24
:1014710000793612304D7F017E00122EE790005E1A
:10148100EFF07F027E00122EE790005FEFF07F0306
:101491007E00122EE7900060EFF07F047E00122E96
:1014A100E7900061EFF0900032E557F0900070E5B1
:1014B10058F0900071E559F01222E77F017E1A126F
:1014C1002EE7900066EFF07F027E1A122EE7900061
:1014D10068EFF07F037E1A122EE7900067EFF07F2E
:1014E100047E1A122EE790006AEFF07F057E1A1231
:1014F1002EE7900069EFF07F067E1A122EE790002A
:101501006CEFF07F077E1A122EE790006BEFF07FF1
:10151100087E1A122EE790006EEFF07F097E1A12F4
:101521002EE790006DEFF07F0A7E1A122EE79000F1
:101531006FEFF0755F0175600075618C7B017A005A
:10154100798A121CBD90008AA3E090005CF09000A3
:101551008CA3E090005DF090005EE0FF120003902C
:10156100005FE0FF120003900060E0FF12000390B3
:101571000061E0FF120003900070E0FF1200039091
:101581000032E0FF120003900071E0FF12000390AF
:101591000062E0FF120003900063E0FF120003907D
:1015A1000033E0FF120003900034E0FF12000390CB
:1015B1000035E0FF12000390005AE0FF1200039093
:1015C1000072E0FF120003900073E0FF120003902D
:1015D1000076E0FF120003900077E0FF1200039015
:1015E1000078E0FF120003900079E0FF1200039001
:1015F100007AE0FF12000390007BE0FF12000390ED
:101601000064E0FF120003900065E0FF1200039008
:10161100005BE0FF120003900066E0FF1200039000
:101621000068E0FF120003900067E0FF12000390E2
:10163100006AE0FF120003900069E0FF12000390CE
:10164100006CE0FF12000390006BE0FF12000390BA
:10165100006EE0FF12000390006DE0FF12000390A6
:10166100006FE0FF12000390005CE0FF12000390A6
:10167100005DE0FF120003E4900032F0122508EF54
:0A16810064014E70F7F54B754C0143
:01168B00223C
:10212800E4F555F5567B017A00790012304DE4F557
:102138004BF54C7F01FE122EE790005EEFF07F0218
:102148007E00122EE790005FEFF07F037E00122ED4
:10215800E7900060EFF07F047E00122EE7900061A8
:10216800EFF07BFF7A1F79F0122D81756E00756F85
:10217800007570007BFF7A1F79D0122517EF640174
:102188004E6052756E00756F007570007BFF7A1F88
:1021980079D2122517EF64014E60091225B8EF6451
:1021A800014E70C7120026121E0F7F017E02122EEA
:1021B800E77F017E06122EE71213CFE4900032F07B
:1021C8007B017A00790012304D7B017A0079361252
:1021D800304D0221737B017A00790012304D900056
:1021E8005EE0FF12000390005FE0FF120003900022
:1021F80060E0FF120003900061E0FF120003122567
:0C22080008EF64014E70F7F54B754C01B7
:0122140022A7
:102B47008016756E00756F007570007BFF7A2079AF
:102B570008122517EF4E701B7B017A00790012309F
:102B67004D7BFF7A1F79FF122D817FF47E01122F93
:102B77002D80CF7B017A0079007D20122E2E8B6E5F
:102B87008A6F89707B007A00795C757100757203B2
:102B9700122CE412266890005BEFF07F017E18127A
:0E2BA7002F4390005BE0FD7F017E18022EFFA1
:1019130078537C007D007BFF7A2079237E007F153E
:1019230012119F78687C007D007BFF7A2079387ED6
:10193300007F0312119F8016756E00756F0075701E
:10194300007BFF7A20791A122517EF4E701B7B015B
:101953007A00790012304D7BFF7A20790F122D81A6
:101963007FF47E01122F2D80CF7B017A0079007DD9
:1019730020122E2EE92401F9E43A8B6EF56F89705B
:101983007B007A007953757100757214122CE4751B
:101993006E00756F007570537571007572027B0070
:1019A3007A007968122CE47B007A00796812221598
:1019B300900066EFF07F017E1A122F43900066E0DD
:1019C300FD7F017E1A122EFF756E00756F00757014
:1019D300557571007572027B007A007968122CE4E8
:1019E3007B007A007968122215900068EFF0FD7F82
:1019F300027E1A122EFF756E00756F007570577593
:101A030071007572027B007A007968122CE47B0006
:101A13007A007968122215900067EFF0FD7F037E4C
:101A23001A122EFF756E00756F007570597571006F
:101A33007572027B007A007968122CE47B007A00CD
:101A4300796812221590006AEFF0FD7F047E1A1266
:101A53002EFF756E00756F0075705B757100757282
:101A6300027B007A007968122CE47B007A007968A3
:101A7300122215900069EFF0FD7F057E1A122EFFEA
:101A8300756E00756F0075705D7571007572027B00
:101A9300007A007968122CE47B007A0079681222BC
:101AA3001590006CEFF0FD7F067E1A122EFF756E07
:101AB30000756F0075705F7571007572027B007A37
:101AC300007968122CE47B007A0079681222159061
:101AD300006BEFF0FD7F077E1A122EFF756E007507
:101AE3006F007570617571007572027B007A007901
:101AF30068122CE47B007A00796812221590006E3C
:101B0300EFF0FD7F087E1A122EFF756E00756F00D1
:101B13007570637571007572027B007A00796812C3
:101B23002CE47B007A00796812221590006DEFF0A7
:101B3300FD7F097E1A122EFF756E00756F0075709A
:101B4300657571007572027B007A007968122CE466
:101B53007B007A00796812221590006FEFF0FD7F09
:061B63000A7E1A022EFFAB
:102E4A00759850758E40538EFEE4F589758BCC7556
:0B2E5A008DFFC2ABD28ED2AFD2AC22F3
:080003008F993099FDC299228A
:102D81008B6B8A6C896DAB6BAA6CA96D1211C560D6
:102D910013056DE56D7002056C14F91211C5FF1272
:052DA100000380E222A6
:102BB5007E007F00E490007CF0A3F0A3F08F828E6E
:102BC50083E599F0E490007DF0A3F0C29890007C35
:102BD500E0FD3395E0FCC3ED9432EC6480948050C5
:102BE50032E004F00FBF00010E2098D1C2C890005A
:102BF5007EE004F0700690007DE004F0D390007E46
:102C0500E094C890007DE06480948040DCD2C8E404
:092C1500FEFF22D2C87E007F01FF
:012C1E002293
:102C1F007E007F36E490007CF0A3F0A3F08F828ECD
:102C2F0083E599F0E490007DF0A3F0C29890007CCA
:102C3F00E0FD3395E0FCC3ED9423EC648094805069
:102C4F0032E004F00FBF00010E2098D1C2C99000EE
:102C5F007EE004F0700690007DE004F0D390007EDB
:102C6F00E094C890007DE06480948040DCD2C9E499
:092C7F00FEFF22D2C97E007F0194
:012C88002229
:10168C00900036E090005EF0900037E090005FF044
:10169C00900038E0900060F0900039E0900061F02C
:1016AC0090003AE0900070F090003BE0900032F037
:1016BC0090003CE0900071F090003DE0900062F0F2
:1016CC0090003EE0900063F090003FE0900033F01B
:1016DC00900040E0900034F0900041E0900035F034
:1016EC00900042E090005AF0900043E0900072F0BD
:1016FC00900044E0900073F0900045E0900076F08C
:10170C00900046E0900077F0900047E0900078F071
:10171C00900048E0900079F0900049E090007AF059
:10172C0090004AE090007BF090004BE0900064F059
:10173C0090004CE0900065F090004DE090005BF064
:10174C0090004EE0900066F090004FE0900068F042
:10175C00900050E0900067F0900051E090006AF02B
:10176C00900052E0900069F0900053E090006CF013
:10177C00900054E090006BF0900055E090006EF0FB
:10178C00900056E090006DF0900057E090006FF0E4
:10179C00900058E090005CF0900059E090005DF0F3
:1017AC007B017A00793612304D90005FE0FF90009B
:1017BC005EE02FFFE433FE900060E07C002FFFEC36
:1017CC003EFE900061E02FFFEC3EFE900070E02F9B
:1017DC00FFEC3EFE900032E02FFFEC3EFE900071DD
:1017EC00E02FFFEC3EFE900062E02FFFEC3EFE90FF
:1017FC000063E02FFFEC3EFE900033E02FFFEC3E49
:10180C00FE900034E02FFFEC3EFE900035E02FFF01
:10181C00EC3EFE90005AE02FFFEC3EFE900072E092
:10182C002FFFEC3EFE900073E02FFFEC3EFE90008D
:10183C0076E02FFFEC3EFE900077E02FFFEC3EFEB3
:10184C00900078E02FFFEC3EFE900079E02FFFEC4B
:10185C003EFE90007AE02FFFEC3EFE90007BE02FE6
:10186C00FFEC3EFE900064E02FFFEC3EFE90006526
:10187C00E02FFFEC3EFE90005BE02FFFEC3EFE9075
:10188C000066E02FFFEC3EFE900068E02FFFEC3E80
:10189C00FE900067E02FFFEC3EFE90006AE02FFF09
:1018AC00EC3EFE900069E02FFFEC3EFE90006CE0F9
:1018BC002FFFEC3EFE90006BE02FFFEC3EFE900005
:1018CC006EE02FFFEC3EFE90006DE02FFFEC3EFE35
:1018DC0090006FE02FFFEC3E90007CF0A3EFF090B7
:1018EC00007CE0FE3395E090007EF0A3CEF07E000D
:1018FC00A3EEF0A3EFF090005DE06F7001EC6006DA
:06190C0090003274CCF0E3
:0119120022B2
:09304D007E007F247D0002138146
:0300230002006672
:10006600C0E0C0F0C083C082C0D075D008E54C6443
:1000760001454B700C122C1FEF4E600812168C8037
:0F00860003122BB5D0D0D082D083D0F0D0E0328F
:102E6500EF1FAC0670011E4C601000007D7A7CC11E
:0A2E75007B80DBFEDCFCDDFA80E66A
:012E7F002230
:102F2D00EF1FAC0670011E4C600B007D207C28DC71
:052F3D00FEDDFC80EB4D
:012F4200226C
:07305600E4F59575963022A8
:0E302400C2A4D2A57F147E00122F2DC2A522B9
:0E303200D2A4C2A57F147E00122F2DC2A422AC
:102FF600758904758AFF758CFFD28CD2A9D2AF224F
:102FC000438E0475D74075D6A2538EEF43AF04D21B
:022FD000AF222E
:102FD20043D10275D54075D4A253D1F743AF20D265
:022FE200AF221C
:102FE40043D12075D34075D2A243D18043AF40D2A0
:022FF400AF220A
:03000B00022D368D
:102D3600C0E0C0D0E5282401F528E43527F527E4CE
:102D46003526F526E43525F525E54024FFF540E54D
:102D56003F34FFF53FE53E34FFF53EE53D34FFF5F4
:102D66003DE5322401F532E43531F531E43530F50F
:0B2D760030E4352FF52FD0D0D0E03234
:03006300022A6509
:102A6500C0E0C0F0C083C082C0D075D008E52C4559
:102A75002B700685272985282A052CE52C7002054B
:102A85002BB4D042E52BB4073D752B00752C00AE59
:102A950029AF2AAB0FAA0EEA3395E0F9F8C3E5286A
:102AA5009BFFE5279AFEE52699FDE52598FCE47B45
:102AB50005FAF9F8D3121320500C75370075380153
:102AC500538EEF43D10853EFFED0D0D082D083D0C0
:042AD500F0D0E0322B
:03009B000223A499
:1023A400C0E0C0F0C083C082C0D075D008E53C4511
:1023B4003B700685273985283A053CE53C700205C3
:1023C4003BE52EB4B82FE52DB40B2A753B00753CC4
:1023D40000752D00752E0075410075420153D1F72B
:1023E4007F017E02122EE7EF3395E0FEEF64014E8B
:1023F4007003438E10E53C6464453B7048F53BF53F
:102404003CAE39AF3AAB0FAA0EEA3395E0F9F8C304
:10241400E5289BFFE5279AFEE52699FDE52598FC2E
:10242400E47B05FAF9F8C3121320400D7464252ED9
:10243400F52EE4352DF52D8006752D00752E0085BD
:10244400273985283A53EFFDD0D0D082D083D0F0FD
:03245400D0E032A3
:0300A300022C89A3
:102C8900C0E0C0F0C083C082C0D075D008E4FAF9B2
:102C9900F8E5362401F536EA3535F535E93534F503
:102CA90034E83533F5337F407E7E7D057C00AB36D5
:102CB900AA35A934F8C312130A7012F54D754E01DD
:102CC900F549754A01F536F535F534F53353EFFB1A
:0B2CD900D0D0D082D083D0F0D0E03209
:0D304000E4F5C7F5C5F5C675C380F5C422DB
:102EE70075C78175C5018FC4EEFF8FC375C65A7547
:082EF700C6A500AFC202304085
:102EFF0075C78175C5028FC4EEFF8FC38DC275C6AE
:082F0F005A75C6A5000230400E
:102F430075C78175C5038FC4EEFF8FC375C65A75E8
:062F5300C6A5000230409B
:0300000002286172
:0C286100787FE4F6D8FD75817C0228A881
:102DEE006E3231393065373033332E696F6B2E6C5E
:102DFE006100313935363500434C4F534544005050
:042E0E0044503A00F2
:10076D00C2C9122F177F057E00122E65D2C9123015
:10077D0056122FF6122FC0122FD2122FE47F017EA8
:10078D001E122EE7EF3395E0F54F8F504550701E3A
:10079D000550E5507002054F7F017E1E122F43ADAF
:1007AD00507F017E1E122EFF12203B020851055074
:1007BD00E5507002054F7F017E1E122F43AD507F15
:1007CD00017E1E122EFF7F017E02122EE790007019
:1007DD00EFF07F017E06122EE7900071EFF07F01A2
:1007ED007E1C122EE78F477F027E1C122EE78F2173
:1007FD007F037E1C122EE78F227F047E1C122EE7B4
:10080D008F48AF477E00AD217C00AB227A00E548D2
:10081D00755900F55A1227BF8F408E3F8D3E8C3D86
:10082D007F017E20122EE78F457F027E20122EE75C
:10083D008F517F037E20122EE78F527F047E201270
:10084D002EE78F46C2C87FF47E01122F2DD2C8121B
:10085D002457121913120026755FFF75602E7561EE
:10086D00007BFF7A2D79EE121E1E7F017E00122E67
:10087D00E790005EEFF07F027E00122EE790005FA2
:10088D00EFF07F037E00122EE7900060EFF07F0403
:10089D007E00122EE7900061EFF090005EE06003A5
:1008AD00020AAE90005FE06003020AAE900060E0C5
:1008BD006003020AAE900061E06003020AAE900090
:1008CD00717406F07F01FE122F437D067F017E06B7
:1008DD00122EFF020A9C900032E0640470667F01C4
:1008ED007E02122EE7900070EFF07F017E06122E31
:1008FD00E7900071EFF07F017E00122F4390005EB4
:10090D00E0FD7F017E00122EFF90005FE0FD7F0273
:10091D007E00122EFF900060E0FD7F037E00122E00
:10092D00FF900061E0FD7F047E00122EFF900070AD
:10093D00E0FD900071E0FB7F441213DBE490003288
:10094D00F0020B79900032E064CC70287F017E02BA
:10095D00122EE7900070EFF07F017E06122EE790C9
:10096D000071EFF0FB900070E0FD7FCC1213DBE423
:10097D00900032F0756E00756F007570007BFF7A18
:10098D002E7906122517EF64014E6018755F0075FC
:10099D0060007561007BFF7A2E79061225C7EF6422
:1009AD00014E7056120026755FFF75602E75610041
:1009BD007BFF7A2D79EE121E1E9000717406F07F6A
:1009CD0001FE122F437D067F017E06122EFF900041
:1009DD0070E0FD900071E0FB7F041213DB754B009E
:1009ED00754C01E4900032F07B017A0079001230F1
:1009FD004D7B017A00793612304D756E00756F00A2
:100A0D007570007BFF7A2E790D122517EF64014E5C
:100A1D006018755F007560007561007BFF7A2E7937
:100A2D000D1225C7EF64014E7056120026755FFF3B
:100A3D0075602E7561007BFF7A2D79EE121E1E906A
:100A4D0000717406F07F01FE122F437D067F017E3B
:100A5D0006122EFF900070E0FD900071E0FB7F0408
:100A6D001213DB754B00754C01E4900032F07B01E5
:100A7D007A00790012304D7B017A00793612304DB3
:100A8D00E54E6401454D60030208E3F54DF54E90CA
:100A9D000070E0FD900071E0FB7F041213DB020893
:100AAD00E3900032E064086012900070E0FD900069
:100ABD0071E0FBE4FF1213DB020B79756E00756FAD
:100ACD00007570007BFF7A2E7906122517EF6401F1
:100ADD004E6018755F007560007561007BFF7A2EA2
:100AED0079061225C7EF64014E704F120026755F0F
:100AFD00FF75602E7561007BFF7A2D79EE121E1E3B
:100B0D007F017E02122EE77F017E06122EE79000F6
:100B1D0070E0FD900071E0FBE4FF1213DB754B00FC
:100B2D00754C01E4900032F07B017A0079001230AF
:100B3D004D7B017A00793612304D756E00756F0060
:100B4D007570007BFF7A2E790D122517EF64014E1B
:100B5D00607B755F007560007561007BFF7A2E7993
:100B6D000D1225C7EF64014E70028061E4900032D2
:100B7D00F07F017E02122EE7EF3395E0FEEF640564
:100B8D004E7005120CB180157F017E02122EE7EF1B
:100B9D003395E0FEEF64014E70031200A6756E00F2
:100BAD00756F007570007BFF7A2E7906122517EF91
:100BBD0064014E6018755F007560007561007BFF04
:100BCD007A2E79061225C7EF64014E705212002657
:100BDD00755FFF75602E7561007BFF7A2D79EE12C2
:100BED001E1E7F017E02122EE77F017E06122EE76A
:100BFD00900070E0FD900071E0FBE4FF1213DB75D7
:100C0D004B00754C01E4900032F07B017A007900C5
:100C1D0012304D7B017A00793612304D020B797509
:100C2D006E00756F007570007BFF7A2E790D1225A1
:100C3D0017EF64014E601B755F00756000756100F4
:100C4D007BFF7A2E790D1225C7EF64014E600302EA
:100C5D000877120026755FFF75602E7561007BFFAA
:100C6D007A2D79EE121E1E7F017E02122EE77F0174
:100C7D007E06122EE7900070E0FD900071E0FBE41F
:100C8D00FF1213DB754B00754C01E4900032F07BC5
:100C9D00017A00790012304D7B017A0079361230DD
:040CAD004D020B7970
:040095000564000EF0
:101B690041005E0041005F004100600041006100EA
:101B790041007005410032004100710041006200DE
:101B89004100630041003300410034004100350049
:101B990041005A0041007200410073004100760083
:101BA90041007700410078004100790041007A0046
:101BB90041007B00410064004100650041005B0079
:101BC90041006600410068004100670041006A0069
:101BD9004100690041006C0041006B0041006E004A
:101BE90041006D0041006F0041005C0041005D0053
:101BF900023700000241000002490000024D0000C6
:101C0900420074000060240036000000000000005B
:101C190000000000000000000000000000000000BB
:101C29000000000000000000000000000060320019
:101C3900000000000000000000000000000000009B
:101C4900000000000000000000000000000000008B
:101C5900000000000000000000000000000000007B
:101C6900000000043D0000000001470001210001BF
:101C79002200014800042500000000042F00000094
:101C890000014500015100015200014600022300F4
:101C990001043300000000022B0000023B00000297
:101CA9002D00000229000002390000024F00000245
:031CB9004B0000DD
:10286D0002076DE493A3F8E493A34003F68001F20D
:10287D0008DFF48029E493A3F85407240CC8C3336C
:10288D00C4540F4420C8834004F456800146F6DF3B
:10289D00E4800B0102040810204080901B69E47E47
:1028AD00019360BCA3FF543F30E509541FFEE49330
:1028BD00A360010ECF54C025E060A840B8E493A3F7
:1028CD00FAE493A3F8E493A3C8C582C8CAC583CA22
:1028DD00F0A3C8C582C8CAC583CADFE9DEE780BEDA
:011CBC000027
:1010CF00E709F608DFFA8046E709F208DFFA803E03
:1010DF0088828C83E709F0A3DFFA8032E309F608F0
:1010EF00DFFA8078E309F208DFFA807088828C8358
:1010FF00E309F0A3DFFA806489828A83E0A3F6080C
:10110F00DFFA805889828A83E0A3F208DFFA804CE5
:10111F0080D280FA80C680D4806980F280338010BC
:10112F0080A680EA809A80A880DA80E280CA803325
:10113F0089828A83ECFAE493A3C8C582C8CCC5839D
:10114F00CCF0A3C8C582C8CCC583CCDFE9DEE7806D
:10115F000D89828A83E493A3F608DFF9ECFAA9F0EC
:10116F00EDFB2289828A83ECFAE0A3C8C582C8CC42
:10117F00C583CCF0A3C8C582C8CCC583CCDFEADE5B
:10118F00E880DB89828A83E493A3F208DFF980CCBD
:10119F0088F0EF60010E4E60C388F0ED2402B404B6
:1011AF000050B9F582EB2402B4040050AF2323455D
:0611BF00822390111F7352
:1011C500BB010689828A83E0225002E722BBFE0228
:0911D500E32289828A83E493225B
:1011DE00BB010CE58229F582E5833AF583E02250C6
:1011EE0006E92582F8E622BBFE06E92582F8E22210
:0D11FE00E58229F582E5833AF583E493222A
:10120B00EF8DF0A4A8F0CF8CF0A428CE8DF0A42EF7
:02121B00FE22B1
:10121D00BB010A89828A83F0E5F0A3F0225006F71C
:0F122D0009A7F01922BBFE06F3E5F009F3192219
:10123C0075F008758200EF2FFFEE33FECD33CDCC69
:10124C0033CCC58233C5829BED9AEC99E5829840EC
:10125C000CF582EE9BFEED9AFDEC99FC0FD5F0D6C9
:10126C00E4CEFBE4CDFAE4CCF9A88222B800C1B9F3
:10127C000059BA002DEC8BF084CFCECDFCE5F0CB31
:10128C00F97818EF2FFFEE33FEED33FDEC33FCEB6A
:10129C0033FB10D703994004EB99FB0FD8E5E4F925
:1012AC00FA227818EF2FFFEE33FEED33FDEC33FC12
:1012BC00C933C910D7059BE99A4007EC9BFCE99A06
:1012CC00F90FD8E0E4C9FAE4CCFB2275F010EF2F4B
:1012DC00FFEE33FEED33FDCC33CCC833C810D7074B
:1012EC009BEC9AE899400AED9BFDEC9AFCE899F886
:0E12FC000FD5F0DAE4CDFBE4CCFAE4C8F92219
:10130A00EB9FF5F0EA9E42F0E99D42F0EC6480C85A
:06131A0064809845F022FA
:10132000EB9FF5F0EA9E42F0E99D42F0E89C45F023
:01133000229A
:10133100E8600FECC313FCED13FDEE13FEEF13FF9A
:03134100D8F122BE
:0C134400ECF0A3EDF0A3EEF0A3EFF0221C
:10135000A8828583F0D083D082121367121367129C
:101360001367121367E473E493A3C583C5F0C583C1
:10137000C8C582C8F0A3C583C5F0C583C8C582C8E7
:01138000224A
:102E8000EFC394414005EF945B400BEFC394614066
:0B2E900008EF947B5003D38001C322A5
:0F300600EFC394304007EF943A50028001C32289
:0F301500EFC394414007EF945B50028001C32248
:102CE4008B6B8A6C896DE4F573F574E5721572AEBD
:102CF40071700215714E6033AB6EAA6FA970121118
:102D0400C5FFAB6BAA6CA96D0574E574AC73700256
:102D1400057314F5828C83EF1213ADEF60CD74014B
:102D24002570F570E4356FF56F80C0AB6BAA6CA9A4
:022D34006D220E
:102F9800E4FFFE1211C5600C0FEF70010E09E97015
:052FA800F20A80EF2297
:102E2E00E94A4B7001221211C5FF6D700122EF703D
:0C2E3E0004FBFAF92209E970ED0A80EAB1
:1028ED008B718A728973AB74AA75A9761211C56042
:1028FD0063AB71AA72A9731211C5605F8574778578
:10290D0075788576798B7A8A7B897CAB77AA78A95D
:10291D00791211C5FF6023AB7AAA7BA97C1211C570
:10292D006F7017042579F579E43578F578740125FC
:10293D007CF57CE4357BF57B80D1AB77AA78A979E2
:10294D001211C57002800D74012573F573E4357293
:10295D00F572809DAB71AA72A973227B007A007902
:02296D00002246
:102668008B5F8A608961AB5FAA60A9611211C5FF9F
:10267800122FAD500D74012561F561E43560F560E8
:1026880080E4D200AB5FAA60A9611211C5FF642B78
:102698006004EFB42D1BAB5F0561E561AA607002B1
:1026A800056014F91211C5642D6003D38001C3922B
:1026B80000E4F562F563AB5FAA60A9611211C5FF7A
:1026C8001230065036AB5FAA60A9611211C5FF33FC
:1026D80095E0FEEF24D0FBEE34FFFAAE62AF637CE8
:1026E800007D0A12120BEF2BF563EE3AF5627401C6
:1026F8002561F561E43560F56080BB300006AE62A7
:0E270800AF638009C3E49563FFE49562FE228F
:10138100EF4E6012EF60010EEDBB010B89828A8383
:10139100F0A3DFFCDEFA2289F05007F709DFFCA990
:0C13A100F022BBFEFCF309DFFCA9F022E7
:1013AD00F8BB010DE58229F582E5833AF583E8F076
:1013BD00225006E92582C8F622BBFE05E92582C822
:0213CD00F2220A
:102FAD00EFC394094005EF940E4003BF2003D38077
:032FBD0001C3222B
:00000001FF
