:102D4A00434C4F534544006E323139306537303386
:102D5A00332E696F6B2E6C61003139353635005070
:042D6A0044503A0097
:1000A600438E107F017E02122EE77D017F017E02C4
:1000B600122EA3E4F541F542F537F538E54A640119
:1000C6004549700D1220CCE4F549F54AF54B754CBF
:1000D600017F017E06122E8BEF3395E0FEEF64065C
:1000E6004E7041900032E0640970030203B890003C
:1000F60032E064CC60030206A87F017E02122E8BDA
:10010600900070EFF07F017E06122E8B900071EF4B
:10011600F0FB900070E0FD7FCC12137FE49000327C
:10012600F00206A8900032E064CC70237F017E02C4
:10013600122E8B900070EFF07F017E06122E8B90B0
:100146000071EFF0FB900070E0FD7FCC0203809021
:100156000032E064017024FFFE122E599000717483
:1001660004F07F017E06122EE77D047F017E0612D3
:100176002EA37B047D017F11020380900032E06490
:10018600026003020218FFFEFDFCAB40AA3FA93E37
:10019600A83DD31212C440177F017E00122E59903B
:1001A60000717401F0FF7E06122EE77D018050E497
:1001B600FFFEFDFCAB40AA3FA93EA83DC31212C4F8
:1001C6007015FFFE122E599000717401F0FF7E0625
:1001D600122EE77D028028E4FFFEFDFCAB40AA3F1D
:1001E600A93EA83DC31212C4501CE4FFFE122E59AC
:1001F6009000717402F07F017E06122EE77D027F69
:10020600017E06122EA3900071E0FB7D017F220283
:100216000380900032E0640560030203581229133C
:100226009000821212E8AF40AE3FAD3EAC3D90006A
:10023600861212E8900082E0FCA3E0FDA3E0FEA394
:10024600E0FFA3E0F8A3E0F9A3E0FAA3E02FF5406E
:10025600EA3EF53FE93DF53EE83CF53DAF40AE3FB1
:10026600AD3EFC122EFD8F47AF40AE3FAD3EAC3DDE
:10027600122F128F21AF40AE3FAD3EAC3D122F275D
:100286008F22AF40AE3FAD3EAC3D122E728F487FFF
:10029600017E1C122EE7AD477F017E1C122EA3ADF8
:1002A600217F027E1C122EA3AD227F037E1C122EFE
:1002B600A3AD487F047E1C122EA3E4FFFEFDFCAB1B
:1002C60040AA3FA93EA83DD31212C440177F017E23
:1002D60000122E599000717401F0FF7E06122EE76F
:1002E6007D018050E4FFFEFDFCAB40AA3FA93EA87D
:1002F6003DC31212C47015FFFE122E599000717480
:1003060001F0FF7E06122EE77D028028E4FFFEFD47
:10031600FCAB40AA3FA93EA83DC31212C4501CE440
:10032600FFFE122E599000717402F07F017E0612B4
:100336002EE77D027F017E06122EA3900071E0FB60
:100346007D017F5512137FE4900033F0900034F066
:10035600802C900032E0640D702B7F017E02122EFD
:100366008B900070EFF07F017E06122E8B9000714D
:10037600EFF0FB900070E0FD7FDD12137FE490004C
:1003860032F00204BB900032E0640A701DFFFE12D8
:100396002E59121FDF900070E0FD900071E0FB7F88
:1003A600AA12137FE4900032F022900032E0640932
:1003B600701EFFFE122E591226BA900070E0FD90B4
:1003C6000071E0FB7F9912137F9000327408F022CF
:1003D600900032E0640F60030204BBE5246401452B
:1003E600237033FFFE122E59900071740CF07F01BA
:1003F6007E06122EE77D0C7F017E06122EA390004C
:1004060071E0FB7D017FFF12137FE4900032F0F56F
:1004160023F5240204BBE524452360030204BBFF45
:10042600FEFDFCAB40AA3FA93EA83DD31212C44034
:10043600177F017E00122E599000717401F0FF7E25
:1004460006122EE77D018050E4FFFEFDFCAB40AABC
:100456003FA93EA83DC31212C47015FFFE122E59C5
:100466009000717401F0FF7E06122EE77D0280284F
:10047600E4FFFEFDFCAB40AA3FA93EA83DC3121215
:10048600C4501CE4FFFE122E599000717402F07FD6
:10049600017E06122EE77D027F017E06122EA390B4
:1004A6000071E0FB7D017FFF12137FE4900032F0C4
:1004B600F523752401E53864014537600302054BD1
:1004C600FFFEFDFCAB40AA3FA93EA83DD31212C4D5
:1004D60040177F017E00122E599000717401F0FFC3
:1004E6007E06122EE77D018050E4FFFEFDFCAB4048
:1004F600AA3FA93EA83DC31212C47015FFFE122ED4
:10050600599000717401F0FF7E06122EE77D02807D
:1005160028E4FFFEFDFCAB40AA3FA93EA83DC3125E
:1005260012C4501CE4FFFE122E599000717402F0A2
:100536007F017E06122EE77D027F017E06122EA324
:10054600E4F537F538E5426401454160030206A843
:10055600FFFEFDFCAB40AA3FA93EA83DD31212C444
:1005660040177F017E00122E599000717401F0FF32
:100576007E06122EE77D018050E4FFFEFDFCAB40B7
:10058600AA3FA93EA83DC31212C47015FFFE122E43
:10059600599000717401F0FF7E06122EE77D0280ED
:1005A60028E4FFFEFDFCAB40AA3FA93EA83DC312CE
:1005B60012C4501CE4FFFE122E599000717402F012
:1005C6007F017E06122EE77D027F017E06122EA394
:1005D600AF40AE3FAD3EAC3D122EFD8F47AF40AEB5
:1005E6003FAD3EAC3D122F128F21AF40AE3FAD3E28
:1005F600AC3D122F278F22AF40AE3FAD3EAC3D1231
:100606002E728F487F017E1C122EE7AD477F017E3A
:100616001C122EA3AD217F027E1C122EA3AD227FBB
:10062600037E1C122EA3AD487F047E1C122EA3AFA0
:1006360032AE31AD30AC2F122EFD8F45AF32AE311A
:10064600AD30AC2F122F128F51AF32AE31AD30AC70
:100656002F122F278F52AF32AE31AD30AC2F122E64
:10066600728F467F017E20122EE7AD457F017E1CEC
:10067600122EA3AD517F027E1C122EA3AD527F0314
:100686007E1C122EA3AD467F047E1C122EA3900064
:1006960070E0FD900071E0FB7F0612137FE4F541E8
:1006A600F542756E00756F007570007BFF7A2D79C7
:1006B6004A1224BBEF64014E604D755F0075600001
:1006C6007561007BFF7A2D794A12256BEF64014E26
:1006D60070028033756E00756F007570007BFF7A4F
:1006E6002D79691224BBEF64014E601B755F00759E
:1006F60060007561007BFF7A2D796912256BEF64C6
:10070600014E60030200C2120026755FFF75602D60
:100716007561637BFF7A2D7951121DC2754B007589
:100726004C019000327408F07B017A007900122F98
:0A073600F17B017A007936122FF1F1
:010740002296
:102E59008E558F56E556640145557003122FC8E506
:092E69005645557003122FD622C4
:052E3F00E0FEA3E0FF2E
:102E4400E4900094F0A3F0EEFF3395E0FE9000943C
:042E5400F0A3EFF008
:012E58002257
:05000E00E0FEA3E0FF8D
:0F001300E4900094F0A3F0FE900094F0A3EFF0BF
:0100220022BB
:102EFD00E490008AF0A3F078181212D590008AEEB3
:042F0D00F0A3EFF04E
:012F1100229D
:102F1200E490008AF0A3F078101212D590008AEEA5
:042F2200F0A3EFF039
:012F26002288
:102F2700E490008AF0A3F078081212D590008AEE98
:042F3700F0A3EFF024
:012F3B002273
:082E72008F588E578D568C55C8
:102E7A00E490008AF0A3F0E4FE90008AF0A3EFF059
:012E8A002225
:032DB600FFE0FD3E
:102DB900E4900090F0A3F0EFFE7C00E42DFFEC3EE0
:082DC900FE900090F0A3EFF072
:012DD10022DF
:0C2763008E538F548C558D568A578B581E
:10276F009000821212F400000000AE53E554781866
:10277F00C333CE33CED8F9FFEE3395E0FDFCC00462
:10278F00C005C006C007AE55E5567810C333CE332B
:10279F00CED8F9FFEE3395E0FDFCD003D002D00187
:1027AF00D000EB2FFFEA3EFEE93DFDE83CFCA8041C
:1027BF00A905AA06AB07E5587F00FE3395E0FDFC9F
:1027CF00EF2BFBEA3EFAE93DF9E83CF8AE59EE3360
:1027DF0095E0FDFCEB255AFFEA3EFEE93DFDE83CA6
:1027EF00FC9000821212E8900082E0FCA3E0FDA3AF
:0527FF00E0FEA3E0FF75
:0128040022B1
:101C610090005FE0FF90005EE02FFFE433FE900004
:101C710060E07C002FFFEC3EFE900061E02FFFEC66
:101C81003EFE900070E02FFFEC3EFE900032E02F10
:101C9100FFEC3EFE900071E02FFFEC3EFE900062F3
:101CA100E02FFFEC3EFE900063E02FFFEC3EFE9044
:101CB1000033E02FFFEC3EFE900034E02FFFEC3EBE
:101CC100FE900035E02FFFEC3EFE90005AE02FFF22
:101CD100EC3EFE900072E02FFFEC3EFE900073E0C0
:101CE1002FFFEC3EFE900076E02FFFEC3EFE9000D1
:101CF10077E02FFFEC3EFE900078E02FFFEC3EFEF8
:101D0100900079E02FFFEC3EFE90007AE02FFFEC8F
:101D11003EFE90007BE02FFFEC3EFE900064E02F42
:101D2100FFEC3EFE900065E02FFFEC3EFE90005B75
:101D3100E02FFFEC3EFE900066E02FFFEC3EFE90B0
:101D41000068E02FFFEC3EFE900067E02FFFEC3EC5
:101D5100FE90006AE02FFFEC3EFE900069E02FFF4D
:101D6100EC3EFE90006CE02FFFEC3EFE90006BE03D
:101D71002FFFEC3EFE90006EE02FFFEC3EFE900048
:101D81006DE02FFFEC3EFE90006FE02FFFEC3EFE7A
:101D910090008EF0A3EFF0122E44EE8FF01211C1DD
:101DA10090008E12000EAB5FAA60A961EE8FF00267
:021DB10011C15E
:102A7D008F6E122FAA5010AF6EEF3395E0FEEF243C
:102A8D00D0FFEE34FFFE22AF6EEF3395E0FEC3EFC5
:102A9D009441EE648094804040D3EF9446EE648080
:102AAD009480400AEF9461EE64809480402BD3EFC4
:102ABD00947AEE648094804002801EAF6E122E24B4
:102ACD005017AF6E122FB9E56E500524C9FF800364
:0E2ADD0024A9FFEF3395E0FE227EFF7FFF224B
:0621B9008B6B8A6C896D3E
:1021BF00E4900084F0A3F0122F3C900082EEF0A385
:1021CF00EFF0E490008AF0A3F0022279900082E011
:1021DF00FEA3E0FFC390008BE09FEE6480F89000B9
:1021EF008AE06480984003022282AB6BAA6CA96DCF
:1021FF00E0FEA3E0F5828E83121182FF122A7D90FA
:10220F000086EEF0A3EFF090008AE0FEA3E0FFC39C
:10221F00900083E09FFF900082E09ECF24FFCF3499
:10222F00FFFEEF7802C333CE33CED8F9FF9000888C
:10223F00EEF0A3EFF0900086E0FEA3E0A807088081
:10224F0005C333CE33CED8F9FF900086EEF0A3EF5F
:10225F00F0900084E04EF0A3E04FF090008BE0048C
:10226F00F0700690008AE004F0E4900086F0A3F08E
:0B227F000221DB900084E0FEA3E0FFE2
:01228A002231
:10291300E490008AF0A3F0A31212F40000000090E8
:102923000033E0900034122DB690008AEEF0A3EF4E
:10293300F0E4F553F554D390008BE0955490008A5E
:10294300E09553403790008CE0F8A3E0F9A3E0FA58
:10295300A3E0FB900095E493FE740193FFE4FCFD78
:10296300EB2FFFEA3EFEED39FDEC38FC90008C12B4
:1029730012E80554E55470BE055380BA90008CE00C
:0A298300FCA3E0FDA3E0FEA3E0FFCB
:01298D002227
:10298E00E4900082F0A3F0A31212F4000000009075
:10299E000062E0900063122DB6900082EEF0A3EF7D
:1029AE00F0E4F555F556D3900083E09556900082ED
:1029BE00E095554037900084E0F8A3E0F9A3E0FAE3
:1029CE00A3E0FB900097E493FE740193FFE4FCFDFB
:1029DE00EB2FFFEA3EFEED39FDEC38FC9000841241
:1029EE0012E80556E55670BE055580BA900084E093
:0A29FE00FCA3E0FDA3E0FEA3E0FF50
:012A080022AB
:10228B00900097E493FE740193FBAA06E4F9F8AF70
:10229B0028AE27AD26AC2512121C90008EEEF0A3B3
:1022AB00EFF0900070E064057005900097800B9044
:1022BB000070E06401702190009593FE740193FB14
:1022CB00AA06E4F9F8AF40AE3FAD3EAC3D12121C8E
:1022DB00900090EEF0A3EFF0900095E493FE740164
:1022EB0093FBAA06E4F9F8AF32AE31AD30AC2F1246
:1022FB00121C900092EEF0A3EFF090008E122E3F86
:10230B00900062EFF090008E12000E900063EFF0E1
:10231B00900090122E3F900072EFF0900090120000
:10232B000E900073EFF0900092122E3F900078EF1A
:0C233B00F090009212000E900079EFF07C
:012347002273
:101FDF007F017E00122EE7E4FD7F01FE122EA3E4A7
:101FEF00FD7F02FE122EA3E4FD7F03FE122EA3E45B
:101FFF00FD7F04FE122EA37F017E02122EE77D05C8
:10200F007F017E02122EA39000707405F0E4900001
:10201F0032F07F017E06122EE7E4FD7F017E06126D
:10202F002EA3E4900071F0900062F0900063F090A6
:10203F000033F0900034F0900035F090005AF0909B
:10204F000072F0900073F0900076F0900077F090AF
:10205F000078F0900079F090007AF090007BF0908B
:10206F000064F0900065F07F017E1C122EE7E4FD06
:10207F007F017E1C122EA3E4FD7F027E1C122EA375
:10208F00E4FD7F037E1C122EA3E4FD7F047E1C1251
:10209F002EA37F017E20122EE7E4FD7F017E20120A
:1020AF002EA3E4FD7F027E20122EA3E4FD7F037E8C
:0D20BF0020122EA3E4FD7F047E20022EA33C
:1026BA00E4900032F07F017E02122EE7900070E073
:1026CA00FD7F017E02122EA37F017E06122EE79065
:1026DA000071E0FD7F017E06122EA3900072E0FFDA
:1026EA00900073E0FD122DB9900095E493FC7401FB
:1026FA0093FD1211AFE48F408E3FF53EF53DAD3E9E
:10270A00AC3D122EFD8F47AF40AE3FAD3EAC3D1201
:10271A002F128F21AF40AE3FAD3EAC3D122F278F17
:10272A0022AF40AE3FAD3EAC3D122E728F487F01C4
:10273A007E1C122EE7AD477F017E1C122EA3AD210F
:10274A007F027E1C122EA3AD227F037E1C122EA3B3
:09275A00AD487F047E1C022EA391
:102D6E00434C4F534544006E323139306537303362
:102D7E00332E696F6B2E6C6100313935363500504C
:042D8E0044503A0073
:100C8500E4F553F554FFFE122E597F017E02122E14
:100C9500E77D057F017E02122EA3538EEF53D1F718
:100CA500E54A64014549700D1220CCE4F549F54A41
:100CB500F54B754C017F017E06122E8BEF3395E0C7
:100CC500FEEF64064E7018900032E064097003026E
:100CD5000D6E900032E064CC6003020FBD80089079
:100CE5000032E064CC70237F017E02122E8B9000CF
:100CF50070EFF07F017E06122E8B900071EFF0FBF6
:100D0500900070E0FD7FCC020FB5900032E06401E9
:100D15007024FFFE122E599000717404F07F017E3D
:100D250006122EE77D047F017E06122EA37B047D2D
:100D3500057F11020FB5900032E064027023FFFEBB
:100D4500122E599000717401F0FF7E06122EE77D78
:100D5500017F017E06122EA37B017D057F22020FF6
:100D6500B5900032E06409701EFFFE122E5912265E
:100D7500BA900070E0FD900071E0FB7F9912137F3F
:100D85009000327408F022900032E0640A701AFF75
:100D9500FE122E59121FDF900070E0FDE4FB7FAAC2
:100DA50012137FE4900032F022900032E0640D705F
:100DB500237F017E02122E8B900070EFF07F017E63
:100DC50006122E8B900071EFF0FB900070E0FD7F16
:100DD500DD020FB5900032E0640F7056FFFE122E53
:100DE50059E52464014523701D900071740CF07F52
:100DF500017E06122EE77D0C7F017E06122EA3E4EE
:100E0500F523F5248020E5244523701A900071040C
:100E1500F0FF7E06122EE77D017F017E06122EA3CE
:100E2500752300752401900071E0FB7D057FFF02AD
:100E35000FB5900032E064816003020FA790007146
:100E450004F0FF7E06122EE77D017F017E06122E3D
:100E5500A312298E8F408E3F8D3E8C3D7F017E00F3
:100E6500122E59E4F528F527F526F5257B017D0594
:100E75007F9112137FE4F53BF53CF52DF52E020F1E
:100E850021900032E064827011FFFE122E597B0121
:100E95007D057F9212137F020F27E4FFFEFDFCAB59
:100EA50040AA3FA93EA83DD31212C45015E4FFFE47
:100EB500122E59755300755401E4F540F53FF53E82
:100EC500F53DE5426401454170B7F541F542FFFE48
:100ED500FDFCAB40AA3FA93EA83DD31212C4500960
:100EE500E4F540F53FF53EF53DE4FFFEFDFCAB289E
:100EF500AA27A926A825C31212C460097B017D056E
:100F05007F0612137FE4F528F527F526F525E55428
:100F1500640145537006F553F554800643D1080224
:100F25000E86538EEF43D108AF32AE31AD30AC2FC4
:100F3500122EFD8F45AF32AE31AD30AC2F122F12D0
:100F45008F51AF32AE31AD30AC2F122F278F52AF4C
:100F550032AE31AD30AC2F122E728F467F017E201E
:100F6500122EE7AD457F017E1C122EA3AD517F02E7
:100F75007E1C122EA3AD527F037E1C122EA3AD46FE
:100F85007F047E1C122EA3E4F528F527F526F5250A
:100F9500F540F53FF53EF53D900062F0900063F0B9
:100FA5008012900032E06482700E7B017D057F9295
:100FB50012137FE4900032F0756E00756F00757046
:100FC500007BFF7A2D796E1224BBEF64014E604DD4
:100FD500755F007560007561007BFF7A2D796E1273
:100FE500256BEF64014E70028033756E00756F00DE
:100FF5007570007BFF7A2D798D1224BBEF64014E4D
:10100500601B755F007560007561007BFF7A2D7947
:101015008D12256BEF64014E6003020CA5120026AC
:10102500755FFF75602D7561877BFF7A2D79751268
:101035001DC27F017E02122E8B7F017E06122E8B32
:10104500900070E0FD900071E0FBE4FF12137F75E6
:101055004B00754C019000327408F07B017A0079E1
:0D10650000122FF17B017A007936122FF175
:01107200225B
:101ED80041540A004F4B0041542B4350494E3F0D8B
:101EE8000A002B4350494E3A0041542B4352454770
:101EF8003F0D0A002B435245473A0041542B4349B2
:101F0800505153454E443D300D0A0041542B43492E
:101F18005053544152543D00544350000D0A00435D
:101F28004F4E4E454354204F4B00414C524541447F
:101F38005920434F4E4E45435400434F4E4E454360
:101F480054204641494C0041542B4349505348556D
:101F5800540D0A0053485554204F4B0041542B430D
:101F6800495053454E443D33360D0A003E00455214
:101F7800524F52006E3231393065373033332E6963
:101F88006F6B2E6C610031393536350041542B4367
:101F9800495053454E443D340D0A0041542B435398
:101FA800510D0A002B4353513A200041542B494309
:101FB8004349440D0A002B49434349443A20000051
:101FC8000000000000000000000000000000000009
:071FD8000000000000000002
:0F24AC00756E00756F007570007BFF7A1E79DC0E
:1024BB008B6B8A6C896DAC02AD01ED4C700AE570CB
:1024CB00456F7004FE7F0122ED4C6044E570456F53
:1024DB00603E856B74856C75856D767B017A0079B2
:1024EB0000122891EA494B601D856E74856F7585C6
:1024FB0070767B017A007900122891EA494B6006CD
:10250B007E007F0180047E007F00EF4E603F8038AD
:10251B00E56D456C601B856B74856C75856D767B85
:10252B00017A007900122891E94A4B6002801980E8
:10253B001C856E74856F758570767B017A007900CA
:10254B00122891E94A4B60057E007F0122E4FEFFD1
:01255B00225D
:0F255C00755F007560007561007BFF7A1F7976EF
:10256B008B5C8A5D895EAC02AD01ED4C700AE56156
:10257B0045607004FE7F0122ED4C6044E5614560CF
:10258B00603E855C74855D75855E767B017A00792E
:10259B0036122891EA494B601D855F7485607585FD
:1025AB0061767B017A007936122891EA494B6006F5
:1025BB007E007F0180047E007F00EF4E603F8038FD
:1025CB00E55E455D601B855C74855D75855E767B20
:1025DB00017A007936122891E94A4B600280198002
:1025EB001C855F748560758561767B017A00793611
:1025FB00122891E94A4B60057E007F0122E4FEFF21
:01260B0022AC
:102EBB00122DEEC2B57F017E00122E097FC87E0057
:062ECB00122ED1D2B52247
:1023FB0080071224ACEF4E70317B017A007900120A
:10240B002FF17BFF7A1E79D8122D257FF47E0112D6
:10241B002ED180DE756EFF756F1E7570DC7BFF7ABB
:10242B001E79EA1224BBEF4E70317B017A007900E2
:10243B00122FF17BFF7A1E79DF122D257FF47E019F
:10244B00122ED180CF756E00756F007570007BFFFB
:10245B007A1E79FC1224BBEF4E70227B017A007935
:10246B0000122FF17BFF7A1E79F1122D257FF47E5E
:10247B0001122ED180CF1224ACEF4E701B7B017A50
:10248B00007900122FF17BFF7A1F7903122D257F24
:10249B00F47E01122ED180DE7B017A007900022FAF
:0124AB00F13F
:0F1DB300755FFF75601F75618E7BFF7A1F797CEE
:101DC2008B5C8A5D895E7BFF7A1F7913122D257FDA
:101DD200221200037BFF7A1F7920122D257F221207
:101DE20000037F2C1200037F22120003AB5CAA5D6A
:101DF200A95E122D257F221200037F2C1200037F81
:101E020022120003AB5FAA60A961122D257F221264
:101E120000037BFF7A1F7924122D257F887E1312FF
:101E22002ED1756E00756F007570007BFF7A1F7979
:101E3200271224BBEF64014E70028018756E007584
:101E42006F007570007BFF7A1F79321224BBEF643A
:101E5200014E70097B017A007900022FF1756E0044
:101E6200756F007570007BFF7A1F79421224BBEFF9
:101E720064014E70AD7B017A007900122FF17BFF75
:101E82007A1F7913122D257F221200037BFF7A1FFE
:101E92007920122D257F221200037F2C1200037F4E
:101EA20022120003AB5CAA5DA95E122D257F2212CD
:101EB20000037F2C1200037F22120003AB5FAA6093
:101EC200A961122D257F221200037BFF7A1F79243C
:061ED200122D25021E2462
:100026008016756E00756F007570007BFF7A1F79FC
:100036005C1224BBEF4E701B7B017A007936122FBF
:10004600F17BFF7A1F794F122D257F887E13122EA2
:0C005600D180CF7B017A007936022FF1B7
:0C137300900070E0FD900071E0FBE4FFD2
:06137F008F578D588B59B9
:10138500E4F55AF55B7B017A007900122FF1E4F55B
:101395004BF54C122AEB7BFF7A1F7964122D2575CC
:1013A5006E00756F007570007BFF7A1F79741224CB
:1013B500BBEF64014E604D756E00756F0075700072
:1013C5007BFF7A1F79761224BBEF64014E60091208
:1013D500255CEF64014E70C7120026121DB37F0114
:1013E5007E02122E8B7F017E06122E8B1213737BCB
:1013F500017A007900122FF17B017A007936122FDC
:10140500F10213A47B017A007900122FF17B017A96
:10141500007936122FF17F017E00122E8B90005E2F
:10142500EFF07F027E00122E8B90005FEFF07F03BE
:101435007E00122E8B900060EFF07F047E00122E4E
:101445008B900061EFF0900032E557F0900070E569
:1014550058F0900071E559F012228B7F017E1A1227
:101465002E8B900066EFF07F027E1A122E8B900075
:1014750068EFF07F037E1A122E8B900067EFF07FE6
:10148500047E1A122E8B90006AEFF07F057E1A12E9
:101495002E8B900069EFF07F067E1A122E8B90003E
:1014A5006CEFF07F077E1A122E8B90006BEFF07FAA
:1014B500087E1A122E8B90006EEFF07F097E1A12AD
:1014C5002E8B90006DEFF07F0A7E1A122E8B900006
:1014D5006FEFF0755F0175600075618C7B017A00B7
:1014E500798A121C6190008AA3E090005CF090005C
:1014F5008CA3E090005DF090005EE0FF1200039089
:10150500005FE0FF120003900060E0FF120003900F
:101515000061E0FF120003900070E0FF12000390ED
:101525000032E0FF120003900071E0FF120003900B
:101535000062E0FF120003900063E0FF12000390D9
:101545000033E0FF120003900034E0FF1200039027
:101555000035E0FF12000390005AE0FF12000390EF
:101565000072E0FF120003900073E0FF1200039089
:101575000076E0FF120003900077E0FF1200039071
:101585000078E0FF120003900079E0FF120003905D
:10159500007AE0FF12000390007BE0FF1200039049
:1015A5000064E0FF120003900065E0FF1200039065
:1015B500005BE0FF120003900066E0FF120003905D
:1015C5000068E0FF120003900067E0FF120003903F
:1015D500006AE0FF120003900069E0FF120003902B
:1015E500006CE0FF12000390006BE0FF1200039017
:1015F500006EE0FF12000390006DE0FF1200039003
:10160500006FE0FF12000390005CE0FF1200039002
:10161500005DE0FF120003E4900032F01224ACEF0D
:0A16250064014E70F7F54B754C019F
:01162F002298
:1020CC00E4F555F5567B017A007900122FF1E4F511
:1020DC004BF54C7F01FE122E8B90005EEFF07F02D1
:1020EC007E00122E8B90005FEFF07F037E00122E8D
:1020FC008B900060EFF07F047E00122E8B900061BD
:10210C00EFF07BFF7A1F7994122D25756E00756F99
:10211C00007570007BFF7A1F79741224BBEF640189
:10212C004E6052756E00756F007570007BFF7A1FE4
:10213C0079761224BBEF64014E600912255CEF64C2
:10214C00014E70C7120026121DB37F017E02122EA3
:10215C008B7F017E06122E8B121373E4900032F0EB
:10216C007B017A007900122FF17B017A007936120B
:10217C002FF10221177B017A007900122FF19000C8
:10218C005EE0FF12000390005FE0FF12000390007E
:10219C0060E0FF120003900061E0FF1200031224C4
:0C21AC00ACEF64014E70F7F54B754C0170
:0121B8002204
:102AEB008016756E00756F007570007BFF7A1F790D
:102AFB00AC1224BBEF4E701B7B017A007900122FB6
:102B0B00F17BFF7A1F79A3122D257FF47E01122E04
:102B1B00D180CF7B017A0079007D20122DD28B6E74
:102B2B008A6F89707B007A00795C7571007572030E
:102B3B00122C8812260C90005BEFF07F017E18128E
:0E2B4B002EE790005BE0FD7F017E18022EA3B6
:1018B70078537C007D007BFF7A1F79C77E007F15F8
:1018C70012114378687C007D007BFF7A1F79DC7EEC
:1018D700007F031211438016756E00756F007570D7
:1018E700007BFF7A1F79BE1224BBEF4E701B7B0172
:1018F7007A007900122FF17BFF7A1F79B3122D2519
:101907007FF47E01122ED180CF7B017A0079007D92
:1019170020122DD2E92401F9E43A8B6EF56F897014
:101927007B007A007953757100757214122C8875D3
:101937006E00756F007570537571007572027B00CC
:101947007A007968122C887B007A0079681221B9AD
:10195700900066EFF07F017E1A122EE7900066E096
:10196700FD7F017E1A122EA3756E00756F007570CC
:10197700557571007572027B007A007968122C88A0
:101987007B007A0079681221B9900068EFF0FD7F3B
:10199700027E1A122EA3756E00756F00757057754B
:1019A70071007572027B007A007968122C887B00BF
:1019B7007A0079681221B9900067EFF0FD7F037E06
:1019C7001A122EA3756E00756F0075705975710028
:1019D7007572027B007A007968122C887B007A0086
:1019E70079681221B990006AEFF0FD7F047E1A1220
:1019F7002EA3756E00756F0075705B75710075723B
:101A0700027B007A007968122C887B007A0079685B
:101A17001221B9900069EFF0FD7F057E1A122EA3FF
:101A2700756E00756F0075705D7571007572027B5C
:101A3700007A007968122C887B007A007968122175
:101A4700B990006CEFF0FD7F067E1A122EA3756E1B
:101A570000756F0075705F7571007572027B007A93
:101A6700007968122C887B007A0079681221B99076
:101A7700006BEFF0FD7F077E1A122EA3756E0075BF
:101A87006F007570617571007572027B007A00795D
:101A970068122C887B007A0079681221B990006E51
:101AA700EFF0FD7F087E1A122EA3756E00756F008A
:101AB7007570637571007572027B007A0079681220
:101AC7002C887B007A0079681221B990006DEFF0BD
:101AD700FD7F097E1A122EA3756E00756F00757053
:101AE700657571007572027B007A007968122C881F
:101AF7007B007A0079681221B990006FEFF0FD7FC3
:061B07000A7E1A022EA363
:102DEE00759850758E40538EFEE4F589758BCC75B3
:0B2DFE008DFFC2ABD28ED2AFD2AC2250
:080003008F993099FDC299228A
:102D25008B6B8A6C896DAB6BAA6CA96D121169608E
:102D350013056DE56D7002056C14F9121169FF122A
:052D4500000380E22202
:102B59007E007F00E490007CF0A3F0A3F08F828ECA
:102B690083E599F0E490007DF0A3F0C29890007C91
:102B7900E0FD3395E0FCC3ED9432EC648094805021
:102B890032E004F00FBF00010E2098D1C2C89000B6
:102B99007EE004F0700690007DE004F0D390007EA2
:102BA900E094C890007DE06480948040DCD2C8E461
:092BB900FEFF22D2C87E007F015C
:012BC20022F0
:102BC3007E007F36E490007CF0A3F0A3F08F828E2A
:102BD30083E599F0E490007DF0A3F0C29890007C27
:102BE300E0FD3395E0FCC3ED9423EC6480948050C6
:102BF30032E004F00FBF00010E2098D1C2C990004B
:102C03007EE004F0700690007DE004F0D390007E37
:102C1300E094C890007DE06480948040DCD2C9E4F5
:092C2300FEFF22D2C97E007F01F0
:012C2C002285
:10163000900036E090005EF0900037E090005FF0A0
:10164000900038E0900060F0900039E0900061F088
:1016500090003AE0900070F090003BE0900032F093
:1016600090003CE0900071F090003DE0900062F04E
:1016700090003EE0900063F090003FE0900033F077
:10168000900040E0900034F0900041E0900035F090
:10169000900042E090005AF0900043E0900072F019
:1016A000900044E0900073F0900045E0900076F0E8
:1016B000900046E0900077F0900047E0900078F0CE
:1016C000900048E0900079F0900049E090007AF0B6
:1016D00090004AE090007BF090004BE0900064F0B6
:1016E00090004CE0900065F090004DE090005BF0C1
:1016F00090004EE0900066F090004FE0900068F09F
:10170000900050E0900067F0900051E090006AF087
:10171000900052E0900069F0900053E090006CF06F
:10172000900054E090006BF0900055E090006EF057
:10173000900056E090006DF0900057E090006FF040
:10174000900058E090005CF0900059E090005DF04F
:101750007B017A007936122FF190005FE0FF900054
:101760005EE02FFFE433FE900060E07C002FFFEC92
:101770003EFE900061E02FFFEC3EFE900070E02FF7
:10178000FFEC3EFE900032E02FFFEC3EFE90007139
:10179000E02FFFEC3EFE900062E02FFFEC3EFE905B
:1017A0000063E02FFFEC3EFE900033E02FFFEC3EA5
:1017B000FE900034E02FFFEC3EFE900035E02FFF5E
:1017C000EC3EFE90005AE02FFFEC3EFE900072E0EF
:1017D0002FFFEC3EFE900073E02FFFEC3EFE9000EA
:1017E00076E02FFFEC3EFE900077E02FFFEC3EFE10
:1017F000900078E02FFFEC3EFE900079E02FFFECA8
:101800003EFE90007AE02FFFEC3EFE90007BE02F42
:10181000FFEC3EFE900064E02FFFEC3EFE90006582
:10182000E02FFFEC3EFE90005BE02FFFEC3EFE90D1
:101830000066E02FFFEC3EFE900068E02FFFEC3EDC
:10184000FE900067E02FFFEC3EFE90006AE02FFF65
:10185000EC3EFE900069E02FFFEC3EFE90006CE055
:101860002FFFEC3EFE90006BE02FFFEC3EFE900061
:101870006EE02FFFEC3EFE90006DE02FFFEC3EFE91
:1018800090006FE02FFFEC3E90007CF0A3EFF09013
:10189000007CE0FE3395E090007EF0A3CEF07E0069
:1018A000A3EEF0A3EFF090005DE06F7001EC600636
:0618B00090003274CCF040
:0118B600220F
:092FF1007E007F247D00021325FF
:0300230002006672
:10006600C0E0C0F0C083C082C0D075D008E54C6443
:1000760001454B700C122BC3EF4E600812163080F0
:0F00860003122B59D0D0D082D083D0F0D0E032EB
:102E0900EF1FAC0670011E4C601000007D7A7CC17A
:0A2E19007B80DBFEDCFCDDFA80E6C6
:012E2300228C
:102ED100EF1FAC0670011E4C600B007D207C28DCCE
:052EE100FEDDFC80EBAA
:012EE60022C9
:072FFA00E4F5957596302205
:0E2FC800C2A4D2A57F147E00122ED1C2A52273
:0E2FD600D2A4C2A57F147E00122ED1C2A42266
:102F9A00758904758AFF758CFFD28CD2A9D2AF22AB
:102F6400438E0475D74075D6A2538EEF43AF04D277
:022F7400AF228A
:102F760043D10275D54075D4A253D1F743AF20D2C1
:022F8600AF2278
:102F880043D12075D34075D2A243D18043AF40D2FC
:022F9800AF2266
:03000B00022CDAEA
:102CDA00C0E0C0D0E5282401F528E43527F527E42B
:102CEA003526F526E43525F525E54024FFF540E5AA
:102CFA003F34FFF53FE53E34FFF53EE53D34FFF551
:102D0A003DE5322401F532E43531F531E43530F56B
:0B2D1A0030E4352FF52FD0D0D0E03290
:03006300022A0965
:102A0900C0E0C0F0C083C082C0D075D008E52C45B5
:102A19002B700685272985282A052CE52C700205A7
:102A29002BB4D042E52BB4073D752B00752C00AEB5
:102A390029AF2AAB0FAA0EEA3395E0F9F8C3E528C6
:102A49009BFFE5279AFEE52699FDE52598FCE47BA1
:102A590005FAF9F8D31212C4500C7537007538010C
:102A6900538EEF43D10853EFFED0D0D082D083D01C
:042A7900F0D0E03287
:03009B00022348F5
:10234800C0E0C0F0C083C082C0D075D008E53C456D
:102358003B700685273985283A053CE53C7002051F
:102368003BE52EB4B82FE52DB40B2A753B00753C20
:1023780000752D00752E0075410075420153D1F787
:102388007F017E02122E8BEF3395E0FEEF64014E43
:102398007003438E10E53C6464453B7048F53BF59B
:1023A8003CAE39AF3AAB0FAA0EEA3395E0F9F8C361
:1023B800E5289BFFE5279AFEE52699FDE52598FC8B
:1023C800E47B05FAF9F8C31212C4400D7464252E93
:1023D800F52EE4352DF52D8006752D00752E00851A
:1023E800273985283A53EFFDD0D0D082D083D0F05A
:0323F800D0E03200
:0300A300022C2DFF
:102C2D00C0E0C0F0C083C082C0D075D008E4FAF90E
:102C3D00F8E5362401F536EA3535F535E93534F55F
:102C4D0034E83533F5337F407E7E7D057C00AB3631
:102C5D00AA35A934F8C31212AE7012F54D754E0196
:102C6D00F549754A01F536F535F534F53353EFFB76
:0B2C7D00D0D0D082D083D0F0D0E03265
:0D2FE400E4F5C7F5C5F5C675C380F5C42238
:102E8B0075C78175C5018FC4EEFF8FC375C65A75A3
:082E9B00C6A500AFC2022FE43E
:102EA30075C78175C5028FC4EEFF8FC38DC275C60A
:082EB3005A75C6A500022FE4C8
:102EE70075C78175C5038FC4EEFF8FC375C65A7545
:062EF700C6A500022FE455
:03000000022805CE
:0C280500787FE4F6D8FD75817C02284C39
:102D92006E3231393065373033332E696F6B2E6CBA
:102DA2006100313935363500434C4F5345440050AC
:042DB20044503A004F
:10074100C2C9122EBB7F057E00122E09D2C9122FFB
:10075100FA122F9A122F64122F76122F887F017EA0
:100761001E122E8BEF3395E0F54F8F504550701EC2
:100771000550E5507002054F7F017E1E122EE7AD38
:10078100507F017E1E122EA3121FDF020825055085
:10079100E5507002054F7F017E1E122EE7AD507F9E
:1007A100017E1E122EA37F017E02122E8B900070FD
:1007B100EFF07F017E06122E8B900071EFF07F012A
:1007C1007E1C122E8B8F477F027E1C122E8B8F2157
:1007D1007F037E1C122E8B8F227F047E1C122E8B98
:1007E1008F48AF477E00AD217C00AB227A00E548FF
:1007F100755900F55A1227638F408E3F8D3E8C3D0F
:100801007F017E20122E8B8F457F027E20122E8B40
:100811008F517F037E20122E8B8F527F047E2012F8
:100821002E8B8F46C2C87FF47E01122ED1D2C81200
:1008310023FB1218B7120026755FFF75602D7561D5
:10084100A47BFF7A2D7992121DC27F017E00122EA8
:100851008B90005EEFF07F027E00122E8B90005F86
:10086100EFF07F037E00122E8B900060EFF07F048B
:100871007E00122E8B900061EFF090005EE060032D
:10088100020A8290005FE06003020A82900060E049
:100891006003020A82900061E06003020A82900014
:1008A100717406F07F01FE122EE77D067F017E0640
:1008B100122EA3020A70900032E0640470667F0178
:1008C1007E02122E8B900070EFF07F017E06122EB9
:1008D1008B900071EFF07F017E00122EE790005E99
:1008E100E0FD7F017E00122EA390005FE0FD7F02FC
:1008F1007E00122EA3900060E0FD7F037E00122E89
:10090100A3900061E0FD7F047E00122EA390007091
:10091100E0FD900071E0FB7F4412137FE490003210
:10092100F0020B4D900032E064CC70287F017E0212
:10093100122E8B900070EFF07F017E06122E8B90AD
:100941000071EFF0FB900070E0FD7FCC12137FE4AB
:10095100900032F0756E00756F007570007BFF7A44
:100961002D79AA1224BBEF64014E6018755F0075E2
:1009710060007561007BFF7A2D79AA12256BEF6407
:10098100014E7056120026755FFF75602D7561A4CA
:100991007BFF7A2D7992121DC29000717406F07F4F
:1009A10001FE122EE77D067F017E06122EA3900026
:1009B10070E0FD900071E0FB7F0412137F754B0026
:1009C100754C01E4900032F07B017A007900122F1E
:1009D100F17B017A007936122FF1756E00756F0087
:1009E1007570007BFF7A2D79B11224BBEF64014E43
:1009F1006018755F007560007561007BFF7A2D7965
:100A0100B112256BEF64014E7056120026755FFF1F
:100A110075602D7561A47BFF7A2D7992121DC290AC
:100A210000717406F07F01FE122EE77D067F017EC4
:100A310006122EA3900070E0FD900071E0FB7F0490
:100A410012137F754B00754C01E4900032F07B016D
:100A51007A007900122FF17B017A007936122FF199
:100A6100E54E6401454D60030208B7F54DF54E9022
:100A71000070E0FD900071E0FB7F0412137F02081B
:100A8100B7900032E064086012900070E0FD9000C1
:100A910071E0FBE4FF12137F020B4D756E00756F61
:100AA100007570007BFF7A2D79AA1224BBEF6401D7
:100AB1004E6018755F007560007561007BFF7A2DCF
:100AC10079AA12256BEF64014E704F120026755FF3
:100AD100FF75602D7561A47BFF7A2D7992121DC27D
:100AE1007F017E02122E8B7F017E06122E8B9000DB
:100AF10070E0FD900071E0FBE4FF12137F754B0085
:100B0100754C01E4900032F07B017A007900122FDC
:100B1100F17B017A007936122FF1756E00756F0045
:100B21007570007BFF7A2D79B11224BBEF64014E01
:100B3100607B755F007560007561007BFF7A2D79C0
:100B4100B112256BEF64014E70028061E4900032B6
:100B5100F07F017E02122E8BEF3395E0FEEF6405EC
:100B61004E7005120C8580157F017E02122E8BEFCF
:100B71003395E0FEEF64014E70031200A6756E001E
:100B8100756F007570007BFF7A2D79AA1224BBEF77
:100B910064014E6018755F007560007561007BFF30
:100BA1007A2D79AA12256BEF64014E70521200263C
:100BB100755FFF75602D7561A47BFF7A2D799212A7
:100BC1001DC27F017E02122E8B7F017E06122E8BAB
:100BD100900070E0FD900071E0FBE4FF12137F755F
:100BE1004B00754C01E4900032F07B017A007900F2
:100BF100122FF17B017A007936122FF1020B4D751C
:100C01006E00756F007570007BFF7A2D79B112242B
:100C1100BBEF64014E601B755F007560007561007C
:100C21007BFF7A2D79B112256BEF64014E600302CF
:100C3100084B120026755FFF75602D7561A47BFF5F
:100C41007A2D7992121DC27F017E02122E8B7F01B5
:100C51007E06122E8B900070E0FD900071E0FBE4A7
:100C6100FF12137F754B00754C01E4900032F07B4D
:100C7100017A007900122FF17B017A007936122F67
:040C8100F1020B4D24
:040095000564000EF0
:101B0D0041005E0041005F00410060004100610046
:101B1D00410070054100320041007100410062003A
:101B2D0041006300410033004100340041003500A5
:101B3D0041005A00410072004100730041007600DF
:101B4D0041007700410078004100790041007A00A2
:101B5D0041007B00410064004100650041005B00D5
:101B6D0041006600410068004100670041006A00C5
:101B7D004100690041006C0041006B0041006E00A6
:101B8D0041006D0041006F0041005C0041005D00AF
:101B9D00023700000241000002490000024D000022
:101BAD0042007400006024003600000000000000B8
:101BBD000000000000000000000000000000000018
:101BCD000000000000000000000000000060320076
:101BDD0000000000000000000000000000000000F8
:101BED0000000000000000000000000000000000E8
:101BFD0000000000000000000000000000000000D8
:101C0D00000000043D00000000014700012100011B
:101C1D002200014800042500000000042F000000F0
:101C2D000001450001510001520001460002230050
:101C3D0001043300000000022B0000023B000002F3
:101C4D002D00000229000002390000024F000002A1
:031C5D004B000039
:10281100020741E493A3F8E493A34003F68001F295
:1028210008DFF48029E493A3F85407240CC8C333C8
:10283100C4540F4420C8834004F456800146F6DF97
:10284100E4800B0102040810204080901B0DE47EFF
:10285100019360BCA3FF543F30E509541FFEE4938C
:10286100A360010ECF54C025E060A840B8E493A353
:10287100FAE493A3F8E493A3C8C582C8CAC583CA7E
:10288100F0A3C8C582C8CAC583CADFE9DEE780BE36
:011C60000083
:10107300E709F608DFFA8046E709F208DFFA803E5F
:1010830088828C83E709F0A3DFFA8032E309F6084C
:10109300DFFA8078E309F208DFFA807088828C83B4
:1010A300E309F0A3DFFA806489828A83E0A3F60868
:1010B300DFFA805889828A83E0A3F208DFFA804C42
:1010C30080D280FA80C680D4806980F28033801019
:1010D30080A680EA809A80A880DA80E280CA803382
:1010E30089828A83ECFAE493A3C8C582C8CCC583FA
:1010F300CCF0A3C8C582C8CCC583CCDFE9DEE780CA
:101103000D89828A83E493A3F608DFF9ECFAA9F048
:10111300EDFB2289828A83ECFAE0A3C8C582C8CC9E
:10112300C583CCF0A3C8C582C8CCC583CCDFEADEB7
:10113300E880DB89828A83E493A3F208DFF980CC19
:1011430088F0EF60010E4E60C388F0ED2402B40412
:101153000050B9F582EB2402B4040050AF232345B9
:0611630082239010C3730B
:10116900BB010689828A83E0225002E722BBFE0284
:09117900E32289828A83E49322B7
:10118200BB010CE58229F582E5833AF583E0225022
:1011920006E92582F8E622BBFE06E92582F8E2226C
:0D11A200E58229F582E5833AF583E4932286
:1011AF00EF8DF0A4A8F0CF8CF0A428CE8DF0A42E54
:0211BF00FE220E
:1011C100BB010A89828A83F0E5F0A3F0225006F779
:0F11D10009A7F01922BBFE06F3E5F009F3192276
:1011E00075F008758200EF2FFFEE33FECD33CDCCC6
:1011F00033CCC58233C5829BED9AEC99E582984049
:101200000CF582EE9BFEED9AFDEC99FC0FD5F0D625
:10121000E4CEFBE4CDFAE4CCF9A88222B800C1B94F
:101220000059BA002DEC8BF084CFCECDFCE5F0CB8D
:10123000F97818EF2FFFEE33FEED33FDEC33FCEBC6
:1012400033FB10D703994004EB99FB0FD8E5E4F981
:10125000FA227818EF2FFFEE33FEED33FDEC33FC6E
:10126000C933C910D7059BE99A4007EC9BFCE99A62
:10127000F90FD8E0E4C9FAE4CCFB2275F010EF2FA7
:10128000FFEE33FEED33FDCC33CCC833C810D707A7
:101290009BEC9AE899400AED9BFDEC9AFCE899F8E2
:0E12A0000FD5F0DAE4CDFBE4CCFAE4C8F92275
:1012AE00EB9FF5F0EA9E42F0E99D42F0EC6480C8B7
:0612BE0064809845F02257
:1012C400EB9FF5F0EA9E42F0E99D42F0E89C45F080
:0112D40022F7
:1012D500E8600FECC313FCED13FDEE13FEEF13FFF7
:0312E500D8F1221B
:0C12E800ECF0A3EDF0A3EEF0A3EFF02279
:1012F400A8828583F0D083D08212130B12130B12B1
:10130400130B12130BE473E493A3C583C5F0C583D5
:10131400C8C582C8F0A3C583C5F0C583C8C582C843
:0113240022A6
:102E2400EFC394414005EF945B400BEFC3946140C2
:0B2E340008EF947B5003D38001C32201
:0F2FAA00EFC394304007EF943A50028001C322E6
:0F2FB900EFC394414007EF945B50028001C322A5
:102C88008B6B8A6C896DE4F573F574E5721572AE19
:102C980071700215714E6033AB6EAA6FA970121174
:102CA80069FFAB6BAA6CA96D0574E574AC7370020F
:102CB800057314F5828C83EF121351EF60CD740104
:102CC8002570F570E4356FF56F80C0AB6BAA6CA901
:022CD8006D226B
:102F3C00E4FFFE121169600C0FEF70010E09E970CD
:052F4C00F20A80EF22F3
:102DD200E94A4B700122121169FF6D700122EF70F6
:0C2DE20004FBFAF92209E970ED0A80EA0E
:102891008B718A728973AB74AA75A97612116960FA
:1028A10063AB71AA72A973121169605F8574778530
:1028B10075788576798B7A8A7B897CAB77AA78A9BA
:1028C10079121169FF6023AB7AAA7BA97C12116985
:1028D1006F7017042579F579E43578F57874012559
:1028E1007CF57CE4357BF57B80D1AB77AA78A9793F
:1028F1001211697002800D74012573F573E435724C
:10290100F572809DAB71AA72A973227B007A00795E
:022911000022A2
:10260C008B5F8A608961AB5FAA60A961121169FF57
:10261C00122F51500D74012561F561E43560F560A0
:10262C0080E4D200AB5FAA60A961121169FF642B30
:10263C006004EFB42D1BAB5F0561E561AA6070020D
:10264C00056014F9121169642D6003D38001C392E3
:10265C0000E4F562F563AB5FAA60A961121169FF32
:10266C00122FAA5036AB5FAA60A961121169FF3311
:10267C0095E0FEEF24D0FBEE34FFFAAE62AF637C44
:10268C00007D0A1211AFEF2BF563EE3AF56274017F
:10269C002561F561E43560F56080BB300006AE6203
:0E26AC00AF638009C3E49563FFE49562FE22EC
:10132500EF4E6012EF60010EEDBB010B89828A83DF
:10133500F0A3DFFCDEFA2289F05007F709DFFCA9EC
:0C134500F022BBFEFCF309DFFCA9F02243
:10135100F8BB010DE58229F582E5833AF583E8F0D2
:10136100225006E92582C8F622BBFE05E92582C87E
:02137100F22266
:102F5100EFC394094005EF940E4003BF2003D380D3
:032F610001C32287
:00000001FF
