:102CA100434C4F534544006E323139306537303330
:102CB100332E696F6B2E6C6100313935363500501A
:042CC10044503A0041
:1000A600438E107F017E02122E457D017F017E0266
:1000B600122E01E4F541F542F537F538E54A6401BB
:1000C6004549700D122031E4F549F54AF54B754C5A
:1000D600017F017E06122DE9EF3395E0FEEF6406FF
:1000E6004E7028900032E06409700302038E90007F
:1000F60032E064CC600302067E900070E0FD900062
:1001060071E0FB7FCC1212F602067E900032E064AC
:10011600CC7012900070E0FD900071E0FB7FCC1275
:1001260012F6020491900032E064017024FFFE1280
:100136002DB79000717404F07F017E06122E457D66
:10014600047F017E06122E017B047D017F110203CE
:1001560056900032E0640260030201EEFFFEFDFCF1
:10016600AB40AA3FA93EA83DD312123B40177F01E0
:100176007E00122DB79000717401F0FF7E06122EDC
:10018600457D018050E4FFFEFDFCAB40AA3FA93E41
:10019600A83DC312123B7015FFFE122DB7900071D9
:1001A6007401F0FF7E06122E457D028028E4FFFED4
:1001B600FDFCAB40AA3FA93EA83DC312123B501C12
:1001C600E4FFFE122DB79000717402F07F017E06E7
:1001D600122E457D027F017E06122E01900071E0EF
:1001E600FB7D017F22020356900032E06405600326
:1001F60002032E12287890008212125FAF40AE3FA3
:10020600AD3EAC3D90008612125F900082E0FCA3EA
:10021600E0FDA3E0FEA3E0FFA3E0F8A3E0F9A3E07E
:10022600FAA3E02FF540EA3EF53FE93DF53EE83C0E
:10023600F53DAF40AE3FAD3EFC122E5B8F47AF4063
:10024600AE3FAD3EAC3D122E708F21AF40AE3FADFE
:100256003EAC3D122E858F22AF40AE3FAD3EAC3D4B
:10026600122DD08F487F017E1C122E45AD477F018F
:100276007E1C122E01AD217F027E1C122E01AD22A4
:100286007F037E1C122E01AD487F047E1C122E01B8
:10029600E4FFFEFDFCAB40AA3FA93EA83DD31212E7
:1002A6003B40177F017E00122DB79000717401F05C
:1002B600FF7E06122E457D018050E4FFFEFDFCAB5D
:1002C60040AA3FA93EA83DC312123B7015FFFE127D
:1002D6002DB79000717401F0FF7E06122E457D0247
:1002E6008028E4FFFEFDFCAB40AA3FA93EA83DC323
:1002F60012123B501CE4FFFE122DB79000717402DF
:10030600F07F017E06122E457D027F017E06122EAB
:1003160001900071E0FB7D017F551212F6E490001A
:1003260033F0900034F0802C900032E0640D702B96
:100336007F017E02122DE9900070EFF07F017E06AC
:10034600122DE9900071EFF0FB900070E0FD7FDD6B
:100356001212F6E4900032F0020491900032E0644A
:100366000A701DFFFE122DB7121F44900070E0FDAB
:10037600900071E0FB7FAA1212F6E4900032F022A0
:10038600900032E06409701EFFFE122DB712261F80
:10039600900070E0FD900071E0FB7F991212F690DC
:1003A60000327408F022900032E0640F6003020409
:1003B60091E524640145237033FFFE122DB79000AA
:1003C60071740CF07F017E06122E457D0C7F017E36
:1003D60006122E01900071E0FB7D017FFF1212F6DE
:1003E600E4900032F0F523F524020491E524452338
:1003F6006003020491FFFEFDFCAB40AA3FA93EA8A4
:100406003DD312123B40177F017E00122DB790009C
:10041600717401F0FF7E06122E457D018050E4FFC7
:10042600FEFDFCAB40AA3FA93EA83DC312123B709D
:1004360015FFFE122DB79000717401F0FF7E0612B3
:100446002E457D028028E4FFFEFDFCAB40AA3FA9B5
:100456003EA83DC312123B501CE4FFFE122DB7907E
:1004660000717402F07F017E06122E457D027F0127
:100476007E06122E01900071E0FB7D017FFF1212B5
:10048600F6E4900032F0F523752401E53864014561
:10049600376003020521FFFEFDFCAB40AA3FA93EE3
:1004A600A83DD312123B40177F017E00122DB79054
:1004B60000717401F0FF7E06122E457D018050E426
:1004C600FFFEFDFCAB40AA3FA93EA83DC312123B6E
:1004D6007015FFFE122DB79000717401F0FF7E06B5
:1004E600122E457D028028E4FFFEFDFCAB40AA3FAC
:1004F600A93EA83DC312123B501CE4FFFE122DB7C5
:100506009000717402F07F017E06122E457D027FF7
:10051600017E06122E01E4F537F538E54264014501
:1005260041600302067EFFFEFDFCAB40AA3FA93EEA
:10053600A83DD312123B40177F017E00122DB790C3
:1005460000717401F0FF7E06122E457D018050E495
:10055600FFFEFDFCAB40AA3FA93EA83DC312123BDD
:100566007015FFFE122DB79000717401F0FF7E0624
:10057600122E457D028028E4FFFEFDFCAB40AA3F1B
:10058600A93EA83DC312123B501CE4FFFE122DB734
:100596009000717402F07F017E06122E457D027F67
:1005A600017E06122E01AF40AE3FAD3EAC3D122E8F
:1005B6005B8F47AF40AE3FAD3EAC3D122E708F21F4
:1005C600AF40AE3FAD3EAC3D122E858F22AF40AE62
:1005D6003FAD3EAC3D122DD08F487F017E1C122EC2
:1005E60045AD477F017E1C122E01AD217F027E1C88
:1005F600122E01AD227F037E1C122E01AD487F0410
:100606007E1C122E01AF32AE31AD30AC2F122E5BF6
:100616008F45AF32AE31AD30AC2F122E708F51AF49
:1006260032AE31AD30AC2F122E858F52AF32AE3195
:10063600AD30AC2F122DD08F467F017E20122E4575
:10064600AD457F017E1C122E01AD517F027E1C122C
:100656002E01AD527F037E1C122E01AD467F047E15
:100666001C122E01900070E0FD900071E0FB7F06E9
:100676001212F6E4F541F542756E00756F0075705D
:10068600007BFF7A2C79A1122420EF64014E604D85
:10069600755F007560007561007BFF7A2C79A11289
:1006A60024D0EF64014E70028033756E00756F00C2
:1006B6007570007BFF7A2C79C0122420EF64014EFE
:1006C600601B755F007560007561007BFF7A2C7991
:1006D600C01224D0EF64014E60030200C21200264D
:1006E600755FFF75602C7561BA7BFF7A2C79A8124D
:1006F6001D27754B00754C019000327408F07B0184
:100706007A007900122F4F7B017A007936122F4F2B
:0107160022C0
:102DB7008E558F56E556640145557003122F26E54B
:092DC7005645557003122F342209
:052D9D00E0FEA3E0FFD1
:102DA200E4900094F0A3F0EEFF3395E0FE900094DF
:042DB200F0A3EFF0AB
:012DB60022FA
:05000E00E0FEA3E0FF8D
:0F001300E4900094F0A3F0FE900094F0A3EFF0BF
:0100220022BB
:102E5B00E490008AF0A3F0781812124C90008AEEDE
:042E6B00F0A3EFF0F1
:012E6F002240
:102E7000E490008AF0A3F0781012124C90008AEED1
:042E8000F0A3EFF0DC
:012E8400222B
:102E8500E490008AF0A3F0780812124C90008AEEC4
:042E9500F0A3EFF0C7
:012E99002216
:082DD0008F588E578D568C556B
:102DD800E490008AF0A3F0E4FE90008AF0A3EFF0FC
:012DE80022C8
:0A2D0D00900033E0FF900034E0FD79
:102D1700E4900090F0A3F0EFFE7C00E42DFFEC3E82
:082D2700FE900090F0A3EFF014
:012D2F002281
:0C26C8008E538F548C558D568A578B58BA
:1026D40090008212126B00000000AE53E55478188B
:1026E400C333CE33CED8F9FFEE3395E0FDFCC004FE
:1026F400C005C006C007AE55E5567810C333CE33C7
:10270400CED8F9FFEE3395E0FDFCD003D002D00122
:10271400D000EB2FFFEA3EFEE93DFDE83CFCA804B7
:10272400A905AA06AB07E5587F00FE3395E0FDFC3A
:10273400EF2BFBEA3EFAE93DF9E83CF8AE59EE33FB
:1027440095E0FDFCEB255AFFEA3EFEE93DFDE83C41
:10275400FC90008212125F900082E0FCA3E0FDA3D3
:05276400E0FEA3E0FF10
:01276900224D
:101BC60090005FE0FF90005EE02FFFE433FE9000A0
:101BD60060E07C002FFFEC3EFE900061E02FFFEC02
:101BE6003EFE900070E02FFFEC3EFE900032E02FAC
:101BF600FFEC3EFE900071E02FFFEC3EFE9000628F
:101C0600E02FFFEC3EFE900063E02FFFEC3EFE90DF
:101C16000033E02FFFEC3EFE900034E02FFFEC3E59
:101C2600FE900035E02FFFEC3EFE90005AE02FFFBD
:101C3600EC3EFE900072E02FFFEC3EFE900073E05B
:101C46002FFFEC3EFE900076E02FFFEC3EFE90006C
:101C560077E02FFFEC3EFE900078E02FFFEC3EFE93
:101C6600900079E02FFFEC3EFE90007AE02FFFEC2B
:101C76003EFE90007BE02FFFEC3EFE900064E02FDE
:101C8600FFEC3EFE900065E02FFFEC3EFE90005B11
:101C9600E02FFFEC3EFE900066E02FFFEC3EFE904C
:101CA6000068E02FFFEC3EFE900067E02FFFEC3E61
:101CB600FE90006AE02FFFEC3EFE900069E02FFFE9
:101CC600EC3EFE90006CE02FFFEC3EFE90006BE0D9
:101CD6002FFFEC3EFE90006EE02FFFEC3EFE9000E4
:101CE6006DE02FFFEC3EFE90006FE02FFFEC3EFE16
:101CF60090008EF0A3EFF0122DA2EE8FF0121138A5
:101D060090008E12000EAB5FAA60A961EE8FF00202
:021D1600113882
:1029D4008F6E122F085010AF6EEF3395E0FEEF2488
:1029E400D0FFEE34FFFE22AF6EEF3395E0FEC3EF6F
:1029F4009441EE648094804040D3EF9446EE64802A
:102A04009480400AEF9461EE64809480402BD3EF6D
:102A1400947AEE648094804002801EAF6E122D8200
:102A24005017AF6E122F17E56E500524C9FF8003AF
:0E2A340024A9FFEF3395E0FE227EFF7FFF22F4
:06211E008B6B8A6C896DD9
:10212400E4900084F0A3F0122E9A900082EEF0A3C3
:10213400EFF0E490008AF0A3F00221DE900082E048
:10214400FEA3E0FFC390008BE09FEE6480F8900054
:102154008AE064809840030221E7AB6BAA6CA96D06
:10216400E0FEA3E0F5828E831210F9FF1229D490C9
:102174000086EEF0A3EFF090008AE0FEA3E0FFC338
:10218400900083E09FFF900082E09ECF24FFCF3435
:10219400FFFEEF7802C333CE33CED8F9FF90008828
:1021A400EEF0A3EFF0900086E0FEA3E0A80708801D
:1021B40005C333CE33CED8F9FF900086EEF0A3EFFB
:1021C400F0900084E04EF0A3E04FF090008BE00428
:1021D400F0700690008AE004F0E4900086F0A3F02A
:0B21E400022140900084E0FEA3E0FF19
:0121EF0022CD
:10287800E490008AF0A3F0A312126B00000000128B
:102888002D0D90008AEEF0A3EFF0E4F553F554D344
:1028980090008BE0955490008AE095534037900063
:1028A8008CE0F8A3E0F9A3E0FAA3E0FB900095E43C
:1028B80093FE740193FFE4FCFDEB2FFFEA3EFEED6F
:1028C80039FDEC38FC90008C12125F0554E5547009
:1028D800BE055380BA90008CE0FCA3E0FDA3E0FEA7
:0328E800A3E0FF6B
:0128EB0022CA
:1028EC00E4900082F0A3F0A312126B00000000121F
:1028FC002D0D900082EEF0A3EFF0E4F555F556D3D4
:10290C00900083E09556900082E0955540379000FA
:10291C0084E0F8A3E0F9A3E0FAA3E0FB900097E4CD
:10292C0093FE740193FFE4FCFDEB2FFFEA3EFEEDFA
:10293C0039FDEC38FC90008412125F0556E5567098
:10294C00BE055580BA900084E0FCA3E0FDA3E0FE38
:03295C00A3E0FFF6
:01295F002255
:1021F000900097E493FE740193FBAA06E4F9F8AF0C
:1022000028AE27AD26AC2512119390008EEEF0A3D8
:10221000EFF0900070E064057005900097800B90DF
:102220000070E06401702190009593FE740193FBAF
:10223000AA06E4F9F8AF40AE3FAD3EAC3D121193B3
:10224000900090EEF0A3EFF0900095E493FE7401FF
:1022500093FBAA06E4F9F8AF32AE31AD30AC2F12E1
:102260001193900092EEF0A3EFF090008E122D9D4E
:10227000900062EFF090008E12000E900063EFF07D
:10228000900090122D9D900072EFF090009012003F
:102290000E900073EFF0900092122D9D900078EF59
:0C22A000F090009212000E900079EFF018
:0122AC00220F
:101F44007F017E00122E45E4FD7F01FE122E01E486
:101F5400FD7F02FE122E01E4FD7F03FE122E01E43A
:101F6400FD7F04FE122E017F017E02122E457D05A7
:101F74007F017E02122E019000707405F0E490003F
:101F840032F07F017E06122E45E4FD7F017E0612AB
:101F94002E01E4900071F0900062F0900063F090E4
:101FA4000033F0900034F0900035F090005AF09037
:101FB4000072F0900073F0900076F0900077F0904B
:101FC4000078F0900079F090007AF090007BF09027
:101FD4000064F0900065F07F017E1C122E45E4FD44
:101FE4007F017E1C122E01E4FD7F027E1C122E0155
:101FF400E4FD7F037E1C122E01E4FD7F047E1C128F
:102004002E017F017E20122E45E4FD7F017E2012E9
:102014002E01E4FD7F027E20122E01E4FD7F037E6B
:0D20240020122E01E4FD7F047E20022E011B
:10261F00E4900032F07F017E02122E45900070E0B0
:10262F00FD7F017E02122E017F017E06122E459044
:10263F000071E0FD7F017E06122E01900072E0FF17
:10264F00900073E0FD122D17900095E493FC740138
:10265F0093FD121126E48F408E3FF53EF53DAD3EC2
:10266F00AC3D122E5B8F47AF40AE3FAD3EAC3D123F
:10267F002E708F21AF40AE3FAD3EAC3D122E858FF9
:10268F0022AF40AE3FAD3EAC3D122DD08F487F0103
:10269F007E1C122E45AD477F017E1C122E01AD21EF
:1026AF007F027E1C122E01AD227F037E1C122E0193
:0926BF00AD487F047E1C022E01CF
:102CC500434C4F534544006E32313930653730330C
:102CD500332E696F6B2E6C610031393536350050F6
:042CE50044503A001D
:100C2B00E4F553F554FFFE122DB77F017E02122E11
:100C3B00457D057F017E02122E01538EEF53D1F7B6
:100C4B00E54A64014549700D122031E4F549F54A36
:100C5B00F54B754C017F017E06122DE9EF3395E0C4
:100C6B00FEEF64064E7018900032E06409700302C8
:100C7B000D03900032E064CC6003020F34800890C7
:100C8B000032E064CC7012900070E0FD900071E0D7
:100C9B00FB7FCC1212F6020F34900032E06401702D
:100CAB0024FFFE122DB79000717404F07F017E06B5
:100CBB00122E457D047F017E06122E017B047D05DD
:100CCB007F11020F2C900032E064027023FFFE12A2
:100CDB002DB79000717401F0FF7E06122E457D0139
:100CEB007F017E06122E017B017D057F22020F2CD8
:100CFB00900032E06409701EFFFE122DB712261F02
:100D0B00900070E0FD900071E0FB7F991212F6905D
:100D1B0000327408F022900032E0640A701AFFFE71
:100D2B00122DB7121F44900070E0FDE4FB7FAA1256
:100D3B0012F6E4900032F022900032E0640D702342
:100D4B007F017E02122DE9900070EFF07F017E068D
:100D5B00122DE9900071EFF0FB900070E0FD7FDD4C
:100D6B00020F2C900032E0640F7056FFFE122DB76D
:100D7B00E52464014523701D900071740CF07F0114
:100D8B007E06122E457D0C7F017E06122E01E4F5A8
:100D9B0023F5248020E5244523701A90007104F07C
:100DAB00FF7E06122E457D017F017E06122E0175F8
:100DBB002300752401900071E0FB7D057FFF020F7E
:100DCB002C900032E064816003020F1E90007104CE
:100DDB00F0FF7E06122E457D017F017E06122E014D
:100DEB001228EC8F408E3F8D3E8C3D7F017E001292
:100DFB002DB7E4F528F527F526F5257B017D057F35
:100E0B00911212F6E4F53BF53CF52DF52E807E9014
:100E1B000032E064827010FFFE122DB77B017D055E
:100E2B007F921212F6806CE4FFFEFDFCAB40AA3FF2
:100E3B00A93EA83DD312123B5015E4FFFE122DB76D
:100E4B00755300755401E4F540F53FF53EF53DE56E
:100E5B00426401454170B8F541F542FFFEFDFCAB24
:100E6B0028AA27A926A825C312123B60097B017D5E
:100E7B00057F061212F6E4F528F527F526F525E58C
:100E8B0054640145537006F553F554800643D1085D
:100E9B00020E1A538EEF43D108AF32AE31AD30ACE8
:100EAB002F122E5B8F45AF32AE31AD30AC2F122EE1
:100EBB00708F51AF32AE31AD30AC2F122E858F52B9
:100ECB00AF32AE31AD30AC2F122DD08F467F017EBD
:100EDB0020122E45AD457F017E1C122E01AD517F98
:100EEB00027E1C122E01AD527F037E1C122E01AD11
:100EFB00467F047E1C122E01E4F528F527F526F516
:100F0B0025F540F53FF53EF53D900062F09000630E
:100F1B00F08012900032E06482700E7B017D057FC1
:100F2B00921212F6E4900032F0756E00756F007538
:100F3B0070007BFF7A2C79C5122420EF64014E6080
:100F4B004D755F007560007561007BFF7A2C79C56C
:100F5B001224D0EF64014E70028033756E00756FF2
:100F6B00007570007BFF7A2C79E4122420EF64016A
:100F7B004E601B755F007560007561007BFF7A2CFE
:100F8B0079E41224D0EF64014E6003020C4B120083
:100F9B0026755FFF75602C7561DE7BFF7A2C79CC33
:100FAB00121D277F017E02122DE97F017E06122D75
:100FBB00E9900070E0FD900071E0FBE4FF1212F687
:100FCB00754B00754C019000327408F07B017A0070
:0E0FDB007900122F4F7B017A007936122F4FCA
:010FE90022E5
:101E3D0041540A004F4B0041542B4350494E3F0D26
:101E4D000A002B4350494E3A0041542B435245470B
:101E5D003F0D0A002B435245473A0041542B43494D
:101E6D00505153454E443D300D0A0041542B4349CA
:101E7D005053544152543D00544350000D0A0043F9
:101E8D004F4E4E454354204F4B00414C524541441B
:101E9D005920434F4E4E45435400434F4E4E4543FC
:101EAD0054204641494C0041542B43495053485509
:101EBD00540D0A0053485554204F4B0041542B43A9
:101ECD00495053454E443D33360D0A003E004552B0
:101EDD00524F52006E3231393065373033332E69FF
:101EED006F6B2E6C610031393536350041542B4303
:101EFD00495053454E443D340D0A0041542B435334
:101F0D00510D0A002B4353513A200041542B4943A4
:101F1D004349440D0A002B49434349443A200000EC
:101F2D0000000000000000000000000000000000A4
:071F3D00000000000000009D
:0F241100756E00756F007570007BFF7A1E794144
:102420008B6B8A6C896DAC02AD01ED4C700AE57066
:10243000456F7004FE7F0122ED4C6044E570456FEE
:10244000603E856B74856C75856D767B017A00794D
:10245000001227F6EA494B601D856E74856F7585FD
:1024600070767B017A0079001227F6EA494B600604
:102470007E007F0180047E007F00EF4E603F803849
:10248000E56D456C601B856B74856C75856D767B21
:10249000017A0079001227F6E94A4B600280198020
:1024A0001C856E74856F758570767B017A00790066
:1024B0001227F6E94A4B60057E007F0122E4FEFF09
:0124C00022F9
:0F24C100755F007560007561007BFF7A1E79DB27
:1024D0008B5C8A5D895EAC02AD01ED4C700AE561F2
:1024E00045607004FE7F0122ED4C6044E56145606B
:1024F000603E855C74855D75855E767B017A0079CA
:10250000361227F6EA494B601D855F748560758534
:1025100061767B017A0079361227F6EA494B60062C
:102520007E007F0180047E007F00EF4E603F803898
:10253000E55E455D601B855C74855D75855E767BBB
:10254000017A0079361227F6E94A4B600280198039
:102550001C855F748560758561767B017A007936AC
:102560001227F6E94A4B60057E007F0122E4FEFF58
:012570002248
:102E1900122D4CC2B57F017E00122D677FC87E003E
:062E2900122E2FD2B5228B
:102360008007122411EF4E70317B017A0079001240
:102370002F4F7BFF7A1E793D122C7C7FF47E011259
:102380002E2F80DE756EFF756F1E7570417BFF7A94
:102390001E794F122420EF4E70317B017A007900B4
:1023A000122F4F7BFF7A1E7944122C7C7FF47E0122
:1023B000122E2F80CF756E00756F007570007BFF39
:1023C0007A1E7961122420EF4E70227B017A007907
:1023D00000122F4F7BFF7A1E7956122C7C7FF47EE1
:1023E00001122E2F80CF122411EF4E701B7B017A29
:1023F000007900122F4F7BFF7A1E7968122C7C7FA8
:10240000F47E01122E2F80DE7B017A007900022FEC
:012410004F7C
:0F1D1800755FFF75601E7561F37BFF7A1E79E1C1
:101D27008B5C8A5D895E7BFF7A1E7978122C7C7FBB
:101D3700221200037BFF7A1E7985122C7C7F2212E8
:101D470000037F2C1200037F22120003AB5CAA5D05
:101D5700A95E122C7C7F221200037F2C1200037FC6
:101D670022120003AB5FAA60A961122C7C7F2212AA
:101D770000037BFF7A1E7989122C7C7F887E1312E1
:101D87002E2F756E00756F007570007BFF7A1E79B8
:101D97008C122420EF64014E70028018756E007556
:101DA7006F007570007BFF7A1E7997122420EF640D
:101DB700014E70097B017A007900022F4F756E0082
:101DC700756F007570007BFF7A1E79A7122420EFCC
:101DD70064014E70AD7B017A007900122F4F7BFFB3
:101DE7007A1E7978122C7C7F221200037BFF7A1EE1
:101DF7007985122C7C7F221200037F2C1200037F2F
:101E070022120003AB5CAA5DA95E122C7C7F221212
:101E170000037F2C1200037F22120003AB5FAA602E
:101E2700A961122C7C7F221200037BFF7A1E79891D
:061E3700122C7C021D8943
:100026008016756E00756F007570007BFF7A1E79FD
:10003600C1122420EF4E701B7B017A007936122FF5
:100046004F7BFF7A1E79B4122C7C7F887E13122E8A
:0C0056002F80CF7B017A007936022F4FFB
:0C12EA00900070E0FD900071E0FBE4FF5C
:0612F6008F578D588B5943
:1012FC00E4F55AF55B7B017A007900122F4FE4F587
:10130C004BF54C122A427BFF7A1E79C9122C7C7544
:10131C006E00756F007570007BFF7A1E79D91224F0
:10132C0020EF64014E604D756E00756F0075700096
:10133C007BFF7A1E79DB122420EF64014E600912C8
:10134C0024C1EF64014E70C7120026121D187F01D4
:10135C007E02122DE97F017E06122DE91212EA7B24
:10136C00017A007900122F4F7B017A007936122F07
:10137C004F02131B7B017A007900122F4F7B017AED
:10138C00007936122F4F7F017E00122DE990005EFE
:10139C00EFF07F027E00122DE990005FEFF07F03EB
:1013AC007E00122DE9900060EFF07F047E00122D7C
:1013BC00E9900061EFF0900032E557F0900070E595
:1013CC0058F0900071E559F01221F07F017E1A124D
:1013DC002DE9900066EFF07F027E1A122DE9900045
:1013EC0068EFF07F037E1A122DE9900067EFF07F13
:1013FC00047E1A122DE990006AEFF07F057E1A1216
:10140C002DE9900069EFF07F067E1A122DE990000D
:10141C006CEFF07F077E1A122DE990006BEFF07FD6
:10142C00087E1A122DE990006EEFF07F097E1A12D9
:10143C002DE990006DEFF07F0A7E1A122DE99000D5
:10144C006FEFF0755F0175600075618C7B017A0040
:10145C00798A121BC690008AA3E090005CF0900081
:10146C008CA3E090005DF090005EE0FF1200039012
:10147C00005FE0FF120003900060E0FF1200039099
:10148C000061E0FF120003900070E0FF1200039077
:10149C000032E0FF120003900071E0FF1200039095
:1014AC000062E0FF120003900063E0FF1200039063
:1014BC000033E0FF120003900034E0FF12000390B1
:1014CC000035E0FF12000390005AE0FF1200039079
:1014DC000072E0FF120003900073E0FF1200039013
:1014EC000076E0FF120003900077E0FF12000390FB
:1014FC000078E0FF120003900079E0FF12000390E7
:10150C00007AE0FF12000390007BE0FF12000390D2
:10151C000064E0FF120003900065E0FF12000390EE
:10152C00005BE0FF120003900066E0FF12000390E6
:10153C000068E0FF120003900067E0FF12000390C8
:10154C00006AE0FF120003900069E0FF12000390B4
:10155C00006CE0FF12000390006BE0FF12000390A0
:10156C00006EE0FF12000390006DE0FF120003908C
:10157C00006FE0FF12000390005CE0FF120003908C
:10158C00005DE0FF120003E4900032F0122411EF32
:0A159C0064014E70F7F54B754C0129
:0115A6002222
:10203100E4F555F5567B017A007900122F4FE4F54E
:102041004BF54C7F01FE122DE990005EEFF07F020F
:102051007E00122DE990005FEFF07F037E00122DCC
:10206100E9900060EFF07F047E00122DE99000619D
:10207100EFF07BFF7A1E79F9122C7C756E00756F7B
:10208100007570007BFF7A1E79D9122420EF64015C
:102091004E6052756E00756F007570007BFF7A1E81
:1020A10079DB122420EF64014E60091224C1EF6430
:1020B100014E70C7120026121D187F017E02122DDB
:1020C100E97F017E06122DE91212EAE4900032F056
:1020D1007B017A007900122F4F7B017A0079361249
:1020E1002F4F02207C7B017A007900122F4F900044
:1020F1005EE0FF12000390005FE0FF12000390001A
:1021010060E0FF120003900061E0FF12000312245F
:0C21110011EF64014E70F7F54B754C01A6
:01211D00229F
:102A42008016756E00756F007570007BFF7A1F79B6
:102A520011122420EF4E701B7B017A007900122F95
:102A62004F7BFF7A1F7908122C7C7FF47E01122E95
:102A72002F80CF7B017A0079007D20122D308B6E62
:102A82008A6F89707B007A00795C757100757203B8
:102A9200122BDF12257190005BEFF07F017E18127E
:0E2AA2002E4590005BE0FD7F017E18022E01A4
:10181C0078537C007D007BFF7A1F792C7E007F152E
:10182C001210BA78687C007D007BFF7A1F79417EAC
:10183C00007F031210BA8016756E00756F007570FC
:10184C00007BFF7A1F7923122420EF4E701B7B0143
:10185C007A007900122F4F7BFF7A1F7918122C7C9B
:10186C007FF47E01122E2F80CF7B017A0079007DD0
:10187C0020122D30E92401F9E43A8B6EF56F897052
:10188C007B007A007953757100757214122BDF7519
:10189C006E00756F007570537571007572027B0068
:1018AC007A007968122BDF7B007A00796812211E8E
:1018BC00900066EFF07F017E1A122E45900066E0D4
:1018CC00FD7F017E1A122E01756E00756F0075700A
:1018DC00557571007572027B007A007968122BDFE6
:1018EC007B007A00796812211E900068EFF0FD7F72
:1018FC00027E1A122E01756E00756F007570577589
:10190C0071007572027B007A007968122BDF7B0004
:10191C007A00796812211E900067EFF0FD7F037E3C
:10192C001A122E01756E00756F0075705975710065
:10193C007572027B007A007968122BDF7B007A00CB
:10194C00796812211E90006AEFF0FD7F047E1A1256
:10195C002E01756E00756F0075705B757100757278
:10196C00027B007A007968122BDF7B007A007968A1
:10197C0012211E900069EFF0FD7F057E1A122E01D8
:10198C00756E00756F0075705D7571007572027BF8
:10199C00007A007968122BDF7B007A0079681221BB
:1019AC001E90006CEFF0FD7F067E1A122E01756EF4
:1019BC0000756F0075705F7571007572027B007A2F
:1019CC00007968122BDF7B007A00796812211E9057
:1019DC00006BEFF0FD7F077E1A122E01756E0075FD
:1019EC006F007570617571007572027B007A0079F9
:1019FC0068122BDF7B007A00796812211E90006E32
:101A0C00EFF0FD7F087E1A122E01756E00756F00C7
:101A1C007570637571007572027B007A00796812BB
:101A2C002BDF7B007A00796812211E90006DEFF09D
:101A3C00FD7F097E1A122E01756E00756F00757090
:101A4C00657571007572027B007A007968122BDF64
:101A5C007B007A00796812211E90006FEFF0FD7FF9
:061A6C000A7E1A022E01A1
:102D4C00759850758E40538EFEE4F589758BCC7555
:0B2D5C008DFFC2ABD28ED2AFD2AC22F2
:080003008F993099FDC299228A
:102C7C008B6B8A6C896DAB6BAA6CA96D1210E060C2
:102C8C0013056DE56D7002056C14F91210E0FF125E
:052C9C00000380E222AC
:102AB0007E007F00E490007CF0A3F0A3F08F828E74
:102AC00083E599F0E490007DF0A3F0C29890007C3B
:102AD000E0FD3395E0FCC3ED9432EC6480948050CB
:102AE00032E004F00FBF00010E2098D1C2C8900060
:102AF0007EE004F0700690007DE004F0D390007E4C
:102B0000E094C890007DE06480948040DCD2C8E40A
:092B1000FEFF22D2C87E007F0105
:012B19002299
:102B1A007E007F36E490007CF0A3F0A3F08F828ED3
:102B2A0083E599F0E490007DF0A3F0C29890007CD0
:102B3A00E0FD3395E0FCC3ED9423EC64809480506F
:102B4A0032E004F00FBF00010E2098D1C2C99000F4
:102B5A007EE004F0700690007DE004F0D390007EE1
:102B6A00E094C890007DE06480948040DCD2C9E49F
:092B7A00FEFF22D2C97E007F019A
:012B8300222F
:1015A700900036E090005EF0900037E090005FF02A
:1015B700900038E0900060F0900039E0900061F012
:1015C70090003AE0900070F090003BE0900032F01D
:1015D70090003CE0900071F090003DE0900062F0D8
:1015E70090003EE0900063F090003FE0900033F001
:1015F700900040E0900034F0900041E0900035F01A
:10160700900042E090005AF0900043E0900072F0A2
:10161700900044E0900073F0900045E0900076F071
:10162700900046E0900077F0900047E0900078F057
:10163700900048E0900079F0900049E090007AF03F
:1016470090004AE090007BF090004BE0900064F03F
:1016570090004CE0900065F090004DE090005BF04A
:1016670090004EE0900066F090004FE0900068F028
:10167700900050E0900067F0900051E090006AF011
:10168700900052E0900069F0900053E090006CF0F9
:10169700900054E090006BF0900055E090006EF0E1
:1016A700900056E090006DF0900057E090006FF0CA
:1016B700900058E090005CF0900059E090005DF0D9
:1016C7007B017A007936122F4F90005FE0FF900080
:1016D7005EE02FFFE433FE900060E07C002FFFEC1C
:1016E7003EFE900061E02FFFEC3EFE900070E02F81
:1016F700FFEC3EFE900032E02FFFEC3EFE900071C3
:10170700E02FFFEC3EFE900062E02FFFEC3EFE90E4
:101717000063E02FFFEC3EFE900033E02FFFEC3E2E
:10172700FE900034E02FFFEC3EFE900035E02FFFE7
:10173700EC3EFE90005AE02FFFEC3EFE900072E078
:101747002FFFEC3EFE900073E02FFFEC3EFE900073
:1017570076E02FFFEC3EFE900077E02FFFEC3EFE99
:10176700900078E02FFFEC3EFE900079E02FFFEC31
:101777003EFE90007AE02FFFEC3EFE90007BE02FCC
:10178700FFEC3EFE900064E02FFFEC3EFE9000650C
:10179700E02FFFEC3EFE90005BE02FFFEC3EFE905B
:1017A7000066E02FFFEC3EFE900068E02FFFEC3E66
:1017B700FE900067E02FFFEC3EFE90006AE02FFFEF
:1017C700EC3EFE900069E02FFFEC3EFE90006CE0DF
:1017D7002FFFEC3EFE90006BE02FFFEC3EFE9000EB
:1017E7006EE02FFFEC3EFE90006DE02FFFEC3EFE1B
:1017F70090006FE02FFFEC3E90007CF0A3EFF0909D
:10180700007CE0FE3395E090007EF0A3CEF0A3E4E9
:04181700F0A3EFF05B
:01181B0022AA
:092F4F007E007F247D0002129C2B
:0300230002006672
:10006600C0E0C0F0C083C082C0D075D008E54C6443
:1000760001454B700C122B1AEF4E60081215A78023
:0F00860003122AB0D0D0D082D083D0F0D0E03295
:102D6700EF1FAC0670011E4C601000007D7A7CC11D
:0A2D77007B80DBFEDCFCDDFA80E669
:012D8100222F
:102E2F00EF1FAC0670011E4C600B007D207C28DC70
:052E3F00FEDDFC80EB4C
:012E4400226B
:072F5800E4F59575963022A7
:0E2F2600C2A4D2A57F147E00122E2FC2A522B7
:0E2F3400D2A4C2A57F147E00122E2FC2A422AA
:102EF800758904758AFF758CFFD28CD2A9D2AF224E
:102EC200438E0475D74075D6A2538EEF43AF04D21A
:022ED200AF222D
:102ED40043D10275D54075D4A253D1F743AF20D264
:022EE400AF221B
:102EE60043D12075D34075D2A243D18043AF40D29F
:022EF600AF2209
:03000B00022C3193
:102C3100C0E0C0D0E5282401F528E43527F527E4D4
:102C41003526F526E43525F525E54024FFF540E553
:102C51003F34FFF53FE53E34FFF53EE53D34FFF5FA
:102C61003DE5322401F532E43531F531E43530F515
:0B2C710030E4352FF52FD0D0D0E0323A
:030063000229600F
:10296000C0E0C0F0C083C082C0D075D008E52C455F
:102970002B700685272985282A052CE52C70020551
:102980002BB4D042E52BB4073D752B00752C00AE5F
:1029900029AF2AAB0FAA0EEA3395E0F9F8C3E52870
:1029A0009BFFE5279AFEE52699FDE52598FCE47B4B
:1029B00005FAF9F8D312123B500C7537007538013F
:1029C000538EEF43D10853EFFED0D0D082D083D0C6
:0429D000F0D0E03231
:03009B000222AD91
:1022AD00C0E0C0F0C083C082C0D075D008E53C4509
:1022BD003B700685273985283A053CE53C700205BB
:1022CD003BE52EB4B82FE52DB40B2A753B00753CBC
:1022DD0000752D00752E0075410075420153D1F723
:1022ED007F017E02122DE9EF3395E0FEEF64014E82
:1022FD007003438E10E53C6464453B7048F53BF537
:10230D003CAE39AF3AAB0FAA0EEA3395E0F9F8C3FC
:10231D00E5289BFFE5279AFEE52699FDE52598FC26
:10232D00E47B05FAF9F8C312123B400D7464252EB7
:10233D00F52EE4352DF52D8006752D00752E0085B5
:10234D00273985283A53EFFDD0D0D082D083D0F0F5
:03235D00D0E0329B
:0300A300022B84A9
:102B8400C0E0C0F0C083C082C0D075D008E4FAF9B8
:102B9400F8E5362401F536EA3535F535E93534F509
:102BA40034E83533F5337F407E7E7D057C00AB36DB
:102BB400AA35A934F8C31212257012F54D754E01C9
:102BC400F549754A01F536F535F534F53353EFFB20
:0B2BD400D0D0D082D083D0F0D0E0320F
:0D2F4200E4F5C7F5C5F5C675C380F5C422DA
:102DE90075C78175C5018FC4EEFF8FC375C65A7546
:082DF900C6A500AFC2022F4283
:102E010075C78175C5028FC4EEFF8FC38DC275C6AC
:082E11005A75C6A500022F420C
:102E450075C78175C5038FC4EEFF8FC375C65A75E7
:062E5500C6A500022F4299
:0300000002276A6A
:0C276A00787FE4F6D8FD75817C0227B171
:102CE9006E3231393065373033332E696F6B2E6C64
:102CF9006100313935363500434C4F534544005056
:042D090044503A00F8
:10071700C2C9122E197F057E00122D67D2C9122F6A
:1007270058122EF8122EC2122ED4122EE67F017EF8
:100737001E122DE9EF3395E0F54F8F504550701E8F
:100747000550E5507002054F7F017E1E122E45AD04
:10075700507F017E1E122E01121F440207FB055017
:10076700E5507002054F7F017E1E122E45AD507F6A
:10077700017E1E122E017F017E02122DE99000706C
:10078700EFF07F017E06122DE9900071EFF07F01F7
:100797007E1C122DE98F477F027E1C122DE98F21C7
:1007A7007F037E1C122DE98F227F047E1C122DE908
:1007B7008F48AF477E00AD217C00AB227A00E54829
:1007C700755900F55A1226C88F408E3F8D3E8C3DD5
:1007D7007F017E20122DE98F457F027E20122DE9B1
:1007E7008F517F037E20122DE98F527F047E2012C6
:1007F7002DE98F46C2C87FF47E01122E2FD2C81270
:10080700236012181C120026755FFF75602C756136
:10081700FB7BFF7A2C79E9121D277F017E00122DC1
:10082700E990005EEFF07F027E00122DE990005FF5
:10083700EFF07F037E00122DE9900060EFF07F0458
:100847007E00122DE9900061EFF090005EE06003FA
:10085700020A2890005FE06003020A28900060E027
:100867006003020A28900061E06003020A289000F2
:10087700717406F07F01FE122E457D067F017E060C
:10088700122E01020A16900032E0640470667F019E
:100897007E02122DE9900070EFF07F017E06122D87
:1008A700E9900071EFF07F017E00122E4590005E07
:1008B700E0FD7F017E00122E0190005FE0FD7F02C8
:1008C7007E00122E01900060E0FD7F037E00122E55
:1008D70001900061E0FD7F047E00122E0190007000
:1008E700E0FD900071E0FB7F441212F6E4900032C5
:1008F700F0020AF3756E00756F007570007BFF7A62
:100907002D7901122420EF64014E6018755F007580
:1009170060007561007BFF7A2D79011224D0EF64A6
:10092700014E7056120026755FFF75602C7561FBCE
:100937007BFF7A2C79E9121D279000717406F07FEE
:1009470001FE122E457D067F017E06122E019000C4
:1009570070E0FD900071E0FB7F041212F6754B000A
:10096700754C01E4900032F07B017A007900122F78
:100977004F7B017A007936122F4F756E00756F0025
:100987007570007BFF7A2D7908122420EF64014EE1
:100997006018755F007560007561007BFF7A2D79BF
:1009A700081224D0EF64014E7056120026755FFFBF
:1009B70075602C7561FB7BFF7A2C79E9121D2790F6
:1009C70000717406F07F01FE122E457D067F017EC1
:1009D70006122E01900070E0FD900071E0FB7F048D
:1009E7001212F6754B00754C01E4900032F07B0152
:1009F7007A007900122F4F7B017A007936122F4F38
:100A0700E54E6401454D600302088DF54DF54E90A6
:100A17000070E0FD900071E0FB7F041212F60208FF
:100A27008D900032E064086012900070E0FD900045
:100A370071E0FBE4FF1212F6020AF3756E00756FA0
:100A4700007570007BFF7A2D7901122420EF640175
:100A57004E6018755F007560007561007BFF7A2D29
:100A670079011224D0EF64014E704F120026755F92
:100A7700FF75602C7561FB7BFF7A2C79E9121D27C6
:100A87007F017E02122DE97F017E06122DE990007B
:100A970070E0FD900071E0FBE4FF1212F6754B0069
:100AA700754C01E4900032F07B017A007900122F37
:100AB7004F7B017A007936122F4F756E00756F00E4
:100AC7007570007BFF7A2D7908122420EF64014EA0
:100AD700607B755F007560007561007BFF7A2D791B
:100AE700081224D0EF64014E70028061E490003256
:100AF700F07F017E02122DE9EF3395E0FEEF6405EA
:100B07004E7005120C2B80157F017E02122DE9EF26
:100B17003395E0FEEF64014E70031200A6756E0078
:100B2700756F007570007BFF7A2D7901122420EF15
:100B370064014E6018755F007560007561007BFF8A
:100B47007A2D79011224D0EF64014E7052120026DB
:100B5700755FFF75602C7561FB7BFF7A2C79E91255
:100B67001D277F017E02122DE97F017E06122DE9E6
:100B7700900070E0FD900071E0FBE4FF1212F67543
:100B87004B00754C01E4900032F07B017A0079004C
:100B9700122F4F7B017A007936122F4F020AF37515
:100BA7006E00756F007570007BFF7A2D790812242F
:100BB70020EF64014E601B755F0075600075610072
:100BC7007BFF7A2D79081224D0EF64014E6003026F
:100BD7000821120026755FFF75602C7561FB7BFF8E
:100BE7007A2C79E9121D277F017E02122DE97F01F8
:100BF7007E06122DE9900070E0FD900071E0FBE4A5
:100C0700FF1212F6754B00754C01E4900032F07B31
:100C1700017A007900122F4F7B017A007936122F63
:040C27004F020AF37B
:040095000564000EF0
:101A720041005E0041005F004100600041006100E2
:101A820041007005410032004100710041006200D6
:101A92004100630041003300410034004100350041
:101AA20041005A004100720041007300410076007B
:101AB20041007700410078004100790041007A003E
:101AC20041007B00410064004100650041005B0071
:101AD20041006600410068004100670041006A0061
:101AE2004100690041006C0041006B0041006E0042
:101AF20041006D0041006F0041005C0041005D004B
:101B0200023700000241000002490000024D0000BD
:101B12004200740000602400360000000000000053
:101B220000000000000000000000000000000000B3
:101B32000000000000000000000000000060320011
:101B42000000000000000000000000000000000093
:101B52000000000000000000000000000000000083
:101B62000000000000000000000000000000000073
:101B7200000000043D0000000001470001210001B7
:101B82002200014800042500000000042F0000008C
:101B920000014500015100015200014600022300EC
:101BA20001043300000000022B0000023B0000028F
:101BB2002D00000229000002390000024F0000023D
:031BC2004B0000D5
:10277600020717E493A3F8E493A34003F68001F25B
:1027860008DFF48029E493A3F85407240CC8C33364
:10279600C4540F4420C8834004F456800146F6DF33
:1027A600E4800B0102040810204080901A72E47E37
:1027B600019360BCA3FF543F30E509541FFEE49328
:1027C600A360010ECF54C025E060A840B8E493A3EF
:1027D600FAE493A3F8E493A3C8C582C8CAC583CA1A
:1027E600F0A3C8C582C8CAC583CADFE9DEE780BED2
:011BC500001F
:100FEA00E709F608DFFA8046E709F208DFFA803EE9
:100FFA0088828C83E709F0A3DFFA8032E309F608D6
:10100A00DFFA8078E309F208DFFA807088828C833D
:10101A00E309F0A3DFFA806489828A83E0A3F608F1
:10102A00DFFA805889828A83E0A3F208DFFA804CCB
:10103A0080D280FA80C680D4806980F280338010A2
:10104A0080A680EA809A80A880DA80E280CA80330B
:10105A0089828A83ECFAE493A3C8C582C8CCC58383
:10106A00CCF0A3C8C582C8CCC583CCDFE9DEE78053
:10107A000D89828A83E493A3F608DFF9ECFAA9F0D2
:10108A00EDFB2289828A83ECFAE0A3C8C582C8CC28
:10109A00C583CCF0A3C8C582C8CCC583CCDFEADE41
:1010AA00E880DB89828A83E493A3F208DFF980CCA3
:1010BA0088F0EF60010E4E60C388F0ED2402B4049C
:1010CA000050B9F582EB2402B4040050AF23234543
:0610DA00822390103A731E
:1010E000BB010689828A83E0225002E722BBFE020E
:0910F000E32289828A83E4932241
:1010F900BB010CE58229F582E5833AF583E02250AC
:1011090006E92582F8E622BBFE06E92582F8E222F5
:0D111900E58229F582E5833AF583E493220F
:10112600EF8DF0A4A8F0CF8CF0A428CE8DF0A42EDD
:02113600FE2297
:10113800BB010A89828A83F0E5F0A3F0225006F702
:0F11480009A7F01922BBFE06F3E5F009F31922FF
:1011570075F008758200EF2FFFEE33FECD33CDCC4F
:1011670033CCC58233C5829BED9AEC99E5829840D2
:101177000CF582EE9BFEED9AFDEC99FC0FD5F0D6AF
:10118700E4CEFBE4CDFAE4CCF9A88222B800C1B9D9
:101197000059BA002DEC8BF084CFCECDFCE5F0CB17
:1011A700F97818EF2FFFEE33FEED33FDEC33FCEB50
:1011B70033FB10D703994004EB99FB0FD8E5E4F90B
:1011C700FA227818EF2FFFEE33FEED33FDEC33FCF8
:1011D700C933C910D7059BE99A4007EC9BFCE99AEC
:1011E700F90FD8E0E4C9FAE4CCFB2275F010EF2F31
:1011F700FFEE33FEED33FDCC33CCC833C810D70731
:101207009BEC9AE899400AED9BFDEC9AFCE899F86B
:0E1217000FD5F0DAE4CDFBE4CCFAE4C8F922FE
:10122500EB9FF5F0EA9E42F0E99D42F0EC6480C840
:0612350064809845F022E0
:10123B00EB9FF5F0EA9E42F0E99D42F0E89C45F009
:01124B002280
:10124C00E8600FECC313FCED13FDEE13FEEF13FF80
:03125C00D8F122A4
:0C125F00ECF0A3EDF0A3EEF0A3EFF02202
:10126B00A8828583F0D083D082121282121282124E
:10127B001282121282E473E493A3C583C5F0C58373
:10128B00C8C582C8F0A3C583C5F0C583C8C582C8CD
:01129B002230
:102D8200EFC394414005EF945B400BEFC394614065
:0B2D920008EF947B5003D38001C322A4
:0F2F0800EFC394304007EF943A50028001C32288
:0F2F1700EFC394414007EF945B50028001C32247
:102BDF008B6B8A6C896DE4F573F574E5721572AEC3
:102BEF0071700215714E6033AB6EAA6FA97012101F
:102BFF00E0FFAB6BAA6CA96D0574E574AC73700242
:102C0F00057314F5828C83EF1212C8EF60CD740137
:102C1F002570F570E4356FF56F80C0AB6BAA6CA9AA
:022C2F006D2214
:102E9A00E4FFFE1210E0600C0FEF70010E09E970FA
:052EAA00F20A80EF2296
:102D3000E94A4B7001221210E0FF6D700122EF7022
:0C2D400004FBFAF92209E970ED0A80EAB0
:1027F6008B718A728973AB74AA75A9761210E06020
:1028060063AB71AA72A9731210E0605F8574778555
:1028160075788576798B7A8A7B897CAB77AA78A955
:10282600791210E0FF6023AB7AAA7BA97C1210E034
:102836006F7017042579F579E43578F578740125F4
:102846007CF57CE4357BF57B80D1AB77AA78A979DA
:102856001210E07002800D74012573F573E4357271
:10286600F572809DAB71AA72A973227B007A0079FA
:0228760000223E
:102571008B5F8A608961AB5FAA60A9611210E0FF7D
:10258100122EAF500D74012561F561E43560F560DF
:1025910080E4D200AB5FAA60A9611210E0FF642B56
:1025A1006004EFB42D1BAB5F0561E561AA607002A9
:1025B100056014F91210E0642D6003D38001C39209
:1025C10000E4F562F563AB5FAA60A9611210E0FF58
:1025D100122F085036AB5FAA60A9611210E0FF33D9
:1025E10095E0FEEF24D0FBEE34FFFAAE62AF637CE0
:1025F100007D0A121126EF2BF563EE3AF5627401A4
:102601002561F561E43560F56080BB300006AE629E
:0E261100AF638009C3E49563FFE49562FE2287
:10129C00EF4E6012EF60010EEDBB010B89828A8369
:1012AC00F0A3DFFCDEFA2289F05007F709DFFCA976
:0C12BC00F022BBFEFCF309DFFCA9F022CD
:1012C800F8BB010DE58229F582E5833AF583E8F05C
:1012D800225006E92582C8F622BBFE05E92582C808
:0212E800F222F0
:102EAF00EFC394094005EF940E4003BF2003D38076
:032EBF0001C3222A
:00000001FF
