:102D1E00434C4F534544006E3231393065373033B2
:102D2E00332E696F6B2E6C6100313935363500509C
:042D3E0044503A00C3
:1000A600438E107F017E02122EC27D017F017E02E9
:1000B600122E7EE4F541F542F537F538E54A64013E
:1000C6004549700D1220AEE4F549F54AF54B754CDD
:1000D600017F017E06122E66EF3395E0FEEF640681
:1000E6004E7041900032E0640970030203B890003C
:1000F60032E064CC60030206A87F017E02122E66FF
:10010600900070EFF07F017E06122E66900071EF70
:10011600F0FB900070E0FD7FCC121361E49000329A
:10012600F00206A8900032E064CC70237F017E02C4
:10013600122E66900070EFF07F017E06122E6690FA
:100146000071EFF0FB900070E0FD7FCC0203809021
:100156000032E064017024FFFE122E3490007174A8
:1001660004F07F017E06122EC27D047F017E0612F8
:100176002E7E7B047D017F11020380900032E064B5
:10018600026003020218FFFEFDFCAB40AA3FA93E37
:10019600A83DD31212A640177F017E00122E34907E
:1001A60000717401F0FF7E06122EC27D018050E4BC
:1001B600FFFEFDFCAB40AA3FA93EA83DC31212A616
:1001C6007015FFFE122E349000717401F0FF7E064A
:1001D600122EC27D028028E4FFFEFDFCAB40AA3F42
:1001E600A93EA83DC31212A6501CE4FFFE122E34EF
:1001F6009000717402F07F017E06122EC27D027F8E
:10020600017E06122E7E900071E0FB7D017F2202A8
:100216000380900032E0640560030203581228F55B
:100226009000821212CAAF40AE3FAD3EAC3D900088
:10023600861212CA900082E0FCA3E0FDA3E0FEA3B2
:10024600E0FFA3E0F8A3E0F9A3E0FAA3E02FF5406E
:10025600EA3EF53FE93DF53EE83CF53DAF40AE3FB1
:10026600AD3EFC122ED88F47AF40AE3FAD3EAC3D03
:10027600122EED8F21AF40AE3FAD3EAC3D122F02A8
:100286008F22AF40AE3FAD3EAC3D122E4D8F487F24
:10029600017E1C122EC2AD477F017E1C122E7EAD42
:1002A600217F027E1C122E7EAD227F037E1C122E23
:1002B6007EAD487F047E1C122E7EE4FFFEFDFCAB65
:1002C60040AA3FA93EA83DD31212A640177F017E41
:1002D60000122E349000717401F0FF7E06122EC2B9
:1002E6007D018050E4FFFEFDFCAB40AA3FA93EA87D
:1002F6003DC31212A67015FFFE122E3490007174C3
:1003060001F0FF7E06122EC27D028028E4FFFEFD6C
:10031600FCAB40AA3FA93EA83DC31212A6501CE45E
:10032600FFFE122E349000717402F07F017E0612D9
:100336002EC27D027F017E06122E7E900071E0FBAA
:100346007D017F55121361E4900033F0900034F084
:10035600802C900032E0640D702B7F017E02122EFD
:1003660066900070EFF07F017E06122E6690007197
:10037600EFF0FB900070E0FD7FDD121361E490006A
:1003860032F00204BB900032E0640A701DFFFE12D8
:100396002E34121FC1900070E0FD900071E0FB7FCB
:1003A600AA121361E4900032F022900032E0640950
:1003B600701EFFFE122E3412269C900070E0FD90F7
:1003C6000071E0FB7F991213619000327408F022ED
:1003D600900032E0640F60030204BBE5246401452B
:1003E600237033FFFE122E34900071740CF07F01DF
:1003F6007E06122EC27D0C7F017E06122E7E900096
:1004060071E0FB7D017FFF121361E4900032F0F58D
:1004160023F5240204BBE524452360030204BBFF45
:10042600FEFDFCAB40AA3FA93EA83DD31212A64052
:10043600177F017E00122E349000717401F0FF7E4A
:1004460006122EC27D018050E4FFFEFDFCAB40AAE1
:100456003FA93EA83DC31212A67015FFFE122E3408
:100466009000717401F0FF7E06122EC27D02802874
:10047600E4FFFEFDFCAB40AA3FA93EA83DC3121215
:10048600A6501CE4FFFE122E349000717402F07F19
:10049600017E06122EC27D027F017E06122E7E90FE
:1004A6000071E0FB7D017FFF121361E4900032F0E2
:1004B600F523752401E53864014537600302054BD1
:1004C600FFFEFDFCAB40AA3FA93EA83DD31212A6F3
:1004D60040177F017E00122E349000717401F0FFE8
:1004E6007E06122EC27D018050E4FFFEFDFCAB406D
:1004F600AA3FA93EA83DC31212A67015FFFE122EF2
:10050600349000717401F0FF7E06122EC27D0280C7
:1005160028E4FFFEFDFCAB40AA3FA93EA83DC3125E
:1005260012A6501CE4FFFE122E349000717402F0E5
:100536007F017E06122EC27D027F017E06122E7E6E
:10054600E4F537F538E5426401454160030206A843
:10055600FFFEFDFCAB40AA3FA93EA83DD31212A662
:1005660040177F017E00122E349000717401F0FF57
:100576007E06122EC27D018050E4FFFEFDFCAB40DC
:10058600AA3FA93EA83DC31212A67015FFFE122E61
:10059600349000717401F0FF7E06122EC27D028037
:1005A60028E4FFFEFDFCAB40AA3FA93EA83DC312CE
:1005B60012A6501CE4FFFE122E349000717402F055
:1005C6007F017E06122EC27D027F017E06122E7EDE
:1005D600AF40AE3FAD3EAC3D122ED88F47AF40AEDA
:1005E6003FAD3EAC3D122EED8F21AF40AE3FAD3E4E
:1005F600AC3D122F028F22AF40AE3FAD3EAC3D1256
:100606002E4D8F487F017E1C122EC2AD477F017E84
:100616001C122E7EAD217F027E1C122E7EAD227F05
:10062600037E1C122E7EAD487F047E1C122E7EAFEA
:1006360032AE31AD30AC2F122ED88F45AF32AE313F
:10064600AD30AC2F122EED8F51AF32AE31AD30AC96
:100656002F122F028F52AF32AE31AD30AC2F122E89
:100666004D8F467F017E20122EC2AD457F017E1C36
:10067600122E7EAD517F027E1C122E7EAD527F035E
:100686007E1C122E7EAD467F047E1C122E7E9000AE
:1006960070E0FD900071E0FB7F06121361E4F54106
:1006A600F542756E00756F007570007BFF7A2D79C7
:1006B6001E12249DEF64014E604D755F007560004B
:1006C6007561007BFF7A2D791E12254DEF64014E70
:1006D60070028033756E00756F007570007BFF7A4F
:1006E6002D793D12249DEF64014E601B755F0075E8
:1006F60060007561007BFF7A2D793D12254DEF6410
:10070600014E60030200C2120026755FFF75602D60
:100716007561377BFF7A2D7925121DA4754B0075FF
:100726004C019000327408F07B017A007900122F98
:0A073600CC7B017A007936122FCC3B
:010740002296
:102E34008E558F56E556640145557003122FA3E550
:092E44005645557003122FB1220E
:052E1A00E0FEA3E0FF53
:102E1F00E4900094F0A3F0EEFF3395E0FE90009461
:042E2F00F0A3EFF02D
:012E3300227C
:05000E00E0FEA3E0FF8D
:0F001300E4900094F0A3F0FE900094F0A3EFF0BF
:0100220022BB
:102ED800E490008AF0A3F078181212B790008AEEF6
:042EE800F0A3EFF074
:012EEC0022C3
:102EED00E490008AF0A3F078101212B790008AEEE9
:042EFD00F0A3EFF05F
:012F010022AD
:102F0200E490008AF0A3F078081212B790008AEEDB
:042F1200F0A3EFF049
:012F16002298
:082E4D008F588E578D568C55ED
:102E5500E490008AF0A3F0E4FE90008AF0A3EFF07E
:012E6500224A
:0A2D8A00900033E0FF900034E0FDFC
:102D9400E4900090F0A3F0EFFE7C00E42DFFEC3E05
:082DA400FE900090F0A3EFF097
:012DAC002204
:0C2745008E538F548C558D568A578B583C
:102751009000821212D600000000AE53E5547818A2
:10276100C333CE33CED8F9FFEE3395E0FDFCC00480
:10277100C005C006C007AE55E5567810C333CE3349
:10278100CED8F9FFEE3395E0FDFCD003D002D001A5
:10279100D000EB2FFFEA3EFEE93DFDE83CFCA8043A
:1027A100A905AA06AB07E5587F00FE3395E0FDFCBD
:1027B100EF2BFBEA3EFAE93DF9E83CF8AE59EE337E
:1027C10095E0FDFCEB255AFFEA3EFEE93DFDE83CC4
:1027D100FC9000821212CA900082E0FCA3E0FDA3EB
:0527E100E0FEA3E0FF93
:0127E60022D0
:101C430090005FE0FF90005EE02FFFE433FE900022
:101C530060E07C002FFFEC3EFE900061E02FFFEC84
:101C63003EFE900070E02FFFEC3EFE900032E02F2E
:101C7300FFEC3EFE900071E02FFFEC3EFE90006211
:101C8300E02FFFEC3EFE900063E02FFFEC3EFE9062
:101C93000033E02FFFEC3EFE900034E02FFFEC3EDC
:101CA300FE900035E02FFFEC3EFE90005AE02FFF40
:101CB300EC3EFE900072E02FFFEC3EFE900073E0DE
:101CC3002FFFEC3EFE900076E02FFFEC3EFE9000EF
:101CD30077E02FFFEC3EFE900078E02FFFEC3EFE16
:101CE300900079E02FFFEC3EFE90007AE02FFFECAE
:101CF3003EFE90007BE02FFFEC3EFE900064E02F61
:101D0300FFEC3EFE900065E02FFFEC3EFE90005B93
:101D1300E02FFFEC3EFE900066E02FFFEC3EFE90CE
:101D23000068E02FFFEC3EFE900067E02FFFEC3EE3
:101D3300FE90006AE02FFFEC3EFE900069E02FFF6B
:101D4300EC3EFE90006CE02FFFEC3EFE90006BE05B
:101D53002FFFEC3EFE90006EE02FFFEC3EFE900066
:101D63006DE02FFFEC3EFE90006FE02FFFEC3EFE98
:101D730090008EF0A3EFF0122E1FEE8FF01211A33E
:101D830090008E12000EAB5FAA60A961EE8FF00285
:021D930011A39A
:102A51008F6E122F855010AF6EEF3395E0FEEF248D
:102A6100D0FFEE34FFFE22AF6EEF3395E0FEC3EFF1
:102A71009441EE648094804040D3EF9446EE6480AC
:102A81009480400AEF9461EE64809480402BD3EFF0
:102A9100947AEE648094804002801EAF6E122DFF06
:102AA1005017AF6E122F94E56E500524C9FF8003B5
:0E2AB10024A9FFEF3395E0FE227EFF7FFF2277
:06219B008B6B8A6C896D5C
:1021A100E4900084F0A3F0122F17900082EEF0A3C8
:1021B100EFF0E490008AF0A3F002225B900082E04D
:1021C100FEA3E0FFC390008BE09FEE6480F89000D7
:1021D1008AE06480984003022264AB6BAA6CA96D0B
:1021E100E0FEA3E0F5828E83121164FF122A519062
:1021F1000086EEF0A3EFF090008AE0FEA3E0FFC3BB
:10220100900083E09FFF900082E09ECF24FFCF34B7
:10221100FFFEEF7802C333CE33CED8F9FF900088AA
:10222100EEF0A3EFF0900086E0FEA3E0A80708809F
:1022310005C333CE33CED8F9FF900086EEF0A3EF7D
:10224100F0900084E04EF0A3E04FF090008BE004AA
:10225100F0700690008AE004F0E4900086F0A3F0AC
:0B2261000221BD900084E0FEA3E0FF1E
:01226C00224F
:1028F500E490008AF0A3F0A31212D60000000012A3
:102905002D8A90008AEEF0A3EFF0E4F553F554D349
:1029150090008BE0955490008AE0955340379000E5
:102925008CE0F8A3E0F9A3E0FAA3E0FB900095E4BE
:1029350093FE740193FFE4FCFDEB2FFFEA3EFEEDF1
:1029450039FDEC38FC90008C1212CA0554E5547020
:10295500BE055380BA90008CE0FCA3E0FDA3E0FE29
:03296500A3E0FFED
:01296800224C
:10296900E4900082F0A3F0A31212D6000000001236
:102979002D8A900082EEF0A3EFF0E4F555F556D3D9
:10298900900083E09556900082E09555403790007D
:1029990084E0F8A3E0F9A3E0FAA3E0FB900097E450
:1029A90093FE740193FFE4FCFDEB2FFFEA3EFEED7D
:1029B90039FDEC38FC9000841212CA0556E55670B0
:1029C900BE055580BA900084E0FCA3E0FDA3E0FEBB
:0329D900A3E0FF79
:0129DC0022D8
:10226D00900097E493FE740193FBAA06E4F9F8AF8E
:10227D0028AE27AD26AC251211FE90008EEEF0A3F0
:10228D00EFF0900070E064057005900097800B9062
:10229D000070E06401702190009593FE740193FB32
:1022AD00AA06E4F9F8AF40AE3FAD3EAC3D1211FECB
:1022BD00900090EEF0A3EFF0900095E493FE740182
:1022CD0093FBAA06E4F9F8AF32AE31AD30AC2F1264
:1022DD0011FE900092EEF0A3EFF090008E122E1AE8
:1022ED00900062EFF090008E12000E900063EFF000
:1022FD00900090122E1A900072EFF0900090120044
:10230D000E900073EFF0900092122E1A900078EF5D
:0C231D00F090009212000E900079EFF09A
:012329002291
:101FC1007F017E00122EC2E4FD7F01FE122E7EE40F
:101FD100FD7F02FE122E7EE4FD7F03FE122E7EE4C3
:101FE100FD7F04FE122E7E7F017E02122EC27D0530
:101FF1007F017E02122E7E9000707405F0E4900045
:1020010032F07F017E06122EC2E4FD7F017E0612B0
:102011002E7EE4900071F0900062F0900063F090E9
:102021000033F0900034F0900035F090005AF090B9
:102031000072F0900073F0900076F0900077F090CD
:102041000078F0900079F090007AF090007BF090A9
:102051000064F0900065F07F017E1C122EC2E4FD49
:102061007F017E1C122E7EE4FD7F027E1C122E7EDD
:10207100E4FD7F037E1C122E7EE4FD7F047E1C1294
:102081002E7E7F017E20122EC2E4FD7F017E201272
:102091002E7EE4FD7F027E20122E7EE4FD7F037EF4
:0D20A10020122E7EE4FD7F047E20022E7EA4
:10269C00E4900032F07F017E02122EC2900070E0B6
:1026AC00FD7F017E02122E7E7F017E06122EC290CD
:1026BC000071E0FD7F017E06122E7E900072E0FF1D
:1026CC00900073E0FD122D94900095E493FC74013E
:1026DC0093FD121191E48F408E3FF53EF53DAD3EDA
:1026EC00AC3D122ED88F47AF40AE3FAD3EAC3D1245
:1026FC002EED8F21AF40AE3FAD3EAC3D122F028F81
:10270C0022AF40AE3FAD3EAC3D122E4D8F487F0107
:10271C007E1C122EC2AD477F017E1C122E7EAD2177
:10272C007F027E1C122E7EAD227F037E1C122E7E1B
:09273C00AD487F047E1C022E7ED4
:102D4200434C4F534544006E32313930653730338E
:102D5200332E696F6B2E6C61003139353635005078
:042D620044503A009F
:100C8500E4F553F554FFFE122E347F017E02122E39
:100C9500C27D057F017E02122E7E538EEF53D1F762
:100CA500E54A64014549700D1220AEE4F549F54A5F
:100CB500F54B754C017F017E06122E66EF3395E0EC
:100CC500FEEF64064E7018900032E064097003026E
:100CD5000D6E900032E064CC6003020F9F80089097
:100CE5000032E064CC70237F017E02122E669000F4
:100CF50070EFF07F017E06122E66900071EFF0FB1B
:100D0500900070E0FD7FCC020F97900032E0640107
:100D15007024FFFE122E349000717404F07F017E62
:100D250006122EC27D047F017E06122E7E7B047D77
:100D3500057F11020F97900032E064027023FFFED9
:100D4500122E349000717401F0FF7E06122EC27DC2
:100D5500017F017E06122E7E7B017D057F22020F1B
:100D650097900032E06409701EFFFE122E341226A1
:100D75009C900070E0FD900071E0FB7F991213617B
:100D85009000327408F022900032E0640A701AFF75
:100D9500FE122E34121FC1900070E0FDE4FB7FAA05
:100DA500121361E4900032F022900032E0640D707D
:100DB500237F017E02122E66900070EFF07F017E88
:100DC50006122E66900071EFF0FB900070E0FD7F3B
:100DD500DD020F97900032E0640F7056FFFE122E71
:100DE50034E52464014523701D900071740CF07F77
:100DF500017E06122EC27D0C7F017E06122E7EE438
:100E0500F523F5248020E5244523701A900071040C
:100E1500F0FF7E06122EC27D017F017E06122E7E18
:100E2500752300752401900071E0FB7D057FFF02AD
:100E35000F97900032E064816003020F8990007182
:100E450004F0FF7E06122EC27D017F017E06122E62
:100E55007E1229698F408E3F8D3E8C3D7F017E003D
:100E6500122E34E4F528F527F526F5257B017D05B9
:100E75007F91121361E4F53BF53CF52DF52E807E4F
:100E8500900032E064827010FFFE122E347B017DEB
:100E9500057F92121361806CE4FFFEFDFCAB40AA56
:100EA5003FA93EA83DD31212A65015E4FFFE122E0F
:100EB50034755300755401E4F540F53FF53EF53DB5
:100EC500E5426401454170B8F541F542FFFEFDFC80
:100ED500AB28AA27A926A825C31212A660097B015B
:100EE5007D057F06121361E4F528F527F526F5251E
:100EF500E554640145537006F553F554800643D116
:100F050008020E85538EEF43D108AF32AE31AD30B6
:100F1500AC2F122ED88F45AF32AE31AD30AC2F127B
:100F25002EED8F51AF32AE31AD30AC2F122F028F77
:100F350052AF32AE31AD30AC2F122E4D8F467F0100
:100F45007E20122EC2AD457F017E1C122E7EAD5134
:100F55007F027E1C122E7EAD527F037E1C122E7EDA
:100F6500AD467F047E1C122E7EE4F528F527F52676
:100F7500F525F540F53FF53EF53D900062F0900012
:100F850063F08012900032E06482700E7B017D0573
:100F95007F92121361E4900032F0756E00756F0058
:100FA5007570007BFF7A2D794212249DEF64014E06
:100FB500604D755F007560007561007BFF7A2D7966
:100FC5004212254DEF64014E70028033756E007537
:100FD5006F007570007BFF7A2D796112249DEF6497
:100FE500014E601B755F007560007561007BFF7ABF
:100FF5002D796112254DEF64014E6003020CA51297
:101005000026755FFF75602D75615B7BFF7A2D7915
:1010150049121DA47F017E02122E667F017E0612F3
:101025002E66900070E0FD900071E0FBE4FF121366
:1010350061754B00754C019000327408F07B017AA4
:0F104500007900122FCC7B017A007936122FCC64
:011054002279
:101EBA0041540A004F4B0041542B4350494E3F0DA9
:101ECA000A002B4350494E3A0041542B435245478E
:101EDA003F0D0A002B435245473A0041542B4349D0
:101EEA00505153454E443D300D0A0041542B43494D
:101EFA005053544152543D00544350000D0A00437C
:101F0A004F4E4E454354204F4B00414C524541449D
:101F1A005920434F4E4E45435400434F4E4E45437E
:101F2A0054204641494C0041542B4349505348558B
:101F3A00540D0A0053485554204F4B0041542B432B
:101F4A00495053454E443D33360D0A003E00455232
:101F5A00524F52006E3231393065373033332E6981
:101F6A006F6B2E6C610031393536350041542B4385
:101F7A00495053454E443D340D0A0041542B4353B6
:101F8A00510D0A002B4353513A200041542B494327
:101F9A004349440D0A002B49434349443A2000006F
:101FAA000000000000000000000000000000000027
:071FBA000000000000000020
:0F248E00756E00756F007570007BFF7A1E79BE4A
:10249D008B6B8A6C896DAC02AD01ED4C700AE570E9
:1024AD00456F7004FE7F0122ED4C6044E570456F71
:1024BD00603E856B74856C75856D767B017A0079D0
:1024CD0000122873EA494B601D856E74856F758502
:1024DD0070767B017A007900122873EA494B600609
:1024ED007E007F0180047E007F00EF4E603F8038CC
:1024FD00E56D456C601B856B74856C75856D767BA4
:10250D00017A007900122873E94A4B600280198024
:10251D001C856E74856F758570767B017A007900E8
:10252D00122873E94A4B60057E007F0122E4FEFF0D
:01253D00227B
:0F253E00755F007560007561007BFF7A1F79582B
:10254D008B5C8A5D895EAC02AD01ED4C700AE56174
:10255D0045607004FE7F0122ED4C6044E5614560ED
:10256D00603E855C74855D75855E767B017A00794C
:10257D0036122873EA494B601D855F748560758539
:10258D0061767B017A007936122873EA494B600631
:10259D007E007F0180047E007F00EF4E603F80381B
:1025AD00E55E455D601B855C74855D75855E767B3E
:1025BD00017A007936122873E94A4B60028019803E
:1025CD001C855F748560758561767B017A0079362F
:1025DD00122873E94A4B60057E007F0122E4FEFF5D
:0125ED0022CB
:102E9600122DC9C2B57F017E00122DE47FC87E00C7
:062EA600122EACD2B52291
:1023DD00800712248EEF4E70317B017A0079001246
:1023ED002FCC7BFF7A1E79BA122CF97FF47E011265
:1023FD002EAC80DE756EFF756F1E7570BE7BFF7A1D
:10240D001E79CC12249DEF4E70317B017A0079003C
:10241D00122FCC7BFF7A1E79C1122CF97FF47E012D
:10242D00122EAC80CF756E00756F007570007BFF3E
:10243D007A1E79DE12249DEF4E70227B017A00798F
:10244D0000122FCC7BFF7A1E79D3122CF97FF47EEC
:10245D0001122EAC80CF12248EEF4E701B7B017AB1
:10246D00007900122FCC7BFF7A1E79E5122CF97FB3
:10247D00F47E01122EAC80DE7B017A007900022FF2
:01248D00CC82
:0F1D9500755FFF75601F7561707BFF7A1F795E48
:101DA4008B5C8A5D895E7BFF7A1E79F5122CF97F44
:101DB400221200037BFF7A1F7902122CF97F221270
:101DC40000037F2C1200037F22120003AB5CAA5D88
:101DD400A95E122CF97F221200037F2C1200037FCC
:101DE40022120003AB5FAA60A961122CF97F2212B0
:101DF40000037BFF7A1F7906122CF97F887E131269
:101E04002EAC756E00756F007570007BFF7A1F79BC
:101E14000912249DEF64014E70028018756E0075DE
:101E24006F007570007BFF7A1F791412249DEF6494
:101E3400014E70097B017A007900022FCC756E0087
:101E4400756F007570007BFF7A1F792412249DEF53
:101E540064014E70AD7B017A007900122FCC7BFFB8
:101E64007A1E79F5122CF97F221200037BFF7A1F68
:101E74007902122CF97F221200037F2C1200037FB7
:101E840022120003AB5CAA5DA95E122CF97F221218
:101E940000037F2C1200037F22120003AB5FAA60B1
:101EA400A961122CF97F221200037BFF7A1F7906A5
:061EB400122CF9021E06CB
:100026008016756E00756F007570007BFF7A1F79FC
:100036003E12249DEF4E701B7B017A007936122FFB
:10004600CC7BFF7A1F7931122CF97F887E13122E12
:0C005600AC80CF7B017A007936022FCC01
:0C135500900070E0FD900071E0FBE4FFF0
:061361008F578D588B59D7
:10136700E4F55AF55B7B017A007900122FCCE4F59E
:101377004BF54C122ABF7BFF7A1F7946122CF97561
:101387006E00756F007570007BFF7A1F7956122407
:101397009DEF64014E604D756E00756F00757000AE
:1013A7007BFF7A1F795812249DEF64014E60091262
:1013B700253EEF64014E70C7120026121D957F016E
:1013C7007E02122E667F017E06122E661213557B51
:1013D700017A007900122FCC7B017A007936122F1F
:1013E700CC0213867B017A007900122FCC7B017A1D
:1013F700007936122FCC7F017E00122E6690005E98
:10140700EFF07F027E00122E6690005FEFF07F0301
:101417007E00122E66900060EFF07F047E00122E91
:1014270066900061EFF0900032E557F0900070E5AC
:1014370058F0900071E559F012226D7F017E1A1263
:101447002E66900066EFF07F027E1A122E669000DD
:1014570068EFF07F037E1A122E66900067EFF07F29
:10146700047E1A122E6690006AEFF07F057E1A122C
:101477002E66900069EFF07F067E1A122E669000A6
:101487006CEFF07F077E1A122E6690006BEFF07FED
:10149700087E1A122E6690006EEFF07F097E1A12F0
:1014A7002E6690006DEFF07F0A7E1A122E6690006E
:1014B7006FEFF0755F0175600075618C7B017A00D5
:1014C700798A121C4390008AA3E090005CF0900098
:1014D7008CA3E090005DF090005EE0FF12000390A7
:1014E700005FE0FF120003900060E0FF120003902E
:1014F7000061E0FF120003900070E0FF120003900C
:101507000032E0FF120003900071E0FF1200039029
:101517000062E0FF120003900063E0FF12000390F7
:101527000033E0FF120003900034E0FF1200039045
:101537000035E0FF12000390005AE0FF120003900D
:101547000072E0FF120003900073E0FF12000390A7
:101557000076E0FF120003900077E0FF120003908F
:101567000078E0FF120003900079E0FF120003907B
:10157700007AE0FF12000390007BE0FF1200039067
:101587000064E0FF120003900065E0FF1200039083
:10159700005BE0FF120003900066E0FF120003907B
:1015A7000068E0FF120003900067E0FF120003905D
:1015B700006AE0FF120003900069E0FF1200039049
:1015C700006CE0FF12000390006BE0FF1200039035
:1015D700006EE0FF12000390006DE0FF1200039021
:1015E700006FE0FF12000390005CE0FF1200039021
:1015F700005DE0FF120003E4900032F012248EEF4A
:0A16070064014E70F7F54B754C01BD
:0116110022B6
:1020AE00E4F555F5567B017A007900122FCCE4F554
:1020BE004BF54C7F01FE122E6690005EEFF07F0214
:1020CE007E00122E6690005FEFF07F037E00122ED0
:1020DE0066900060EFF07F047E00122E6690006125
:1020EE00EFF07BFF7A1F7976122CF9756E00756F03
:1020FE00007570007BFF7A1F795612249DEF6401E4
:10210E004E6052756E00756F007570007BFF7A1F02
:10211E00795812249DEF64014E600912253EEF643A
:10212E00014E70C7120026121D957F017E02122EDF
:10213E00667F017E06122E66121355E4900032F071
:10214E007B017A007900122FCC7B017A007936124E
:10215E002FCC0220F97B017A007900122FCC90004F
:10216E005EE0FF12000390005FE0FF12000390009C
:10217E0060E0FF120003900061E0FF1200031224E2
:0C218E008EEF64014E70F7F54B754C01AC
:01219A002222
:102ABF008016756E00756F007570007BFF7A1F7939
:102ACF008E12249DEF4E701B7B017A007900122F1E
:102ADF00CC7BFF7A1F7985122CF97FF47E01122EA1
:102AEF00AC80CF7B017A0079007D20122DAD8B6EEB
:102AFF008A6F89707B007A00795C7571007572033B
:102B0F00122C5C1225EE90005BEFF07F017E181205
:0E2B1F002EC290005BE0FD7F017E18022E7E2C
:1018990078537C007D007BFF7A1F79A97E007F1534
:1018A90012112578687C007D007BFF7A1F79BE7E46
:1018B900007F031211258016756E00756F00757013
:1018C900007BFF7A1F79A012249DEF4E701B7B01CC
:1018D9007A007900122FCC7BFF7A1F7995122CF9A7
:1018E9007FF47E01122EAC80CF7B017A0079007DD6
:1018F90020122DADE92401F9E43A8B6EF56F897058
:101909007B007A007953757100757214122C5C751D
:101919006E00756F007570537571007572027B00EA
:101929007A007968122C5C7B007A00796812219B15
:10193900900066EFF07F017E1A122EC2900066E0D9
:10194900FD7F017E1A122E7E756E00756F0075700F
:10195900557571007572027B007A007968122C5CEA
:101969007B007A00796812219B900068EFF0FD7F77
:10197900027E1A122E7E756E00756F00757057758E
:1019890071007572027B007A007968122C5C7B0009
:101999007A00796812219B900067EFF0FD7F037E42
:1019A9001A122E7E756E00756F007570597571006B
:1019B9007572027B007A007968122C5C7B007A00D0
:1019C900796812219B90006AEFF0FD7F047E1A125C
:1019D9002E7E756E00756F0075705B75710075727E
:1019E900027B007A007968122C5C7B007A007968A6
:1019F90012219B900069EFF0FD7F057E1A122E7E61
:101A0900756E00756F0075705D7571007572027B7A
:101A1900007A007968122C5C7B007A0079681221BF
:101A29009B90006CEFF0FD7F067E1A122E7E756E7C
:101A390000756F0075705F7571007572027B007AB1
:101A4900007968122C5C7B007A00796812219B90DE
:101A5900006BEFF0FD7F077E1A122E7E756E007502
:101A69006F007570617571007572027B007A00797B
:101A790068122C5C7B007A00796812219B90006EB9
:101A8900EFF0FD7F087E1A122E7E756E00756F00CD
:101A99007570637571007572027B007A007968123E
:101AA9002C5C7B007A00796812219B90006DEFF025
:101AB900FD7F097E1A122E7E756E00756F00757096
:101AC900657571007572027B007A007968122C5C69
:101AD9007B007A00796812219B90006FEFF0FD7FFF
:061AE9000A7E1A022E7EA7
:102DC900759850758E40538EFEE4F589758BCC75D8
:0B2DD9008DFFC2ABD28ED2AFD2AC2275
:080003008F993099FDC299228A
:102CF9008B6B8A6C896DAB6BAA6CA96D12114B60D9
:102D090013056DE56D7002056C14F912114BFF1274
:052D1900000380E2222E
:102B2D007E007F00E490007CF0A3F0A3F08F828EF6
:102B3D0083E599F0E490007DF0A3F0C29890007CBD
:102B4D00E0FD3395E0FCC3ED9432EC64809480504D
:102B5D0032E004F00FBF00010E2098D1C2C89000E2
:102B6D007EE004F0700690007DE004F0D390007ECE
:102B7D00E094C890007DE06480948040DCD2C8E48D
:092B8D00FEFF22D2C87E007F0188
:012B9600221C
:102B97007E007F36E490007CF0A3F0A3F08F828E56
:102BA70083E599F0E490007DF0A3F0C29890007C53
:102BB700E0FD3395E0FCC3ED9423EC6480948050F2
:102BC70032E004F00FBF00010E2098D1C2C9900077
:102BD7007EE004F0700690007DE004F0D390007E64
:102BE700E094C890007DE06480948040DCD2C9E422
:092BF700FEFF22D2C97E007F011D
:012C000022B1
:10161200900036E090005EF0900037E090005FF0BE
:10162200900038E0900060F0900039E0900061F0A6
:1016320090003AE0900070F090003BE0900032F0B1
:1016420090003CE0900071F090003DE0900062F06C
:1016520090003EE0900063F090003FE0900033F095
:10166200900040E0900034F0900041E0900035F0AE
:10167200900042E090005AF0900043E0900072F037
:10168200900044E0900073F0900045E0900076F006
:10169200900046E0900077F0900047E0900078F0EC
:1016A200900048E0900079F0900049E090007AF0D4
:1016B20090004AE090007BF090004BE0900064F0D4
:1016C20090004CE0900065F090004DE090005BF0DF
:1016D20090004EE0900066F090004FE0900068F0BD
:1016E200900050E0900067F0900051E090006AF0A6
:1016F200900052E0900069F0900053E090006CF08E
:10170200900054E090006BF0900055E090006EF075
:10171200900056E090006DF0900057E090006FF05E
:10172200900058E090005CF0900059E090005DF06D
:101732007B017A007936122FCC90005FE0FF900097
:101742005EE02FFFE433FE900060E07C002FFFECB0
:101752003EFE900061E02FFFEC3EFE900070E02F15
:10176200FFEC3EFE900032E02FFFEC3EFE90007157
:10177200E02FFFEC3EFE900062E02FFFEC3EFE9079
:101782000063E02FFFEC3EFE900033E02FFFEC3EC3
:10179200FE900034E02FFFEC3EFE900035E02FFF7C
:1017A200EC3EFE90005AE02FFFEC3EFE900072E00D
:1017B2002FFFEC3EFE900073E02FFFEC3EFE900008
:1017C20076E02FFFEC3EFE900077E02FFFEC3EFE2E
:1017D200900078E02FFFEC3EFE900079E02FFFECC6
:1017E2003EFE90007AE02FFFEC3EFE90007BE02F61
:1017F200FFEC3EFE900064E02FFFEC3EFE900065A1
:10180200E02FFFEC3EFE90005BE02FFFEC3EFE90EF
:101812000066E02FFFEC3EFE900068E02FFFEC3EFA
:10182200FE900067E02FFFEC3EFE90006AE02FFF83
:10183200EC3EFE900069E02FFFEC3EFE90006CE073
:101842002FFFEC3EFE90006BE02FFFEC3EFE90007F
:101852006EE02FFFEC3EFE90006DE02FFFEC3EFEAF
:1018620090006FE02FFFEC3E90007CF0A3EFF09031
:10187200007CE0FE3395E090007EF0A3CEF07E0087
:10188200A3EEF0A3EFF090005DE06F7001EC600654
:0618920090003274CCF05E
:01189800222D
:092FCC007E007F247D0002130742
:0300230002006672
:10006600C0E0C0F0C083C082C0D075D008E54C6443
:1000760001454B700C122B97EF4E6008121612803A
:0F00860003122B2DD0D0D082D083D0F0D0E03217
:102DE400EF1FAC0670011E4C601000007D7A7CC1A0
:0A2DF4007B80DBFEDCFCDDFA80E6EC
:012DFE0022B2
:102EAC00EF1FAC0670011E4C600B007D207C28DCF3
:052EBC00FEDDFC80EBCF
:012EC10022EE
:072FD500E4F595759630222A
:0E2FA300C2A4D2A57F147E00122EACC2A522BD
:0E2FB100D2A4C2A57F147E00122EACC2A422B0
:102F7500758904758AFF758CFFD28CD2A9D2AF22D0
:102F3F00438E0475D74075D6A2538EEF43AF04D29C
:022F4F00AF22AF
:102F510043D10275D54075D4A253D1F743AF20D2E6
:022F6100AF229D
:102F630043D12075D34075D2A243D18043AF40D221
:022F7300AF228B
:03000B00022CAE16
:102CAE00C0E0C0D0E5282401F528E43527F527E457
:102CBE003526F526E43525F525E54024FFF540E5D6
:102CCE003F34FFF53FE53E34FFF53EE53D34FFF57D
:102CDE003DE5322401F532E43531F531E43530F598
:0B2CEE0030E4352FF52FD0D0D0E032BD
:030063000229DD92
:1029DD00C0E0C0F0C083C082C0D075D008E52C45E2
:1029ED002B700685272985282A052CE52C700205D4
:1029FD002BB4D042E52BB4073D752B00752C00AEE2
:102A0D0029AF2AAB0FAA0EEA3395E0F9F8C3E528F2
:102A1D009BFFE5279AFEE52699FDE52598FCE47BCD
:102A2D0005FAF9F8D31212A6500C75370075380156
:102A3D00538EEF43D10853EFFED0D0D082D083D048
:042A4D00F0D0E032B3
:03009B0002232A13
:10232A00C0E0C0F0C083C082C0D075D008E53C458B
:10233A003B700685273985283A053CE53C7002053D
:10234A003BE52EB4B82FE52DB40B2A753B00753C3E
:10235A0000752D00752E0075410075420153D1F7A5
:10236A007F017E02122E66EF3395E0FEEF64014E86
:10237A007003438E10E53C6464453B7048F53BF5B9
:10238A003CAE39AF3AAB0FAA0EEA3395E0F9F8C37F
:10239A00E5289BFFE5279AFEE52699FDE52598FCA9
:1023AA00E47B05FAF9F8C31212A6400D7464252ECF
:1023BA00F52EE4352DF52D8006752D00752E008538
:1023CA00273985283A53EFFDD0D0D082D083D0F078
:0323DA00D0E0321E
:0300A300022C012B
:102C0100C0E0C0F0C083C082C0D075D008E4FAF93A
:102C1100F8E5362401F536EA3535F535E93534F58B
:102C210034E83533F5337F407E7E7D057C00AB365D
:102C3100AA35A934F8C31212907012F54D754E01E0
:102C4100F549754A01F536F535F534F53353EFFBA2
:0B2C5100D0D0D082D083D0F0D0E03291
:0D2FBF00E4F5C7F5C5F5C675C380F5C4225D
:102E660075C78175C5018FC4EEFF8FC375C65A75C8
:082E7600C6A500AFC2022FBF88
:102E7E0075C78175C5028FC4EEFF8FC38DC275C62F
:082E8E005A75C6A500022FBF12
:102EC20075C78175C5038FC4EEFF8FC375C65A756A
:062ED200C6A500022FBF9F
:030000000227E7ED
:0C27E700787FE4F6D8FD75817C02282E76
:102D66006E3231393065373033332E696F6B2E6CE6
:102D76006100313935363500434C4F5345440050D8
:042D860044503A007B
:10074100C2C9122E967F057E00122DE4D2C9122F46
:10075100D5122F75122F3F122F51122F637F017E59
:100761001E122E66EF3395E0F54F8F504550701EE7
:100771000550E5507002054F7F017E1E122EC2AD5D
:10078100507F017E1E122E7E121FC10208250550C8
:10079100E5507002054F7F017E1E122EC2AD507FC3
:1007A100017E1E122E7E7F017E02122E6690007047
:1007B100EFF07F017E06122E66900071EFF07F014F
:1007C1007E1C122E668F477F027E1C122E668F21A1
:1007D1007F037E1C122E668F227F047E1C122E66E2
:1007E1008F48AF477E00AD217C00AB227A00E548FF
:1007F100755900F55A1227458F408E3F8D3E8C3D2D
:100801007F017E20122E668F457F027E20122E668A
:100811008F517F037E20122E668F527F047E20121D
:100821002E668F46C2C87FF47E01122EACD2C8124A
:1008310023DD121899120026755FFF75602D756111
:10084100787BFF7A2D7966121DA47F017E00122E1E
:100851006690005EEFF07F027E00122E6690005FD0
:10086100EFF07F037E00122E66900060EFF07F04B0
:100871007E00122E66900061EFF090005EE0600352
:10088100020A8290005FE06003020A82900060E049
:100891006003020A82900061E06003020A82900014
:1008A100717406F07F01FE122EC27D067F017E0665
:1008B100122E7E020A70900032E0640470667F019D
:1008C1007E02122E66900070EFF07F017E06122EDE
:1008D10066900071EFF07F017E00122EC290005EE3
:1008E100E0FD7F017E00122E7E90005FE0FD7F0221
:1008F1007E00122E7E900060E0FD7F037E00122EAE
:100901007E900061E0FD7F047E00122E7E900070DB
:10091100E0FD900071E0FB7F44121361E49000322E
:10092100F0020B4D900032E064CC70287F017E0212
:10093100122E66900070EFF07F017E06122E6690F7
:100941000071EFF0FB900070E0FD7FCC121361E4C9
:10095100900032F0756E00756F007570007BFF7A44
:100961002D797E12249DEF64014E6018755F00752C
:1009710060007561007BFF7A2D797E12254DEF6451
:10098100014E7056120026755FFF75602D756178F6
:100991007BFF7A2D7966121DA49000717406F07F99
:1009A10001FE122EC27D067F017E06122E7E900070
:1009B10070E0FD900071E0FB7F04121361754B0044
:1009C100754C01E4900032F07B017A007900122F1E
:1009D100CC7B017A007936122FCC756E00756F00D1
:1009E1007570007BFF7A2D798512249DEF64014E8D
:1009F1006018755F007560007561007BFF7A2D7965
:100A01008512254DEF64014E7056120026755FFF69
:100A110075602D7561787BFF7A2D7966121DA49022
:100A210000717406F07F01FE122EC27D067F017EE9
:100A310006122E7E900070E0FD900071E0FB7F04B5
:100A4100121361754B00754C01E4900032F07B018B
:100A51007A007900122FCC7B017A007936122FCCE3
:100A6100E54E6401454D60030208B7F54DF54E9022
:100A71000070E0FD900071E0FB7F04121361020839
:100A8100B7900032E064086012900070E0FD9000C1
:100A910071E0FBE4FF121361020B4D756E00756F7F
:100AA100007570007BFF7A2D797E12249DEF640121
:100AB1004E6018755F007560007561007BFF7A2DCF
:100AC100797E12254DEF64014E704F120026755F3D
:100AD100FF75602D7561787BFF7A2D7966121DA4F3
:100AE1007F017E02122E667F017E06122E66900025
:100AF10070E0FD900071E0FBE4FF121361754B00A3
:100B0100754C01E4900032F07B017A007900122FDC
:100B1100CC7B017A007936122FCC756E00756F008F
:100B21007570007BFF7A2D798512249DEF64014E4B
:100B3100607B755F007560007561007BFF7A2D79C0
:100B41008512254DEF64014E70028061E490003200
:100B5100F07F017E02122E66EF3395E0FEEF640511
:100B61004E7005120C8580157F017E02122E66EFF4
:100B71003395E0FEEF64014E70031200A6756E001E
:100B8100756F007570007BFF7A2D797E12249DEFC1
:100B910064014E6018755F007560007561007BFF30
:100BA1007A2D797E12254DEF64014E705212002686
:100BB100755FFF75602D7561787BFF7A2D796612FF
:100BC1001DA47F017E02122E667F017E06122E6613
:100BD100900070E0FD900071E0FBE4FF121361757D
:100BE1004B00754C01E4900032F07B017A007900F2
:100BF100122FCC7B017A007936122FCC020B4D7566
:100C01006E00756F007570007BFF7A2D7985122457
:100C11009DEF64014E601B755F007560007561009A
:100C21007BFF7A2D798512254DEF64014E60030219
:100C3100084B120026755FFF75602D7561787BFF8B
:100C41007A2D7966121DA47F017E02122E667F0124
:100C51007E06122E66900070E0FD900071E0FBE4CC
:100C6100FF121361754B00754C01E4900032F07B6B
:100C7100017A007900122FCC7B017A007936122F8C
:040C8100CC020B4D49
:040095000564000EF0
:101AEF0041005E0041005F00410060004100610065
:101AFF004100700541003200410071004100620059
:101B0F0041006300410033004100340041003500C3
:101B1F0041005A00410072004100730041007600FD
:101B2F0041007700410078004100790041007A00C0
:101B3F0041007B00410064004100650041005B00F3
:101B4F0041006600410068004100670041006A00E3
:101B5F004100690041006C0041006B0041006E00C4
:101B6F0041006D0041006F0041005C0041005D00CD
:101B7F00023700000241000002490000024D000040
:101B8F0042007400006024003600000000000000D6
:101B9F000000000000000000000000000000000036
:101BAF000000000000000000000000000060320094
:101BBF000000000000000000000000000000000016
:101BCF000000000000000000000000000000000006
:101BDF0000000000000000000000000000000000F6
:101BEF00000000043D00000000014700012100013A
:101BFF002200014800042500000000042F0000000F
:101C0F00000145000151000152000146000223006E
:101C1F0001043300000000022B0000023B00000211
:101C2F002D00000229000002390000024F000002BF
:031C3F004B000057
:1027F300020741E493A3F8E493A34003F68001F2B4
:1028030008DFF48029E493A3F85407240CC8C333E6
:10281300C4540F4420C8834004F456800146F6DFB5
:10282300E4800B0102040810204080901AEFE47E3C
:10283300019360BCA3FF543F30E509541FFEE493AA
:10284300A360010ECF54C025E060A840B8E493A371
:10285300FAE493A3F8E493A3C8C582C8CAC583CA9C
:10286300F0A3C8C582C8CAC583CADFE9DEE780BE54
:011C420000A1
:10105500E709F608DFFA8046E709F208DFFA803E7D
:1010650088828C83E709F0A3DFFA8032E309F6086A
:10107500DFFA8078E309F208DFFA807088828C83D2
:10108500E309F0A3DFFA806489828A83E0A3F60886
:10109500DFFA805889828A83E0A3F208DFFA804C60
:1010A50080D280FA80C680D4806980F28033801037
:1010B50080A680EA809A80A880DA80E280CA8033A0
:1010C50089828A83ECFAE493A3C8C582C8CCC58318
:1010D500CCF0A3C8C582C8CCC583CCDFE9DEE780E8
:1010E5000D89828A83E493A3F608DFF9ECFAA9F067
:1010F500EDFB2289828A83ECFAE0A3C8C582C8CCBD
:10110500C583CCF0A3C8C582C8CCC583CCDFEADED5
:10111500E880DB89828A83E493A3F208DFF980CC37
:1011250088F0EF60010E4E60C388F0ED2402B40430
:101135000050B9F582EB2402B4040050AF232345D7
:0611450082239010A57347
:10114B00BB010689828A83E0225002E722BBFE02A2
:09115B00E32289828A83E49322D5
:10116400BB010CE58229F582E5833AF583E0225040
:1011740006E92582F8E622BBFE06E92582F8E2228A
:0D118400E58229F582E5833AF583E49322A4
:10119100EF8DF0A4A8F0CF8CF0A428CE8DF0A42E72
:0211A100FE222C
:1011A300BB010A89828A83F0E5F0A3F0225006F797
:0F11B30009A7F01922BBFE06F3E5F009F3192294
:1011C20075F008758200EF2FFFEE33FECD33CDCCE4
:1011D20033CCC58233C5829BED9AEC99E582984067
:1011E2000CF582EE9BFEED9AFDEC99FC0FD5F0D644
:1011F200E4CEFBE4CDFAE4CCF9A88222B800C1B96E
:101202000059BA002DEC8BF084CFCECDFCE5F0CBAB
:10121200F97818EF2FFFEE33FEED33FDEC33FCEBE4
:1012220033FB10D703994004EB99FB0FD8E5E4F99F
:10123200FA227818EF2FFFEE33FEED33FDEC33FC8C
:10124200C933C910D7059BE99A4007EC9BFCE99A80
:10125200F90FD8E0E4C9FAE4CCFB2275F010EF2FC5
:10126200FFEE33FEED33FDCC33CCC833C810D707C5
:101272009BEC9AE899400AED9BFDEC9AFCE899F800
:0E1282000FD5F0DAE4CDFBE4CCFAE4C8F92293
:10129000EB9FF5F0EA9E42F0E99D42F0EC6480C8D5
:0612A00064809845F02275
:1012A600EB9FF5F0EA9E42F0E99D42F0E89C45F09E
:0112B6002215
:1012B700E8600FECC313FCED13FDEE13FEEF13FF15
:0312C700D8F12239
:0C12CA00ECF0A3EDF0A3EEF0A3EFF02297
:1012D600A8828583F0D083D0821212ED1212ED120D
:1012E60012ED1212EDE473E493A3C583C5F0C58332
:1012F600C8C582C8F0A3C583C5F0C583C8C582C862
:0113060022C4
:102DFF00EFC394414005EF945B400BEFC3946140E8
:0B2E0F0008EF947B5003D38001C32226
:0F2F8500EFC394304007EF943A50028001C3220B
:0F2F9400EFC394414007EF945B50028001C322CA
:102C5C008B6B8A6C896DE4F573F574E5721572AE45
:102C6C0071700215714E6033AB6EAA6FA9701211A0
:102C7C004BFFAB6BAA6CA96D0574E574AC73700259
:102C8C00057314F5828C83EF121333EF60CD74014E
:102C9C002570F570E4356FF56F80C0AB6BAA6CA92D
:022CAC006D2297
:102F1700E4FFFE12114B600C0FEF70010E09E97010
:052F2700F20A80EF2218
:102DAD00E94A4B70012212114BFF6D700122EF7039
:0C2DBD0004FBFAF92209E970ED0A80EA33
:102873008B718A728973AB74AA75A97612114B6036
:1028830063AB71AA72A97312114B605F857477856C
:1028930075788576798B7A8A7B897CAB77AA78A9D8
:1028A3007912114BFF6023AB7AAA7BA97C12114BDF
:1028B3006F7017042579F579E43578F57874012577
:1028C3007CF57CE4357BF57B80D1AB77AA78A9795D
:1028D30012114B7002800D74012573F573E4357288
:1028E300F572809DAB71AA72A973227B007A00797D
:0228F3000022C1
:1025EE008B5F8A608961AB5FAA60A96112114BFF94
:1025FE00122F2C500D74012561F561E43560F560E4
:10260E0080E4D200AB5FAA60A96112114BFF642B6C
:10261E006004EFB42D1BAB5F0561E561AA6070022B
:10262E00056014F912114B642D6003D38001C3921F
:10263E0000E4F562F563AB5FAA60A96112114BFF6E
:10264E00122F855036AB5FAA60A96112114BFF3372
:10265E0095E0FEEF24D0FBEE34FFFAAE62AF637C62
:10266E00007D0A121191EF2BF563EE3AF5627401BB
:10267E002561F561E43560F56080BB300006AE6221
:0E268E00AF638009C3E49563FFE49562FE220A
:10130700EF4E6012EF60010EEDBB010B89828A83FD
:10131700F0A3DFFCDEFA2289F05007F709DFFCA90A
:0C132700F022BBFEFCF309DFFCA9F02261
:10133300F8BB010DE58229F582E5833AF583E8F0F0
:10134300225006E92582C8F622BBFE05E92582C89C
:02135300F22284
:102F2C00EFC394094005EF940E4003BF2003D380F8
:032F3C0001C322AC
:00000001FF
